:020000040800F2
:100000000000022045ED000895ED000895ED000880
:1000100095ED000895ED000895ED00080000000042
:1000200000000000000000000000000095ED000846
:1000300095ED00080000000095ED000869EA000851
:1000400095ED000895ED000895ED000895ED000888
:100050000000000095ED000895ED000895ED000802
:1000600095ED000895ED000895ED000895ED000868
:1000700095ED000895ED000895ED000895ED000858
:1000800095ED000895ED000895ED000895ED000848
:1000900095ED000895ED000895ED000895ED000838
:1000A00095ED000895ED000895ED000895ED000828
:1000B00095ED000895ED000895ED000895ED000818
:1000C00095ED000895ED000895ED000895ED000808
:1000D00095ED000895ED000895ED000895ED0008F8
:1000E00095ED000895ED000895ED000895ED0008E8
:1000F00095ED000895ED000895ED000895ED0008D8
:1001000095ED000895ED000895ED000895ED0008C7
:1001100095ED000895ED000895ED000895ED0008B7
:1001200095ED000895ED000895ED000895ED0008A7
:1001300095ED000895ED000895ED000895ED000897
:1001400095ED000895ED000895ED000895ED000887
:1001500095ED000895ED000895ED000895ED000877
:1001600095ED000895ED000895ED000895ED000867
:1001700095ED000895ED000895ED000895ED000857
:1001800095ED000895ED000800000000000000005B
:10019000000000000000000000000000000000005F
:0801A00095ED000895ED000843
:1001B00010B5054C237833B9044B13B10448AFF3A1
:1001C00000800123237010BD00010020000000000A
:1001D0000004010808B5034B1BB103490348AFF302
:1001E000008008BD00000000040100200004010898
:1001F00001F0FF01102A2BDB10F0070F08D010F8D8
:10020000013B013A8B422DD010F0070F42B3F6D1DB
:10021000F0B441EA012141EA014122F007047FF0F4
:1002200000070023F0E80256083C85EA010586EA4B
:10023000010685FA47F5A3FA87F586FA47F6A5FA87
:1002400087F68EB9EED1F0BC01F0FF0102F0070293
:1002500032B110F8013B013A83EA010313B1F8D13E
:100260000020704701387047002D06BF354603381F
:10027000073815F0010F07D1013015F4807F02BF58
:10028000013015F4C03F0130F0BC0138704700BFA9
:10029000034613F8012B002AFBD1181A01387047C6
:1002A00070B54FF0FF0C4CF4E06C1CEA11541DBF0C
:1002B0001CEA135594EA0C0F95EA0C0F00F0DEF8D7
:1002C0002C4481EA030621EA4C5123EA4C5350EABC
:1002D000013518BF52EA033541F4801143F480130D
:1002E00038D0A0FB02CE4FF00005E1FB02E506F09E
:1002F0000042E0FB03E54FF00006E1FB03569CF0F3
:10030000000F18BF4EF0010EA4F1FF04B6F5007FF8
:1003100064F5407404D25FEA4E0E6D4146EB06066A
:1003200042EAC62141EA55514FEAC52040EA5E50F3
:100330004FEACE2EB4F1FD0C88BFBCF5E06F1ED89D
:10034000BEF1004F08BF5FEA500E50F1000041EBD4
:10035000045170BD06F0004646EA010140EA020081
:1003600081EA0301B4EB5C04C2BFD4EB0C0541EAA3
:10037000045170BD41F480114FF0000E013C00F3B8
:10038000AB8014F1360FDEBF002001F0004170BDDC
:10039000C4F10004203C35DA0C341BDC04F11404F5
:1003A000C4F1200500FA05F320FA04F001FA05F281
:1003B00040EA020001F0004221F0004110EBD3704E
:1003C00021FA04F642EB06015EEA430E08BF20EA7A
:1003D000D37070BDC4F10C04C4F1200500FA04F31D
:1003E00020FA05F001FA04F240EA020001F00041AF
:1003F00010EBD37041F100015EEA430E08BF20EA22
:10040000D37070BDC4F1200500FA05F24EEA020E69
:1004100020FA04F301FA05F243EA020321FA04F098
:1004200001F0004121FA04F220EA020000EBD3704F
:100430005EEA430E08BF20EAD37070BD94F0000F4F
:100440000FD101F00046400041EB010111F4801F83
:1004500008BF013CF7D041EA060195F0000F18BF34
:10046000704703F00046520043EB030313F4801F70
:1004700008BF013DF7D043EA0603704794EA0C0F2A
:100480000CEA135518BF95EA0C0F0CD050EA410640
:1004900018BF52EA4306D1D181EA030101F00041BD
:1004A0004FF0000070BD50EA410606BF10461946E5
:1004B00052EA430619D094EA0C0F02D150EA0136F1
:1004C00013D195EA0C0F05D152EA03361CBF104632
:1004D00019460AD181EA030101F0004141F0FE41D1
:1004E00041F470014FF0000070BD41F0FE4141F455
:1004F000780170BD81F0004102E000BF83F000434D
:1005000030B54FEA41044FEA430594EA050F08BFAE
:1005100090EA020F1FBF54EA000C55EA020C7FEA72
:10052000645C7FEA655C00F0E2804FEA5454D4EBEF
:100530005555B8BF6D420CDD2C4480EA020281EAB9
:10054000030382EA000083EA010180EA020281EAF1
:100550000303362D88BF30BD11F0004F4FEA013143
:100560004FF4801C4CEA113102D0404261EB410152
:1005700013F0004F4FEA03334CEA133302D05242D8
:1005800063EB430394EA050F00F0A780A4F1010494
:10059000D5F1200E0DDB02FA0EFC22FA05F28018CE
:1005A00041F1000103FA0EF2801843FA05F35941B4
:1005B0000EE0A5F120050EF1200E012A03FA0EFC33
:1005C00028BF4CF0020C43FA05F3C01851EBE3715D
:1005D00001F0004507D54FF0000EDCF1000C7EEB7A
:1005E00000006EEB0101B1F5801F1BD3B1F5001FB8
:1005F0000CD349085FEA30004FEA3C0C04F10104D7
:100600004FEA445212F5800F80F09A80BCF1004FFF
:1006100008BF5FEA500C50F1000041EB045141EA81
:10062000050130BD5FEA4C0C404141EB0101013C4A
:1006300028BFB1F5801FE9D291F0000F04BF014639
:100640000020B1FA81F308BF2033A3F10B03B3F10B
:1006500020020CDA0C3208DD02F1140CC2F10C029B
:1006600001FA0CF021FA02F10CE002F11402D8BFF9
:10067000C2F1200C01FA02F120FA0CFCDCBF41EAC5
:100680000C019040E41AA2BF01EB0451294330BD94
:100690006FEA04041F3C1CDA0C340EDC04F1140471
:1006A000C4F1200220FA04F001FA02F340EA030048
:1006B00021FA04F345EA030130BDC4F10C04C4F18E
:1006C000200220FA02F001FA04F340EA030029466E
:1006D00030BD21FA04F0294630BD94F0000F83F4B8
:1006E000801306BF81F480110134013D4EE77FEA9B
:1006F000645C18BF7FEA655C29D094EA050F08BFE7
:1007000090EA020F05D054EA000C04BF19461046C7
:1007100030BD91EA030F1EBF0021002030BD5FEA0B
:10072000545C05D14000494128BF41F0004130BD33
:1007300014F580043CBF01F5801130BD01F0004587
:1007400045F0FE4141F470014FF0000030BD7FEAFA
:10075000645C1ABF194610467FEA655C1CBF0B46F5
:10076000024650EA013406BF52EA033591EA030F0C
:1007700041F4002130BD00BF90F0000F04BF002104
:10078000704730B54FF4806404F132044FF0000537
:100790004FF0000150E700BF90F0000F04BF0021B0
:1007A000704730B54FF4806404F1320410F0004516
:1007B00048BF40424FF000013EE700BF42004FEA11
:1007C000E2014FEA31014FEA02701FBF12F07F438E
:1007D00093F07F4F81F06051704732F07F4208BF45
:1007E000704793F07F4F04BF41F40021704730B54C
:1007F0004FF4607401F0004521F000411CE700BF98
:1008000050EA010208BF704730B54FF000050AE01A
:1008100050EA010208BF704730B511F0004502D51B
:10082000404261EB41014FF4806404F132045FEA1D
:10083000915C3FF4D8AE4FF003025FEADC0C18BFC6
:1008400003325FEADC0C18BF033202EBDC02C2F1B8
:10085000200300FA03FC20FA02F001FA03FE40EA4A
:100860000E0021FA02F11444BDE600BF4FF0FF3C38
:1008700006E000BF4FF0010C02E000BF4FF0010C9A
:100880004DF804CD4FEA410C7FEA6C5C4FEA430C13
:1008900018BF7FEA6C5C1BD001B050EA410C0CBF62
:1008A00052EA430C91EA030F02BF90EA020F0020C4
:1008B000704710F1000F91EA030F58BF994208BF2B
:1008C00090422CBFD8176FEAE37040F001007047E8
:1008D0004FEA410C7FEA6C5C02D150EA013C07D13F
:1008E0004FEA430C7FEA6C5CD6D152EA033CD3D08A
:1008F0005DF8040B704700BF8446104662468C4684
:100900001946634600E000BF01B5FFF7B7FF0028B6
:1009100048BF10F1000F01BD4DF808EDFFF7F4FFDF
:100920000CBF012000205DF808FB00BF4DF808ED6A
:10093000FFF7EAFF34BF012000205DF808FB00BF8D
:100940004DF808EDFFF7E0FF94BF012000205DF8AF
:1009500008FB00BF4DF808EDFFF7CEFF94BF012064
:1009600000205DF808FB00BF4DF808EDFFF7C4FF5D
:1009700034BF012000205DF808FB00BF4A0011D2FF
:1009800012F5001211D20DD56FF47873B3EB6252E9
:100990000ED44FEAC12343F0004343EA505323FAF5
:1009A00002F070474FF00000704750EA013002D16A
:1009B0004FF0FF3070474FF00000704753B94AB90D
:1009C000002908BF00281CBF4FF0FF314FF0FF3057
:1009D00000F070B9ADF1080C6DE904CE00F006F836
:1009E000DDF804E0DDE9022304B070472DE9F047AB
:1009F000089E0D4604460F46002B4AD18A42944673
:100A000065D9B2FA82F343B102FA03FCC3F12002C2
:100A10009F4020FA02F217439C404FEA1C4E1FFAF7
:100A20008CF5B7FBFEF1220C0EFB117742EA074270
:100A300001FB05F090420AD91CEB020201F1FF37DD
:100A400080F01C81904240F2198102396244121AEE
:100A5000A4B2B2FBFEF00EFB102244EA024400FBFB
:100A600005F5A5420AD91CEB040400F1FF3280F021
:100A70000781A54240F204816444023840EA014003
:100A8000641B00211EB1DC400023C6E90043BDE821
:100A9000F0878B4208D9002E00F0ED800021C6E9D6
:100AA00000050846BDE8F087B3FA83F1002949D173
:100AB000AB4202D3824200F2F880841A65EB030253
:100AC00001201746002EE2D0C6E90047DFE702B951
:100AD000FFDEB2FA82F3002B40F090808A1A4FEAD0
:100AE0001C471FFA8CFE0121B2FBF7F507FB15200E
:100AF000220C42EA00420EFB05F0904208D91CEBA2
:100B0000020205F1FF3802D2904200F2CB80454646
:100B1000121AA4B2B2FBF7F007FB102244EA024417
:100B20000EFB00FEA64508D91CEB040400F1FF32C1
:100B300002D2A64500F2BB801046A4EB0E0440EAA8
:100B400005409FE7C1F120078B4022FA07FC4CEAE1
:100B5000030C05FA01F420FA07F3FD404FEA1C49A3
:100B60002343B5FBF9F81FFA8CFE09FB18551C0C42
:100B700044EA054408FB0EF5A54202FA01F200FA28
:100B800001F00BD91CEB040408F1FF3A80F08880D7
:100B9000A54240F28580A8F102086444641B9DB21E
:100BA000B4FBF9F309FB134445EA044403FB0EFECE
:100BB000A64508D91CEB040403F1FF356CD2A64509
:100BC0006AD9023B644443EA0843A3FB0295A4EBC1
:100BD0000E04AC42C846AE4656D353D056B1B0EB25
:100BE000080264EB0E0404FA07F7CA40CC4017432E
:100BF000C6E9007418460021BDE8F087C3F1200162
:100C000002FA03FC20FA01F225FA01F19D402A4381
:100C10004FEA1C471FFA8CFEB1FBF7F007FB1015DB
:100C2000110C41EA054100FB0EF58D4204FA03F474
:100C300008D91CEB010100F1FF382FD28D422DD9CC
:100C400002386144491B92B2B1FBF7F507FB15115D
:100C500042EA014205FB0EF1914208D91CEB020267
:100C600005F1FF3816D2914214D9023D6244521A5E
:100C700045EA004138E73146304608E73946E6E6BE
:100C80001046FBE64845A9D2B9EB020865EB0C0E0D
:100C9000013BA3E74546EAE72B4694E74046D1E708
:100CA000D0467BE7023D624432E708460AE76444E7
:100CB000023842E7704700BF80B582B000AF78606D
:100CC0000B46FB70124BDB689847114B5B699847EA
:100CD0000F4B1B6AF02098470D4B1B6A7A68120A6B
:100CE000D2B2104698470A4B1B6A7A68D2B21046B5
:100CF0009847074B1B6AFA7810469847044B9B6944
:100D00009847034B1B69984700BF0837BD4680BD15
:100D10000400002080B584B000AF7860134BDB681E
:100D20009847124B5B699847104B1B6A0F209847F6
:100D30000E4B1B6A7A68120AD2B2104698470B4BC8
:100D40001B6A7A68D2B210469847084BDB6998470D
:100D50000346FB73054B9B699847044B1B699847F7
:100D6000FB7B18461037BD4680BD00BF0400002045
:100D700080B586B000AFF860B9601346FB800023F1
:100D8000FB82214BDB6898471F4B5B699847002328
:100D9000FB822AE01C4B5B6998471B4B1B6AF020C7
:100DA0009847194B1B6AFA6891B2FA8A0A4492B2C0
:100DB000120A92B2D2B210469847134B1B6AFA68D5
:100DC000D1B2FA8AD2B20A44D2B2104698470E4B38
:100DD0001B6AFA8AB9680A441278104698470A4B87
:100DE0009B699847FB8A0133FB82FA8AFB889A4207
:100DF000D0D3054B9B699847034B1B69984700BFAD
:100E00001837BD4680BD00BF0400002090B587B0F4
:100E100000AFF860B9601346FB800023FB82214BD2
:100E2000DB6898471F4B5B6998470023FB822AE0E9
:100E30001C4B5B6998471B4B1B6A0F209847194B4B
:100E40001B6AFA6891B2FA8A0A4492B2120A92B202
:100E5000D2B210469847134B1B6AFA68D1B2FA8A8D
:100E6000D2B20A44D2B2104698470E4BDB69FA8AD6
:100E7000B9688C189847034623700A4B9B699847BA
:100E8000FB8A0133FB82FA8AFB889A42D0D3054B56
:100E90009B699847034B1B69984700BF1C37BD46A9
:100EA00090BD00BF0400002090B585B000AF0346A0
:100EB000FB710023FB810023BB81FB7904331B0200
:100EC00020331846FFF726FF0346BB81BB891B0270
:100ED0009CB2FB7904331B0221331846FFF71AFF3B
:100EE00003469BB22344BB81BB89002B16D0FB7900
:100EF00004331B0220331846FFF70CFF0346FB8127
:100F0000FB891B029CB2FB7904331B022133184678
:100F1000FFF700FF03469BB22344FB81FA89BB899C
:100F20009A42CAD1FB8918461437BD4690BD90B588
:100F300085B000AF0346FB710023FB810023BB811A
:100F4000FB7904331B0226331846FFF7E3FE034602
:100F5000BB81BB891B029CB2FB7904331B02273384
:100F60001846FFF7D7FE03469BB22344BB81BB89DB
:100F7000002B16D0FB7904331B0226331846FFF7EB
:100F8000C9FE0346FB81FB891B029CB2FB7904333B
:100F90001B0227331846FFF7BDFE03469BB22344CE
:100FA000FB81FA89BB899A42CAD1FB89184614375A
:100FB000BD4690BD80B584B000AF0346FB714FF4D1
:100FC000C043BB600023FB7320E01A20FFF7A2FEA2
:100FD0000346194697F90F305B00032202FA03F328
:100FE00001EA030297F90F305B0042FA03F3012292
:100FF00002FA03F39BB29B021A46BB681344BB6020
:1010000097F90F30DBB20133DBB2FB7397F90F2096
:10101000FB799A42D9DBBB6818461037BD4680BDC4
:1010200080B584B000AF0346FB714FF48043BB60D2
:101030000023FB7320E01B20FFF76CFE03461946DC
:1010400097F90F305B00032202FA03F301EA03026F
:1010500097F90F305B0042FA03F3012202FA03F31F
:101060009BB29B021A46BB681344BB6097F90F30D2
:10107000DBB20133DBB2FB7397F90F20FB799A42A5
:10108000D9DBBB6818461037BD4680BD90B585B02A
:1010900000AF03463960FB711346BB80FB79043314
:1010A0001B0224331846FFF735FE03469BB21B0292
:1010B0009CB2FB7904331B0225331846FFF72AFE46
:1010C00003469BB22344FB811B20FFF723FE03460C
:1010D0001946FB795B00032202FA03F301EA0302DB
:1010E000FB795B0042FA03F3012202FA03F39BB29D
:1010F0009B029BB2013B9BB21AB2B7F90E30134070
:101100001BB2BB81FB791846FFF78AFF03469AB2F0
:10111000BB8913447B81BA89BB88D4181B20FFF795
:10112000F9FD03461946FB795B00032202FA03F33B
:1011300001EA0302FB795B0042FA03F3012202FA9F
:1011400003F39BB29B029C4233DD1B20FFF7E2FDC1
:1011500003461946FB795B00032202FA03F301EA16
:101160000302FB795B0042FA03F3012202FA03F364
:101170009BB29B029AB2BB89D31A3B817B893A8985
:1011800039681846FFF7F4FD3B893A6813443B6021
:10119000BA883B89D31A3B81FB791846FFF740FF99
:1011A00003467B817B893A8939681846FFF7E0FD61
:1011B00005E07B89BA8839681846FFF7D9FDFA89B6
:1011C000BB881344FB81FB7904331B0224331A468A
:1011D000FB891B0A9BB2DBB219461046FFF76CFD78
:1011E000FB7904331B0225331A46FB89DBB219460F
:1011F0001046FFF761FD00BF1437BD4690BD90B5A6
:1012000085B000AF03463960FB711346BB80FB79A4
:1012100004331B0228331846FFF77CFD03469BB2BC
:101220001B029CB2FB7904331B0229331846FFF7DB
:1012300071FD03469BB22344FB811A20FFF76AFD30
:1012400003461946FB795B00032202FA03F301EA25
:101250000302FB795B0042FA03F3012202FA03F373
:101260009BB29B029BB2013B9AB2FB891340BB81AC
:10127000FB791846FFF79EFE03469AB2BB891344DA
:101280007B81BA89BB88D4181A20FFF743FD034637
:101290001946FB795B00032202FA03F301EA030219
:1012A000FB795B0042FA03F3012202FA03F39BB2DB
:1012B0009B029C4233DD1A20FFF72CFD03461946A2
:1012C000FB795B00032202FA03F301EA0302FB79D4
:1012D0005B0042FA03F3012202FA03F39BB29B0282
:1012E0009AB2BB89D31A3B817B893A8939681846FF
:1012F000FFF78CFD3B893A6813443B60BA883B8911
:10130000D31A3B81FB791846FFF754FE03467B81D5
:101310007B893A8939681846FFF778FD05E07B89B3
:10132000BA8839681846FFF771FDFA89BB881344FB
:10133000FB81FB7904331B0228331A46FB891B0A05
:101340009BB2DBB219461046FFF7B6FCFB790433BB
:101350001B0229331A46FB89DBB219461046FFF7F8
:10136000ABFC00BF1437BD4690BD90B585B000AF53
:1013700003460A46FB711346BB80FB7904331B020C
:1013800028331846FFF7C6FC03469BB21B029CB2EB
:10139000FB7904331B0229331846FFF7BBFC0346D5
:1013A0009BB22344FB81FA89BB881344FB81FB7900
:1013B00004331B0228331A46FB891B0A9BB2DBB29B
:1013C00019461046FFF778FCFB7904331B022933DA
:1013D0001A46FB89DBB219461046FFF76DFC00BFC9
:1013E0001437BD4690BD000090B585B000AF0446EF
:1013F000084611461A462346FB710346BB710B464D
:10140000BB801346FB70FB79042B02D94FF0FF33EE
:10141000DEE0BB79052B19D0052B14DC012B05D0A0
:10142000002B10DD023B022B0DD812E007F10C035C
:10143000042219460F20FFF7E9FCFB68002B07D1B7
:101440006FF00203C4E06FF00403C1E000BF00E0EE
:1014500000BFFB7803F00403002B02D06FF00503FC
:10146000B6E0FB78002B1CD0BB79012B02D0022BFD
:1014700008D016E0FB7803F02103002B0ED16FF0AB
:101480000503A5E0FB7803F02003002B08D097F9B3
:101490000330002B04DB6FF0050399E000BF00E090
:1014A00000BFFB79184600F0A1F8FB7904331B025A
:1014B000184697F9033023F00F035AB297F9063014
:1014C00013435BB2DBB21946FFF7F6FBBB88002B78
:1014D00010D1414B1B885A1C91B23F4A1180BB80EE
:1014E0003D4B1B884FF6F072934203D13A4B4FF4B9
:1014F00040421A80FB7904331B0204331A46BB882E
:101500001B0A9BB2DBB219461046FFF7D5FBFB79ED
:1015100004331B0205331A46BB88DBB2194610465A
:10152000FFF7CAFBFB7904331B0201330121184684
:10153000FFF7C2FB00BFFB7904331B0201331846DF
:10154000FFF7E8FB0346002BF5D1FB79012202FAF5
:1015500003F31BB2DB431AB2204B1B881BB21340B0
:101560001BB29AB21D4B1A80FB7803F00102FB7983
:1015700002FA03F31AB2194B1B881BB213431BB2B6
:101580009AB2164B1A80FB79012202FA03F31BB2BE
:10159000DB431AB2124B1B881BB213401BB29AB228
:1015A0000F4B1A80FB790F4A002122F81310FB79A8
:1015B0000D4A0021D15400BFFB7904331B020333D1
:1015C0001846FFF7A7FB0346002BF5D097F9073025
:1015D00018461437BD4690BD000000201C010020B5
:1015E0001E010020200100202801002080B582B0CB
:1015F00000AF0346FB71FB79042B02D94FF0FF3398
:101600004DE0FB7904331B02013310211846FFF72C
:1016100053FB00BFFB7904331B0201331846FFF76D
:1016200079FB0346002BF5D1FB7904331B0202330F
:10163000FF211846FFF740FBFB79012202FA03F372
:101640001BB2DB431AB2184B1B881BB213401BB2F0
:101650009AB2154B1A80FB79012202FA03F31BB2EE
:10166000DB431AB2114B1B881BB213401BB29AB258
:101670000E4B1A80FB790E4A002122F81310FB79D9
:101680000C4A0021D15400BFFB7904331B02033301
:101690001846FFF73FFB0346002BF5D10123184600
:1016A0000837BD4680BD00BF1C0100201E01002080
:1016B000200100202801002080B584B000AF03463F
:1016C0003960FB711346BB80FB79042B02D94FF0C4
:1016D000FF33B1E0FB7904331B021846FFF71AFB16
:1016E000034603F00F03012B02D06FF00403A3E0C5
:1016F000FB7904331B0203331846FFF70BFB034649
:10170000132B02D06FF0020396E03B681B78FB605E
:10171000FB681B023A68013212781344FB60FB68D5
:101720001B023A68023212781344FB60FB681B020A
:101730003A68033212781344FB60FB68B3F1FF3F51
:1017400002D0FB68002B02D16FF00B0374E0BB8862
:10175000002B02D16FF00A036EE0FB7904331B0209
:101760000C33042239681846FFF702FBFB79043377
:101770001B0210331A46BB881B0A9BB2DBB2194608
:101780001046FFF799FAFB7904331B0211331A460E
:10179000BB88DBB219461046FFF78EFAFB7904339B
:1017A0001B02013304211846FFF786FA00BFFB79BC
:1017B00004331B0201331846FFF7ACFA0346002B33
:1017C000F5D11F4B1B881A46FB7942FA03F303F04D
:1017D0000103002B25D000232EE0FB7904331B02EC
:1017E00002331846FFF796FA034603F00803002B6E
:1017F0000AD0FB7904331B02023308211846FFF795
:101800005BFA6FF00C0317E0FB7904331B02033320
:101810001846FFF77FFA0346002B02D16FF003034F
:101820000AE0FB7904331B0203331846FFF772FA10
:101830000346172BD1D1012318461037BD4680BD72
:101840001C01002080B582B000AF0346FB71FB791C
:10185000042B02D94FF0FF3359E0FB7904331B020C
:101860001846FFF757FA034603F00F03012B02D087
:101870006FF004034BE0FB7904331B0201330821B2
:101880001846FFF719FA00BFFB7904331B02013336
:101890001846FFF73FFA0346002BF5D1FB790122EA
:1018A00002FA03F31BB2DB431AB21B4B1B881BB2B9
:1018B00013401BB29AB2184B1A80184B1B881A4659
:1018C000FB7942FA03F303F00103002B14D0002349
:1018D0001DE0FB7904331B0202331846FFF71AFAA6
:1018E000034603F00803002B06D0FB791846FFF7E8
:1018F0007DFE6FF00C030AE0FB7904331B02033317
:101900001846FFF707FA0346002BE2D101231846D9
:101910000837BD4680BD00BF1E0100201C0100200D
:1019200080B584B000AF03463960FB711346BB80BD
:101930000023FB730023BB81FB79042B02D94FF0FA
:10194000FF33D8E0FB7904331B021846FFF7E2F9B6
:10195000034603F00F03012B02D06FF00403CAE02B
:10196000BB88002B02D16FF00D03C4E0FB79043378
:101970001B0203331846FFF7CDF90346FB73FB7BCD
:10198000172B05D0FB7B1C2B02D06FF00603B2E0B7
:101990005B4B1B881A46FB7942FA03F303F0010301
:1019A000002B33D0FB7904331B0202331846FFF7B8
:1019B000B1F90346FB73FB7B03F01003002B17D038
:1019C000FB7904331B02023310211846FFF774F928
:1019D000FB79012202FA03F31BB2DB431AB2484B34
:1019E0001B881BB213401BB29AB2454B1A800DE004
:1019F000FB7B03F00803002B06D0FB791846FFF7AA
:101A0000F5FD6FF00C0376E0002374E01B20FFF778
:101A100081F903461946FB795B00032202FA03F3BE
:101A200001EA0302FB795B0042FA03F3012202FAA6
:101A300003F39BB29B02BB81BA88BB899A4201D94E
:101A4000BB89BB80FB791846FFF72EFA0346BB81A2
:101A5000FB7904331B0203331846FFF75BF9034697
:101A6000FB73FB7B172B09D0FB7B1C2B06D0FB7970
:101A70001846FFF7BBFD6FF006033CE0214B1B88C7
:101A80001A46FB7942FA03F303F00103002B05D059
:101A9000BA88BB899A4201D900232CE0BA88BB8955
:101AA0009A4200D9CEE700BFBA88FB793968184658
:101AB000FFF7ECFAFB7904331B02013320211846AF
:101AC000FFF7FAF800BFFB7904331B020133184615
:101AD000FFF720F90346002BF5D1FB79012202FA2A
:101AE00003F31AB2064B1B881BB213431BB29AB204
:101AF000034B1A80BB8818461037BD4680BD00BF17
:101B00001E0100201C01002090B585B000AF0346E7
:101B10003960FB711346BB800023FB730023BB813C
:101B2000FB79042B02D94FF0FF33A8E0FB79043393
:101B30001B021846FFF7EEF8034603F00F03012BD4
:101B400002D06FF004039AE0BB88002B02D16FF043
:101B50000D0394E01A20FFF7DDF803461946FB79E0
:101B60005B00032202FA03F301EA0302FB795B0044
:101B700042FA03F3012202FA03F39BB29B02BB81F8
:101B8000BA89BB889A4201D2BB89BB80FB791846CF
:101B9000FFF7CDF90346BB81FB7904331B02033306
:101BA0001846FFF7B7F80346FB73FB7B172B30D0C3
:101BB000FB7B1C2B26D1BB89002B3DD1FB79184622
:101BC000FFF772F903461C461B20FFF7A3F80346F4
:101BD0001946FB795B00032202FA03F301EA0302D0
:101BE000FB795B0042FA03F3012202FA03F39BB292
:101BF0009B029C420DD1FB791846FFF7F7FC6FF072
:101C000006033CE0FB791846FFF7F0FC6FF0060393
:101C100035E01D4B1B881A46FB7942FA03F303F0AB
:101C20000103002B04D0BB89002B01D1002326E047
:101C3000BB89002B02D1A9E700BF00E000BFBA8931
:101C4000BB889A4201D2BB89BB80BA88FB793968CC
:101C50001846FFF7D4FAFB7904331B020133402105
:101C60001846FFF729F800BFFB7904331B02013344
:101C70001846FFF74FF80346002BF5D1BB881846EE
:101C80001437BD4690BD00BF1C01002080B586B052
:101C900000AFB9607B600346FB731346BB81002332
:101CA000FB750023BB82FB7B042B02D94FF0FF3373
:101CB00039E1FB7B04331B021846FFF72BF8034680
:101CC00003F00F03023B022B02D96FF004032AE159
:101CD00000BFBB89002B02D16FF00D0323E17B68AD
:101CE0001B783B613B691B027A680132127813440E
:101CF0003B613B691B027A680232127813443B61F4
:101D00003B691B027A680332127813443B613B69DA
:101D1000002B0DD1FB7B04331B021846FEF7FAFFA4
:101D2000034603F00403042B02D06FF00B03FAE028
:101D30003B8C002B0DD1FB7B04331B021846FEF7B6
:101D4000E9FF034603F00403042B02D06FF00A03FB
:101D5000E9E0FB7B04331B0203331846FEF7DAFF8E
:101D60000346FB75FB7D422B08D0FB7D222B05D063
:101D7000FB7D322B02D06FF00603D4E0FB7B0433F3
:101D80001B020C33042279681846FEF7F1FFFB7B37
:101D900004331B0210331A463B8C1B0A9BB2DBB286
:101DA00019461046FEF788FFFB7B04331B021133F4
:101DB0001A463B8CDBB219461046FEF77DFF1B200E
:101DC000FEF7A8FF03461946FB7B5B00032202FADD
:101DD00003F301EA0302FB7B5B0042FA03F30122F7
:101DE00002FA03F39BB29B02BB82BA89BB8A9A4276
:101DF00001D9BB8ABB81FB7B1846FFF755F8034628
:101E0000BB82FB7B04331B0203331846FEF782FFC1
:101E10000346002B02D16FF0030384E0444B1B8880
:101E20001A46FB7B42FA03F303F00103002B05D0B3
:101E3000BA89BB8A9A4201D9002374E0BA89BB8A65
:101E40009A4200D9D7E700BFBA89FB7BB968184628
:101E5000FFF71CF907F11003042219460F20FEF7C3
:101E6000D5FF3B69002B0CD107F110030422194662
:101E70000520FEF7CBFF04222E490520FEF778FF50
:101E800001E000233B61FB7B04331B020133202173
:101E90001846FEF711FF00BFFB7B04331B02013322
:101EA0001846FEF737FF0346002BF5D1FB7B0433C2
:101EB0001B0202331846FEF72DFF0346FB75FB7D20
:101EC00003F01003002B0CD0FB7B04331B02023306
:101ED00010211846FEF7F0FE00BF3B69002B21D011
:101EE00019E0FB7D03F00803002BDFD0FB7B0433FC
:101EF0001B02023308211846FEF7DEFE3B69002B69
:101F000006D007F11003042219460520FEF730FF22
:101F10006FF00C0307E007F11003042219460520B7
:101F2000FEF726FFBB8918461837BD4680BD00BFA7
:101F30001C0100201804010880B588B000AFB9600A
:101F40007B600346FB731346BB810023FB83FB7B53
:101F5000042B02D94FF0FF33C6E1FB7B04331B0295
:101F60001846FEF7D7FE03467B777B7F03F00F030F
:101F7000042B02DC022B05DA01E0052B04D06FF004
:101F80000403B1E100BF00E000BFBB89002B02D118
:101F90006FF00D03A8E1FB7B824A32F81330002B6F
:101FA00026D1FB7B1846FEF7C2FF0346FB83FB7B73
:101FB00004331B0203331846FEF7ACFE0346002B26
:101FC00002D16FF003038FE1774B1B881A46FB7B2E
:101FD00042FA03F303F00103002B04D0FB8B002B28
:101FE00001D1002380E1FB8B002B00D1D9E700BF9A
:101FF0007B7F03F00703042B75D0042B00F335819E
:10200000022B03D0032B00F0D3802EE1FB7B654A2B
:1020100032F81330002B4ED107F11401FB7B08225C
:102020001846FFF7ECF8FB7B04331B020133402119
:102030001846FEF741FE00BFFB7B04331B02013351
:102040001846FEF767FE0346002BF5D13A7D7B6804
:102050001A707B6801337A7D1A707B680233BA7D0F
:102060001A707B680333FA7D1A703B7E9AB2BB6AA2
:102070001A80BB6A1B881B029AB27B7E9BB21344F8
:102080009AB2BB6A1A80BA7EFB7B91B2454A22F8AB
:102090001310FB7B434A32F813301B0299B2FB7ECC
:1020A0009AB2FB7B0A4491B23E4A22F81310FB7BA2
:1020B0003E4A8021D154FB7B3A4A32F81330BA8928
:1020C0009A4202D2BB89FB8304E0FB7B354A32F89B
:1020D0001330FB83FB8BBB81FA8BFB7BB968184603
:1020E000FFF78DF8CDE0FB7B2E4A32F81330002B42
:1020F00042D107F11401FB7B02221846FFF77FF85B
:10210000FB7B04331B02013340211846FEF7D4FD4C
:1021100000BFFB7B04331B0201331846FEF7FAFDB8
:102120000346002BF5D13A7DFB7B91B21D4A22F884
:102130001310FB7B1B4A32F813301B029AB27B7DD3
:102140009BB213449AB2FB7B023A91B2154A22F831
:102150001310FB7B134A32F8133040F2EA529342D9
:1021600006D9FB7B1846FFF741FA6FF47A73BBE0A0
:10217000FB7B0E4A8021D154FB7B0A4A32F8133094
:10218000BA899A4202D2BB89FB8304E0FB7B054AF1
:1021900032F81330FB83FA8BFB7BB9681846FFF7E4
:1021A0002EF86EE0200100201C01002028010020F4
:1021B000FB7B4F4A32F81330002B40D107F114015A
:1021C000FB7B06221846FFF71AF8FB7B04331B0241
:1021D000013340211846FEF76FFD00BFFB7B04333F
:1021E0001B0201331846FEF795FD0346002BF5D17F
:1021F0003A7D7B681A707B6801337A7D1A707B6840
:102200000233BA7D1A707B680333FA7D1A703A7E06
:10221000FB7B91B2364A22F81310FB7B344A32F82A
:1022200013301B0299B27B7E9AB2FB7B0A4491B2B7
:102230002F4A22F81310FB7B2E4A8021D154FB7BBE
:102240002B4A32F81330BA899A4202D2BB89FB83F7
:1022500004E0FB7B264A32F81330FB83FA8BFB7BCE
:10226000B9681846FEF7CBFF0BE0FA8BFB7B1146F3
:102270001846FFF77AF8FB7B1D49FA8B21F81320EB
:1022800000BFFB7B04331B02013340211846FEF7DD
:1022900013FD00BFFB7B04331B0201331846FEF71E
:1022A00039FD0346002BF5D1FB7B114A32F81310A0
:1022B000FB7BFA8B8A1A91B20D4A22F81310FB7B32
:1022C0000B4A32F81330002B09D0FB7B094AD25C51
:1022D000FB7B42F00102D1B2064AD15403E0FB7B02
:1022E000044A0021D154FB8B18462037BD4680BDDF
:1022F000200100202801002080B400AF00BFBD46AF
:102300005DF8047B704780B400AF00BFBD465DF848
:10231000047B704780B400AF00BFBD465DF8047B0E
:10232000704780B400AF00BFBD465DF8047B7047C6
:1023300080B483B000AF78607B681B78DBB218464E
:102340000C37BD465DF8047B704780B483B000AFA6
:1023500078600B46FB707B68FA781A7000BF0C3708
:10236000BD465DF8047B704780B400AF002318467B
:10237000BD465DF8047B704780B483B000AF034670
:10238000FB7100BF0C37BD465DF8047B7047000051
:1023900080B483B000AF786039607B68002B02D0D6
:1023A0003B68002B06D10A4B0A4ADA60084B0A4AFE
:1023B0001A6106E0064A7B68D360054A3B681361F0
:1023C00000BF00BF0C37BD465DF8047B704700BFFF
:1023D00004000020F92200080723000880B483B01D
:1023E00000AF786039607B68002B02D03B68002B1F
:1023F00006D10A4B0A4A5A61084B0A4A9A6106E01A
:10240000064A7B685361054A3B68936100BF00BF81
:102410000C37BD465DF8047B704700BF0400002008
:10242000152300082323000880B483B000AF786030
:10243000396000BF0F4B1B8803F40073002BF9D0E9
:102440007B68002B02D03B68002B06D1094B0A4A5F
:10245000DA61084B094A1A6206E0064A7B68D361D2
:10246000044A3B68136200BF00BF0C37BD465DF8ED
:10247000047B7047040000206923000879230008CA
:1024800080B584B000AF03463960FB710023BB60A8
:102490000023FB60FB79082B63D801A252F823F0DC
:1024A000C5240008CB240008F7240008EB2400080A
:1024B000052500081125000863250008632500088C
:1024C0001F25000800F058F84EE03B68002B04D0B0
:1024D0003B68BB60BB680433FB60BB68FA681146AD
:1024E000184600F08DF803463FE03B681B8818460D
:1024F00000F068F938E000F088F903461A463B68B6
:102500001A8031E03B681B88184600F0A4F92BE0E4
:1025100000F0C1F903461A463B681A8024E0154BC7
:102520009A783B681A703B680133124AD2781A7065
:102530003B6802330F4A12791A703B6803330D4A25
:1025400052791A703B6804330A4A92791A703B68D0
:102550000533084AD2791A703B68063300221A7094
:1025600002E04FF0FF3300E0002318461037BD466D
:1025700080BD00BF0400002080B586B000AF3B1DC9
:10258000062219460920FEF741FC07F11403042234
:1025900019460120FEF73AFC07F110030422194600
:1025A0000520FEF733FC07F10C03042219460F2027
:1025B000FEF72CFC80210020FEF77EFB0020FEF7BA
:1025C000A9FB3B1D062219460920FEF7D1FB07F1A6
:1025D0001403042219460120FEF7CAFB07F1100379
:1025E000042219460520FEF7C3FB07F10C03042261
:1025F00019460F20FEF7BCFB00BF1837BD4680BD53
:1026000080B584B000AF7860396000237B73FFF73A
:10261000B3FF7B68002B66D000237B730023FB7322
:1026200015E097F90F307A6813441A787B7B1344CE
:10263000DBB27B7397F90D30082B02DD4FF0FF33CF
:10264000BCE097F90F30DBB20133DBB2FB7397F9D3
:102650000F30032BE5DD0023FB7340E00023BB7349
:1026600005E097F90E30DBB20133DBB2BB7397F9AB
:102670000F307A6813441B781A4697F90E3042FAE5
:1026800003F3012B06D097F90F307A6813441B78B7
:10269000002BE6D11B20FEF73DFB03465AB297F90B
:1026A0000F305B00032101FA03F35BB2DB435BB243
:1026B00013405AB297F90E1097F90F305B0001FAE8
:1026C00003F35BB213435BB2DBB219461B20FEF788
:1026D000F3FA97F90F30DBB20133DBB2FB7397F9F2
:1026E0000F30032BBADD3B68002B66D000237B73D1
:1026F0000023FB7315E097F90F303A6813441A78FA
:102700007B7B1344DBB27B7397F90D30082B02DD22
:102710004FF0FF3352E097F90F30DBB20133DBB2F9
:10272000FB7397F90F30032BE5DD0023FB7340E0CB
:102730000023BB7305E097F90E30DBB20133DBB247
:10274000BB7397F90F303A6813441B781A4697F910
:102750000E3042FA03F3012B06D097F90F307A6856
:1027600013441B78002BE6D11A20FEF7D3FA034658
:102770005AB297F90F305B00032101FA03F35BB201
:10278000DB435BB213405AB297F90E1097F90F3042
:102790005B0001FA03F35BB213435BB2DBB2194691
:1027A0001A20FEF789FA97F90F30DBB20133DBB25A
:1027B000FB7397F90F30032BBADD0023184610374F
:1027C000BD4680BD80B584B000AF0346FB80FB886A
:1027D000FB73FB881B0A9BB2BB73FB7B43F01003AC
:1027E000FB73BB7B03F00F03BB73FA7BBB7B134311
:1027F000FB73FB7B23F05F03DBB219461520FEF76A
:102800005BFA00BF1037BD4680BD80B582B000AF17
:102810000023FB710023BB710023BB801520FEF752
:1028200079FA034623F05F03FB71FB7903F00F0392
:10283000BB71FB7923F01003FB71BB79BB80BB88B4
:102840001B029AB2FB799BB21344BB80BB8818462B
:102850000837BD4680BD80B584B000AF0346FB801D
:10286000FB88FB73FB881B0A9BB2BB73FB7B23F0CB
:102870001003FB73BB7B03F00F03BB73FA7BBB7BC3
:102880001343FB73FB7B19461620FEF715FA00BFB6
:102890001037BD4680BD80B582B000AF0023FB710C
:1028A0000023BB710023BB801620FEF733FA0346DA
:1028B000FB71FB7903F00F03BB71FB7923F010036D
:1028C000FB71BB79BB80BB881B029AB2FB799BB2C0
:1028D0001344BB80BB8818460837BD4680BD000046
:1028E00080B582B000AF78607B6806221946092067
:1028F000FEF73EFA7B680E33042219460120FEF7EC
:1029000037FA7B680A33042219460520FEF730FAAD
:102910007B680633042219460F20FEF729FA7B68EC
:102920009A7C0B4B1A707B68DA7C094B5A707B6877
:102930001A7D074B9A707B685A7D054BDA707B686D
:102940009A7D044B1A7000BF0837BD4680BD00BF9A
:102950002C0100203001002080B582B000AF7860EB
:102960007B68062219460920FEF750FA7B680E3371
:10297000042219460120FEF749FA7B680A33042233
:1029800019460520FEF742FA7B68063304221946F1
:102990000F20FEF73BFA0C4B1A787B689A740A4BAF
:1029A0005A787B68DA74084B9A787B681A75064BFC
:1029B000DA787B685A75054B1A787B689A7500BF80
:1029C0000837BD4680BD00BF2C010020300100202B
:1029D00080B500AF042208490F20FEF7C9F9042290
:1029E00006490520FEF7C4F9042205490120FEF737
:1029F000BFF900BF80BD00BF40010020480100209A
:102A00004401002080B500AF80210020FEF754F97A
:102A10000020FEF77FF9FFF7DBFF062202490920BD
:102A2000FEF7A6F900BF80BD6001002080B500AFB1
:102A300080210020FEF740F90020FEF76BF9062206
:102A400002490920FEF794F900BF80BD6001002013
:102A500080B584B000AF3B46062219460920FEF738
:102A6000D5F9724B1B6801221A70704B1B6801224A
:102A70005A706E4B1B6806229A706C4B1B680022C2
:102A8000DA706A4B1B680433BB60694B1B681B0E12
:102A9000DAB2BB681A70664B1B681A0CBB6801334C
:102AA000D2B21A70624B1B681A0ABB680233D2B2E8
:102AB0001A705F4B1A68BB680333D2B21A705B4B53
:102AC0001B6800221A81594B1B680A33BB60BB6824
:102AD00080221A70BB68013300221A70534B1B68A6
:102AE00000221A73514B1B6800225A734F4B1B680C
:102AF00000229A734D4B1B680022DA734B4B1B6804
:102B000000221A74494B1B6800225A74474B1B68F9
:102B100000229A74454B1B680022DA74434B1B68F1
:102B200000221A75414B1B6800225A753F4B1B68E7
:102B300000229A753D4B1B680022DA753B4B1B68DF
:102B400000221A76394B1B6800225A76374B1B68D5
:102B500000229A76354B1B680022DA76334B1B68CD
:102B6000344A12781A77314B1B68324A52785A77B6
:102B70002E4B1B682F4A92789A772C4B1B682D4A54
:102B8000D278DA77294B1B682A4A127983F82020F9
:102B9000264B1B68274A527983F821200623FB73B2
:102BA00008E0224B1A68FB7B134400221A77FB7B58
:102BB0000133FB73FB7B0F2BF3D90023FB7309E07D
:102BC0001A4B1A68FB7B1344002283F82C20FB7BF2
:102BD0000133FB73FB7B3F2BF2D90023FB7309E02E
:102BE000124B1A68FB7B1344002283F86C20FB7B9A
:102BF0000133FB7397F90F30002BF1DA0B4B1B6895
:102C0000632283F8EC20094B1B68822283F8ED20B5
:102C1000064B1B68532283F8EE20044B1B6863228B
:102C200083F8EF2000BF1037BD4680BD5C01002057
:102C30005801002060010020B0B584B002AF00232D
:102C4000BB80FFF705FF564B00221A70544B002241
:102C50005A70534B00229A70514B0022DA70514B3C
:102C600000221A704F4B00225A704E4B00229A706D
:102C70004C4B0022DA700423BB804B4B1A68BB8894
:102C8000591CB9801344352283F8EC20464B1A684E
:102C9000BB88591CB9801344012283F8EC20424BB5
:102CA0001A68BB88591CB9801344012283F8EC20B0
:102CB0003D4B1A68BB88591CB98013443D2283F8E8
:102CC000EC20394B1A68BB88591CB9801344072281
:102CD00083F8EC20344B1A68BB88591CB980134424
:102CE000012283F8EC20304B1A68BB88591CB9804C
:102CF00018462E4B197813180A4683F8EC202A4BF5
:102D00001A68BB88591CB9801846284B5978131883
:102D10000A4683F8EC20244B1A68BB88591CB980FA
:102D20001846224B997813180A4683F8EC201E4B5C
:102D30001A68BB88591CB98018461C4BD9781318DF
:102D40000A4683F8EC20184B1A68BB88591CB980D6
:102D50001846164B197913180A4683F8EC20124BC3
:102D60001A68BB88591CB9801846104B597913183A
:102D70000A4683F8EC200C4B1A68BB88591CB980B2
:102D800013440C2283F8EC20074B1A68BB88591CAB
:102D9000B9801344002283F8EC200023FB8017E065
:102DA00034010020380100205C0100206001002077
:102DB000F988804B1A68BB88581CB88018467E4B2F
:102DC000595C13180A4683F8EC20FB880133FB801A
:102DD000FB88794AD35C002BEAD1784BDB781B095E
:102DE000DAB2744B1C68BB88591CB9801D4610466A
:102DF00001F04CF903461A46631983F8EC206F4B37
:102E0000DA786C4B1C68BB88591CB9801D4610468B
:102E100001F03CF903461A46631983F8EC20674B2E
:102E20001B791B09DAB2634B1C68BB88591CB9803B
:102E30001D46104601F02AF903461A46631983F825
:102E4000EC205E4B1A795B4B1C68BB88591CB9801F
:102E50001D46104601F01AF903461A46631983F815
:102E6000EC20564B5B791B09DAB2524B1C68BB88CD
:102E7000591CB9801D46104601F008F903461A4650
:102E8000631983F8EC204D4B5A794A4B1C68BB8878
:102E9000591CB9801D46104601F0F8F803461A4641
:102EA000631983F8EC20FB88D9B2424B1A68B888C2
:102EB000FB880733C31A0631C9B213440A4683F8A4
:102EC000EC203C4B1A68BB88591CB980134437224C
:102ED00083F8EC20374B1A68BB88591CB98013441F
:102EE000062283F8EC20334B1A68BB88591CB98042
:102EF0001344012283F8EC202E4B1A68BB88591C1E
:102F0000B9801344032283F8EC202A4B1A68BB884B
:102F1000591CB9801344062283F8EC20254B1A680B
:102F2000BB88591CB98013440F2283F8EC20214B35
:102F30001A68BB88591CB98013443A2283F8EC20E4
:102F40001C4B1A68BB88591CB98013443B2283F878
:102F5000EC20184B1A68BB88591CB9801344FF2217
:102F600083F8EC20BB88FB8009E0124B1A68FB88D1
:102F70001344002283F8EC20FB880133FB80FB889C
:102F8000B3F59C7FF1D3FF233B70FF237B70FF23BE
:102F9000BB70FF23FB700A4B1878064B19683B4641
:102FA000432200924FF40972FEF770FE00BF08370B
:102FB000BD46B0BD5C01002038000020600100204B
:102FC00031010020B0B586B002AF00237B81FFF74E
:102FD0003FFD1B4B93F90030032B04D0184B93F9A2
:102FE0000030042B34D1174B1B680A3300221A70AF
:102FF000144B1B680A33013300221A70114B1B68F3
:10300000114A12781A730F4B1B680F4A52785A7381
:103010000C4B1B680C4A92789A730A4B1B680A4A3D
:10302000D278DA73094B1B783B71084B5B787B7164
:10303000064B9B78BB71054BDB78FB7110E000BF42
:10304000500100205C0100204001002034010020DC
:10305000FF233B71FF237B71FF23BB71FF23FB71B8
:1030600004237B818D4B1A687B89591C7981134419
:10307000352283F8EC20894B1A687B89591C7981A9
:103080001344012283F8EC20844B1A687B89591C75
:1030900079811344032283F8EC20804B1A687B89E2
:1030A000591C798113443D2283F8EC207B4B1A682C
:1030B0007B89591C79811344072283F8EC20774BD4
:1030C0001A687B89591C79811344012283F8EC200A
:1030D000724B1A687B89591C79811846704B197894
:1030E00013180A4683F8EC206C4B1A687B89591C2C
:1030F000798118466A4B597813180A4683F8EC20F0
:10310000664B1A687B89591C79811846644B9978FB
:1031100013180A4683F8EC20604B1A687B89591C07
:10312000798118465E4BD97813180A4683F8EC204B
:103130005A4B1A687B89591C79811846584B197962
:1031400013180A4683F8EC20544B1A687B89591CE3
:1031500079811846524B597913180A4683F8EC20A6
:10316000FB79FF2B40F084804C4B1A687B89591CFB
:1031700079811344322283F8EC20484B1A687B890A
:10318000591C79811344042283F8EC20434B1A68BC
:103190007B89591C79811846424B197813180A46C5
:1031A00083F8EC203D4B1A687B89591C79811846BD
:1031B0003C4B597813180A4683F8EC20374B1A68B1
:1031C0007B89591C79811846364B997813180A4621
:1031D00083F8EC20314B1A687B89591C7981184699
:1031E000304BD97813180A4683F8EC202B4B1A6819
:1031F0007B89591C79811344362283F8EC20274BB4
:103200001A687B89591C79811344042283F8EC20C5
:10321000224B1A687B89591C79811846224B1978F0
:1032200013180A4683F8EC201C4B1A687B89591C3A
:10323000798118461C4B597813180A4683F8EC20FC
:10324000164B1A687B89591C79811846164B997858
:1032500013180A4683F8EC20104B1A687B89591C16
:1032600079811846104BD97813180A4683F8EC2058
:103270000A4B1A687B89591C798113440C2283F804
:10328000EC20064B1A687B89591C79811344002273
:1032900083F8EC200023FB6019E000BF5C010020F4
:1032A000600100204001002034010020864B1A6894
:1032B0007B89591C798118468449FB680B4419782D
:1032C00013180A4683F8EC20FB680133FB607F4A41
:1032D000FB6813441B78002BE8D17D4BDB781B097E
:1032E000DAB2794B1C687B89591C79811D461046DE
:1032F00000F0CCFE03461A46631983F8EC20744BA9
:10330000DA78714B1C687B89591C79811D461046FF
:1033100000F0BCFE03461A46631983F8EC206C4BA0
:103320001B791B09DAB2684B1C687B89591C7981AF
:103330001D46104600F0AAFE03461A46631983F89C
:10334000EC20634B1A79604B1C687B89591C79818E
:103350001D46104600F09AFE03461A46631983F88C
:10336000EC205B4B5B791B09DAB2574B1C687B89FD
:10337000591C79811D46104600F088FE03461A4606
:10338000631983F8EC20524B5A794F4B1C687B89A8
:10339000591C79811D46104600F078FE03461A46F6
:1033A000631983F8EC20FB68D9B2474B1A68788917
:1033B000FB680733C31A0631C9B213440A4683F8BF
:1033C000EC20414B1A687B89591C798113443722C0
:1033D00083F8EC203C4B1A687B89591C7981134493
:1033E000082283F8EC20384B1A687B89591C7981B4
:1033F0001344012283F8EC20334B1A687B89591C53
:1034000079811344032283F8EC202F4B1A687B89BF
:10341000591C79811344062283F8EC202A4B1A6840
:103420007B89591C798113440F2283F8EC20264BA9
:103430001A687B89591C798113443A2283F8EC205D
:10344000214B1A687B89591C798113443B2283F8EC
:10345000EC201D4B1A687B89591C798113441F226B
:1034600083F8EC20184B1A687B89591C7981134426
:10347000212283F8EC20144B1A687B89591C79812E
:103480001344FF2283F8EC207B89FB6009E00E4B9C
:103490001A68FB681344EC3300221A70FB6801338E
:1034A000FB60FB68B3F59C7FF1DB0A4B1878064B99
:1034B00019683B1D432200924FF40972FEF7E6FBA8
:1034C00000BF1037BD46B0BD5C01002038000020B1
:1034D000600100203101002080B586B002AF0023DA
:1034E0007B81FFF7B5FA04237B819F4B1B680A336E
:1034F00000221A709C4B1B680A33013300221A7099
:10350000994B1A687B89591C79811344352283F8B9
:10351000EC20954B1A687B89591C79811344012250
:1035200083F8EC20904B1A687B89591C79811344ED
:10353000042283F8EC208C4B1A687B89591C798112
:1035400013443D2283F8EC20874B1A687B89591C71
:1035500079811344072283F8EC20834B1A687B8916
:10356000591C79811344012283F8EC207E4B1A68A0
:103570007B89591C798118467C4B197813180A46A7
:1035800083F8EC20784B1A687B89591C798118469E
:10359000764B597813180A4683F8EC20724B1A6858
:1035A0007B89591C79811846704B997813180A4603
:1035B00083F8EC206C4B1A687B89591C798118467A
:1035C0006A4BD97813180A4683F8EC20664B1A68C0
:1035D0007B89591C79811846644B197913180A465E
:1035E00083F8EC20604B1A687B89591C7981184656
:1035F0005E4B597913180A4683F8EC205A4B1A6827
:103600007B89591C79811344322283F8EC20564B74
:103610001A687B89591C79811344042283F8EC20B1
:10362000514B1A687B89591C79811846504B19787F
:1036300013180A4683F8EC204B4B1A687B89591CF7
:10364000798118464A4B597813180A4683F8EC20BA
:10365000454B1A687B89591C79811846444B9978E7
:1036600013180A4683F8EC203F4B1A687B89591CD3
:10367000798118463E4BD97813180A4683F8EC2016
:10368000394B1A687B89591C79811344362283F897
:10369000EC20354B1A687B89591C7981134404222C
:1036A00083F8EC20304B1A687B89591C79811846C5
:1036B000304B197813180A4683F8EC202A4B1A6805
:1036C0007B89591C798118462A4B597813180A4668
:1036D00083F8EC20244B1A687B89591C79811846A1
:1036E000244B997813180A4683F8EC201E4B1A686D
:1036F0007B89591C798118461E4BD97813180A46C4
:1037000083F8EC20184B1A687B89591C7981134483
:10371000FF2283F8EC207B89FB6009E0124B1A68DA
:10372000FB681344EC3300221A70FB680133FB6022
:10373000FB68B3F59C7FF1DBFF233B71FF237B71BB
:10374000FF23BB71FF23FB710B4B1878064B1968E5
:103750003B1D432200924FF40972FEF797FA00BF17
:103760001037BD4680BD00BF5C0100206001002015
:1037700040010020340100203101002090B589B0C3
:1037800002AF0023FB74A14B1B781846FDF7CFFB5B
:1037900003463B823B8A002B11D09C4B18789C4BF4
:1037A00019683C1D3A8ABB1C00932346FEF7C4FBF4
:1037B00003463B827B88432B40F0ED8101E00023F0
:1037C000EBE1934B1B681A7F924B1B789A4224D1F2
:1037D0008F4B1B685A7F8F4B5B789A421DD18C4B65
:1037E0001B689A7F8B4B9B789A4216D1884B1B683B
:1037F000DA7F884BDB789A420FD1854B1B6893F8B0
:103800002020844B1B799A4207D1814B1B6893F887
:103810002120804B5B799A4201D00023BDE17E4B91
:103820001B78002B0BD17C4B5B78002B07D17A4B9C
:103830009B78002B03D1784BDB78002B29D03A7989
:10384000754B1B789A420ED17A79734B5B789A420A
:1038500009D1BA79704B9B789A4204D1FA796E4BB0
:10386000DB789A4215D03A796C4B1B789A420ED18C
:103870007A796A4B5B789A4209D1BA79674B9B781F
:103880009A4204D1FA79654BDB789A4201D0002341
:1038900083E15F4B1B687B617B69F0337B613B8A13
:1038A000F03B7A691344FB6070E17B691B78362B2F
:1038B00076DC002BC0F25D81362B00F25A8101A22A
:1038C00052F823F0AD390008CD390008733B0008E9
:1038D000253A0008733B0008733B0008713A000862
:1038E000733B0008733B0008733B0008733B000800
:1038F000733B0008733B0008733B0008733B0008F0
:10390000733B0008733B0008733B0008733B0008DF
:10391000733B0008733B0008733B0008733B0008CF
:10392000733B0008733B0008733B0008733B0008BF
:10393000733B0008733B0008733B0008733B0008AF
:10394000733B0008733B0008733B0008733B00089F
:10395000733B0008733B0008733B0008733B00088F
:10396000733B0008733B0008733B0008733B00087F
:10397000733B0008733B0008733B0008733B00086F
:10398000733B0008733B0008733B0008733B00085F
:10399000BD3A0008733B0008B5390008193B000820
:1039A000FF2B40F0E680FB687B61EFE07B69013331
:1039B0007B61EBE07B6901337B617B6901337B6178
:1039C0007B695A1C7A611B78FB74DFE07B690133E9
:1039D0007B617B6901337B617B695A1C7A611A7850
:1039E0000F4B1A707B695A1C7A611A780C4B5A700B
:1039F0007B695A1C7A611A78094B9A707B695A1C48
:103A00007A611A78064BDA70C0E000BF31010020FD
:103A10005C010020600100203401002038010020FA
:103A2000480100207B6901337B617B695A1C7A6104
:103A30001B78FB727B695A1C7A611A78594B1A7091
:103A40007B695A1C7A611A78564B5A707B695A1CEA
:103A50007A611A78534B9A707B695A1C7A611A788A
:103A6000504BDA70FB7A043B7A6913447B618DE03A
:103A70007B6901337B617B695A1C7A611B78FB721D
:103A80007B695A1C7A611A78474B1A707B695A1CF9
:103A90007A611A78444B5A707B695A1C7A611A7899
:103AA000414B9A707B695A1C7A611A783E4BDA70E6
:103AB000FB7A043B7A6913447B6167E07B690133DD
:103AC0007B617B695A1C7A611B78FB727B695A1C8B
:103AD0007A611B781A46354B1A60344B1B681A0200
:103AE0007B69591C79611B781344304A13602F4B52
:103AF0001B681A027B69591C79611B7813442B4A95
:103B000013602A4B1B681A027B69591C79611B7868
:103B10001344264A136039E07B6901337B617B697A
:103B20005A1C7A611B78FB727B695A1C7A611A787D
:103B30001F4B1A707B695A1C7A611A781C4B5A7099
:103B40007B695A1C7A611A78194B9A707B695A1CE6
:103B50007A611A78164BDA703A79164B1A707A79BC
:103B6000144B5A70BA79134B9A70FA79114BDA7078
:103B70000CE07B6901337B617B695A1C7A611B789D
:103B8000FB72FB7A7A6913447B6100BF7A69FB6838
:103B90009A42FFF48AAE97F9133018461C37BD4697
:103BA00090BD00BF440100204C01002030000020E7
:103BB000340100203801002080B582B000AF7E4B78
:103BC00093F90030062B01D10523F1E07B4B1B78E4
:103BD00004331B0203331846FDF79CF80346222BDF
:103BE00006D0764B1878002344220221FDF7FCFB17
:103BF0000123FB71FFF7C2FD0346BB716E4B93F9C6
:103C00000030042B00F2D08001A252F823F000BF54
:103C1000253C0008493C00088D3C0008DD3C0008BC
:103C2000373D0008664B00221A70654B00225A701F
:103C3000634B00229A70624B0022DA70FEF7FCFFA1
:103C40005D4B01221A70B2E0BB79022B19D15D4B9A
:103C50001B681A7C5A4B1A705A4B1B685A7C584B7B
:103C60005A70584B1B689A7C554B9A70554B1B6881
:103C7000DA7C534BDA70FFF7A5F94F4B02221A702A
:103C800095E000F0C1F80346FB7190E0BB79052B8D
:103C900016D100F019F90346002B08D04A4B1B68D7
:103CA000984700F0DDF9444B03221A707FE000F0E2
:103CB000D7F9464B1B6898473F4B00221A7076E0B5
:103CC000BB79062B05D100F0CBF93B4B01221A70D2
:103CD0006DE000F099F80346FB7168E00423FB7186
:103CE0003B4B1B68B3F1FF3F60D0394B1B685A0850
:103CF000384B1B689A4259D20023BB71304B1A785B
:103D0000354B1A702E4B5A78334B5A702C4B9A788D
:103D1000314B9A702A4BDA782F4BDA702F4B1B6895
:103D200001332E4A1360FFF74DF900F099F9224B49
:103D300004221A703AE00423FB71BB79052B25D1CC
:103D4000274B00221A70244B1A781D4B1B789A427D
:103D500011D1214B5A781A4B5B789A420BD11E4BEA
:103D60009A78174B9B789A4205D11B4BDA78144B03
:103D7000DB789A4204D00323FB711A4B1B689847E7
:103D800000F06EF90C4B03221A7010E0BB79062B81
:103D900005D100F065F9084B01221A7007E000F028
:103DA00033F80346FB7102E000BF00E000BFFB797F
:103DB00018460837BD4680BD500100203101002063
:103DC000400100205C01002040000020480000204D
:103DD00030000020540100203C0100205801002048
:103DE000510100204400002080B500AF044B1B7837
:103DF0001846FDF7FBFB034B06221A7000BF80BD7F
:103E0000310100205001002080B582B000AF0123B5
:103E1000FB71294B93F90030012B2DDC274B1A68DD
:103E2000274B1B689A4242D2264B93F90030042B51
:103E30000CD0042B0DDC012B02D0022B03D008E0A8
:103E4000FEF7FAFE06E0FFF7BDF803E0FFF7BAF869
:103E500000E000BF1A4B00221A60194B1B680A339E
:103E6000164A1360144B93F90030DBB20133DBB216
:103E70005AB2114B1A701AE0124B93F90030042B0E
:103E80000CD0042B10DC012B02D0022B06D00BE04F
:103E90000C4B00221A700023FB7106E0FEF7CCFEEB
:103EA000084B01221A7000E000BF00F0D9F8FB793E
:103EB00018460837BD4680BD51010020340000205F
:103EC000540100205001002080B584B002AF1920B9
:103ED000FCF720FF0346FB7103211920FCF7ECFEE1
:103EE000134B187841F288330093124B1122124978
:103EF000FDF7CCFE3860FB7919461920FCF7DCFE93
:103F00003B6813F10D0F01D101230CE0FFF7E4FA38
:103F10000A4B1B683B6000BF084B1A683B68D31A0A
:103F2000012BF9D9002318460837BD4680BD00BFD4
:103F3000310100204001002020040108540100202C
:103F400080B584B000AF03463960FB710023FB608D
:103F500006223D490920FCF759FF3B4B1A783A4BA2
:103F60005B781343DAB2384B9B781343DAB2364BA3
:103F7000DB781343DAB2344B1B791343DAB2324B9A
:103F80005B791343DBB2002B16D12F4B00221A7042
:103F90002D4B08225A702C4BDC229A702A4B00229F
:103FA000DA70294B00221A71274B00225A7106221F
:103FB00025490920FCF7DCFE244AFB791370244ACA
:103FC0003B681360234B244A1A601F4BDB781A4668
:103FD000204B1B6813441F4A13601B4B1B791A4666
:103FE0001C4B1B6813441B4A1360174B5B791A4622
:103FF000184B1B681344174A1360134BDA78124BA3
:104000001B795340DAB2104B5B795340DBB21A464E
:10401000104B1B6813440F4A136007F10C03042272
:1040200019460F20FCF7A4FE07F10C0304221946E1
:104030000120FCF79DFE00F013F8084B00221A70D7
:1040400000BF1037BD4680BD600100203101002057
:104050005C010020580100207856341250010020E5
:1040600080B400AF064B00221A60064B0A221A6089
:10407000054B00221A7000BFBD465DF8047B7047F7
:1040800054010020340000205101002080B483B08E
:1040900000AF0346FB71FB7903F00F03FB71FB7963
:1040A000092B03D8FB793033DBB202E0FB793733DD
:1040B000DBB218460C37BD465DF8047B704780B410
:1040C00085B000AF78607B685A1C7A601B789BB221
:1040D0001B02FB817B681B789AB2FB891344FB812E
:1040E000FB8918461437BD465DF8047B704780B4E1
:1040F00083B000AF78600B467B807B881B0A99B247
:104100007B685A1C7A60CAB21A707B685A1C7A6043
:104110007A88D2B21A707B6818460C37BD465DF8B3
:10412000047B704780B48BB000AFF860B9607A60F0
:104130007B800023FB610023BB6100237B61BB68A4
:104140003B623B6A5A1C3A621B78FB84BB69002BBA
:1041500002D1FB690133FB61FB8C03F0C003C02B70
:1041600017D1BB69002B02D1FB690133FB6101232D
:10417000BB61FB8C1B0203F47C533A6A1278134434
:104180001A46FB6813443B623B6A5A1C3A621B782E
:10419000FB84FB8C002B2BD07A88FB8CD31A9BB230
:1041A000013B9BB27B80B7F90230002B02DA4FF063
:1041B000FF3338E0BB69002B0CD1FB8CFA69134448
:1041C000FB6107E03A6A531C3B627B68591C7960CB
:1041D00012781A70FB8C5A1EFA84002BF2D17B687D
:1041E0005A1C7A602E221A707B6901337B61A8E722
:1041F00000BF7B69002B0AD17B685A1C7A602E2293
:104200001A70B7F902309BB2013B9BB27B807B688E
:104210005A1C7A6000221A70B7F902309BB2013B37
:104220009BB27B80FB6918462C37BD465DF8047B4A
:10423000704780B5B4B000AF7860396007F10C0208
:10424000C02339687868FFF76DFFC7F8CC00D7F84E
:10425000CC30B3F1FF3F01D100230BE0D7F8CC30D5
:104260003A6813443B603B6802333B603B6802336F
:104270003B603B681846D037BD4680BD80B5B6B0C0
:1042800000AFF860B9607A6007F11002C023B96826
:10429000F868FFF747FFC7F8D400D7F8D430B3F178
:1042A000FF3F01D10023F9E0D7F8D430BA681344B6
:1042B000BB60B868FFF703FF0346C7F8D030BB68A0
:1042C0000233BB60BB680233BB60BB680433BB60B6
:1042D000BB680233BB60D7F8D030102B00F0DA8017
:1042E000D7F8D030102B00F3D780D7F8D0300F2B71
:1042F0007DD0D7F8D0300F2B00F3CE80D7F8D03058
:104300000C2B26DCD7F8D030002B40F3C580D7F833
:10431000D030012202FA03F341F2A4321A40002AFB
:1043200014BF01220022D2B2002A33D103F040028E
:10433000002A14BF01220022D2B2002A70D103F059
:104340000203002B14BF01230023DBB2002B05D195
:10435000A2E0D7F8D0300D2B32D09DE0BB685A1CBC
:10436000BA601A787B681A70BB685A1CBA607A689F
:1043700001321B781370BB685A1CBA607A6802322B
:104380001B781370BB685A1CBA607A6803321B78BA
:10439000137082E007F11002C023B968F868FFF7D4
:1043A000C1FEC7F8D400D7F8D430B3F1FF3F01D134
:1043B000002373E0D7F8D430BA681344BB606CE0D4
:1043C000BB685A1CBA601B78C7F8D430D7F8D43011
:1043D000BA681344BB60BB685A1CBA601B78C7F844
:1043E000D430D7F8D430BA681344BB6055E0BB680A
:1043F0000233BB6007F11002C023B968F868FFF709
:1044000091FEC7F8D400D7F8D430B3F1FF3F01D103
:10441000002343E0D7F8D430BA681344BB603CE0D3
:1044200007F11002C023B968F868FFF77BFEC7F8F0
:10443000D400D7F8D430B3F1FF3F01D100232DE0F1
:10444000D7F8D430BA681344BB6007F11002C02318
:10445000B968F868FFF766FEC7F8D400D7F8D4301B
:10446000B3F1FF3F01D1002318E0D7F8D430BA6888
:104470001344BB60BB680433BB60BB680433BB60E0
:10448000BB680433BB60BB680433BB60BB680433E8
:10449000BB6002E000BF00E000BFBB681846D83731
:1044A000BD4680BD80B588B000AFF860B9607A6065
:1044B000BB687B6112220021F8680BF0A9F87869CB
:1044C000FFF7FDFD03461A46FB681A807B6902333D
:1044D0001846FFF7F4FD03467B82B7F91230002B34
:1044E00002DAFB6801229A707B8ADB0A9BB2DBB29C
:1044F00003F00F03DAB2FB68DA707B8A03F480639F
:10450000002B02D0FB6801221A717B8A03F400732E
:10451000002B02D0FB6801225A717B8A03F480735E
:10452000002B02D0FB6801229A717B8A03F0800382
:10453000002B02D0FB680122DA717B8ADBB203F028
:104540000F03DAB2FB681A727B6904331846FFF76F
:10455000B6FD03461A46FB685A817B690633184646
:10456000FFF7ADFD03461A46FB689A817B69083365
:104570001846FFF7A4FD03461A46FB68DA817B69FB
:104580000A331846FFF79BFD03461A46FB681A825A
:104590007B690C33BB610023FB830DE0B96978694B
:1045A000FFF747FEB861BB69002B02D14FF0FF3324
:1045B0003BE0FB8B0133FB83FB685B89FA8B9A4200
:1045C000ECD30023FB830EE07A68B9697869FFF7C2
:1045D00055FEB861BB69002B02D14FF0FF3324E0D8
:1045E000FB8B0133FB83FB689B89FA8B9A42EBD3ED
:1045F0000023FB8302E0FB8B0133FB83FB68DB8939
:10460000FA8B9A42F7D30023FB8302E0FB8B013342
:10461000FB83FB681B8AFA8B9A42F7D3FB681B7AF1
:10462000002B01D1012300E0002318462037BD46AE
:1046300080BD000080B5B8B000AFB9607A601A469E
:104640000346FB811346BB817B68C7F8DC30574BC0
:104650001B8801339AB2554B1A80544B1B8819465C
:10466000D7F8DC00FFF743FDC7F8DC00FB89DB026D
:104670001BB243F480731BB2A7F8D430B7F8D43020
:104680001946D7F8DC00FFF732FDC7F8DC0001213E
:10469000D7F8DC00FFF72BFDC7F8DC000021D7F8C6
:1046A000DC00FFF724FDC7F8DC000021D7F8DC00B0
:1046B000FFF71DFDC7F8DC000021D7F8DC00FFF78D
:1046C00016FDC7F8DC0007F11003B96818460BF0B7
:1046D0009FF807F11003C7F8D830D7F8D800FBF7D8
:1046E000D7FD0346A7F8D6302E21D7F8D8000AF018
:1046F00097FFC7F8D000D7F8D030002B06D0D7F8F6
:10470000D020D7F8D830D31ABB8102E0B7F8D63022
:10471000BB81D7F8DC305A1CC7F8DC20BA89D2B28A
:104720001A70BB89002B29D0BB891A46D7F8D8103C
:10473000D7F8DC000AF093FFBB89D7F8DC201344DC
:10474000C7F8DC30D7F8D030002B07D1D7F8DC30F1
:104750005A1CC7F8DC2000221A7010E0BB89013314
:10476000D7F8D8201344C7F8D830B7F8D620BB897B
:10477000D31A9BB2013BA7F8D630B5E700BF0121A1
:10478000D7F8DC00FFF7B3FCC7F8DC000121D7F84D
:10479000DC00FFF7ACFCC7F8DC00D7F8DC207B6856
:1047A000D31A1BB21846E037BD4680BD6E0100200B
:1047B00080B400AF0F4B1B68022B14D90D4B0022A5
:1047C0001A600D4B1B78012B05D90B4B00221A7078
:1047D0004FF0FF3308E0084B1B780133DAB2064B89
:1047E0001A70002300E001231846BD465DF8047BE3
:1047F000704700BF700100207401002080B483B0B6
:1048000000AF03463960FB71074AFB791370074A12
:104810003B681360064B41F222121A8000BF0C372E
:10482000BD465DF8047B70476C01002068010020E4
:104830006E01002090B58FB002AFF860B9607A6069
:104840003B4B00221A703B4B00221A603A4B1878FF
:10485000002300220221FCF7C7FD384B1A684FF4F1
:104860008073B9680020FFF7E5FE0346FB85324BF5
:104870001878324B1968FA8D35230093FB68FDF7E1
:1048800005FA2D4B1B781846FCF751FB0346FB85B8
:10489000FB8D002B29D0FB8DB3F5807F02D94FF41F
:1048A0008073FB85244B1878244B196807F1140496
:1048B000FA8D07F1120300932346FDF73DFB0346F3
:1048C000FB851E4B196807F118037A681846FFF735
:1048D000E9FD034687F82C3000BF174B1B781846BC
:1048E000FCF784FE97F92C301EE0FFF761FF0346CA
:1048F00087F82D3097F92D30002B06DA0E4B1B78F8
:104900001846FCF773FE00230EE097F92D30002BBC
:10491000B7D1094B1878094B1968FA8D35230093E4
:10492000FB68FDF7B3F9ACE718463437BD4690BDD8
:1049300074010020700100206C010020680100203B
:1049400080B485B000AFF860B9607A60FB68BA687F
:104950005A60FB687A681A6000BF1437BD465DF87C
:10496000047B704780B483B000AF78607B681B68BD
:104970004FF6FF72934203D07B681B68013300E05F
:1049800001237A6813607B681B6818460C37BD46A4
:104990005DF8047B7047F0B587B000AFF860B96090
:1049A0007A604FF0FF337B6100233B6118E0FB68C6
:1049B0001B6D9C68FB681D6DFB681A693B69D61806
:1049C000786800F0A7FD0346BA6831462846A0473C
:1049D00078617B69002B0EDB3A697B6913443B618C
:1049E0003A69BB689A4207DA786800F051FD0346DD
:1049F000002BDCD000E000BF3A69BB689A420BD1C3
:104A0000FB6803F15402FB689B691946104600F0ED
:104A100069FD00237B6102E04FF0FF337B617B691E
:104A200018461C37BD46F0BD80B586B000AFF860B3
:104A3000B9607A603B60FB68BA681A6500237B61E5
:104A400009E0FA687B690433DB00134400225A60F2
:104A50007B6901337B617B69042BF2DDFB687A683B
:104A60005A60FB683A681A61FB683A6A9A60FB68A8
:104A70007A6A5A61FB68BA6ADA60FB6800221A62D5
:104A8000FB6800221A77FB680022DA64FB680122C7
:104A90001A60FB685433184600F0ECFC00BF18376E
:104AA000BD4680BD90B58BB000AFF860B9607A604C
:104AB00001237B6200233B620423FB61BB6800226D
:104AC0001A604FF0FF33BB613B6A01333B623A6AC5
:104AD000FB699A4203DD4FF0FF33BB6121E0FB68C5
:104AE0001B6D5C68FB68186D07F117017B6801227C
:104AF000A047B861BB69012B12D1BB681A68FB7D66
:104B000003F07F03796A01FB03F31A44BB681A6060
:104B10007B6ADB017B62FB7D5BB2002BD1DB00E0BB
:104B200000BF3B6A18462C37BD4690BDF0B589B032
:104B300000AFF860B9604FF0FF33FB6100237B6189
:104B40000023BB6100233B61FB681B6D5C68FB6855
:104B50001D6DFB685E69B86800F0DCFC034601224D
:104B600031462846A0470346012B3BD10123BB61B8
:104B7000B86800F0CFFC024607F110031946F86848
:104B8000FFF790FFFB685B6901333A6911461846ED
:104B900001F021F80246BB691344BB613B69002B5D
:104BA00016DDFB681B6D5C68FB681D6DFB685A6950
:104BB000BB69D6183B697B60B86800F0ABFC034664
:104BC0007A6831462846A04702463B699A420BD193
:104BD000FB685B691B783B753B7DC3F30313DBB25A
:104BE000FB6102E000BF00E000BFFB69184624370C
:104BF000BD46F0BD80B487B000AF786039607B6897
:104C00007B613B689B683B613B685B681A463B691C
:104C10001344BB6039E03B691B782F2B03D17B69C0
:104C20001B782F2B3AD17B691B782B2B09D07B6902
:104C30001B78232B05D07B691A783B691B789A4235
:104C40002ED17B691B782B2B12D13B690133FB6082
:104C500005E03B6901333B613B690133FB60FA6866
:104C6000BB689A420BD2FB681B782F2BF1D106E070
:104C70007B691B78232B02D1BB68013B3B617B69BD
:104C800001337B613B6901333B617B691B78002BFE
:104C900007D03A69BB689A42BDD302E000BF00E08A
:104CA00000BF3A69BB689A4205D17B691B78002B2B
:104CB00001D1012300E00023DBB218461C37BD46BA
:104CC0005DF8047B704780B58AB000AFF860B960CA
:104CD0007A604FF0FF333B6200237B623FE0FA686B
:104CE0007B6A0433DB0013445B68002B34D0FA6822
:104CF0007B6A0433DB0013445B681946B86801F033
:104D000039F90346002B0CD1FA687B6A0433DB00C7
:104D100013445B68B9681846FFF76CFF0346002B25
:104D20001AD0FA687B6A0433DB0013449B68002BBB
:104D300012D007F118037A68B9681846FFF700FE29
:104D4000FA687B6A0433DB0013449B6807F118029E
:104D50001046984700233B627B6A01337B627B6A83
:104D6000042BBCDD3B6AB3F1FF3F12D1FB68DB6C67
:104D7000002B0ED007F110037A68B9681846FFF7C8
:104D8000DFFDFB68DB6C07F110021046984700233B
:104D90003B623B6A18462837BD4680BD80B586B069
:104DA00000AF78604FF0FF337B617B689B69002B1D
:104DB00002D100237B6133E07B685433184600F056
:104DC00067FB0346002B2AD07B681B7F002B26D174
:104DD00007F10803184600F04DFB07F108034FF4F4
:104DE0007A71184600F06AFB7B681A697B689B68D9
:104DF0001946104600F023FE38613B69002B0FDD99
:104E000007F108031A4639697868FFF7C4FD78612D
:104E10007B69002B04D17B6801221A7700E000BF78
:104E20007B6918461837BD4680BD0000F0B595B0C7
:104E300006AF7860396039687868FFF777FE034617
:104E4000FB8500237B6300233B63FB8D023B0B2B25
:104E500000F2C08001A252F823F000BFD54F000835
:104E60008D4E0008D54F0008554F0008D54F00085B
:104E7000D54F0008D54F0008D54F0008D54F000882
:104E8000D54F0008D54F0008C74F00087B685B6905
:104E90007A68D268164607F11002151D07F1100254
:104EA000541C07F10C0107F11002901C04960393A7
:104EB00007F110030C33029307F110030833019339
:104EC00007F1200300932B46224600F0C7FD03465E
:104ED000012B40F08380FB68DBB23B7407F11002CA
:104EE00007F1200319467868FFF7EDFE3B7C002BA5
:104EF0006DD03B7C012B0CD17B6818697B689B686B
:104F00001946BB8A00930023042201F000F978635C
:104F10000EE03B7C022B0BD17B6818697B689B6899
:104F20001946BB8A00930023052201F0F0F878634C
:104F30007B6B002B03DC4FF0FF333B6305E03A68EB
:104F4000796B7868FFF727FD38633B6BB3F1FF3F60
:104F50003DD144E07B685C697B68DB6807F10A024D
:104F600007F1090107F108000093234600F0E8FD6E
:104F70000346012B03D04FF0FF333B631EE07B68F9
:104F800018697B689B6819467B8900930023062279
:104F900001F0BDF878637B6B002B03DC4FF0FF332F
:104FA0003B630BE03A68796B7868FFF7F4FC386391
:104FB0003B6B002B02D04FF0FF333B633B6BB3F1F5
:104FC000FF3F06D10BE07B6800221A7702E000BFAA
:104FD00000E000BF7868FFF7E1FE00E000BF3B6B38
:104FE000002B01D1FB8D3B633B6B18463C37BD4624
:104FF000F0BD00BF80B586B000AF78603960002397
:105000007B6107F10C03184600F034FA3A6807F1A7
:105010000C031146184600F051FA07F10C0319462B
:105020007868FFF703FF0346B3F1FF3F02D14FF06B
:10503000FF337B617B6918461837BD4680BD80B55C
:1050400086B000AFF860B9607A604FF0FF337B61E3
:10505000786800F01DFA0346002B09D17968F868DA
:10506000FFF7E4FE78617A69BB689A42F0D100E00C
:1050700000BF7B6918461837BD4680BD80B59EB01D
:1050800000AF786039604FF0FF337B673D4A07F12E
:1050900010031146582218460AF0C2FB00233B6752
:1050A0007B681B6A002B5DD107F16803184600F08E
:1050B000E1F97B685A6807F168031146184600F069
:1050C000FDF93B68002B02D107F110033B603B6800
:1050D0001B8B1A467B689A617B6803F154027B68DC
:1050E0009B691946104600F0FDF97B6818697B68DA
:1050F0009B683A68194600F029FB38673B6F002B24
:1051000032DD07F168031A46396F7868FFF743FC10
:1051100078677B6F002B29D107F168031A460221BB
:105120007868FFF78CFF0346022B17D1FF23FB7330
:105130000023BB737B685A697B68DB6807F10F014A
:1051400007F10E0000F0EEFB0346012B02D1FB7BC2
:105150007B670CE04FF0FF337B6708E04FF0FF33D5
:105160007B6704E000BF02E000BF00E000BF7B6F90
:10517000002B02D17B6801221A627B6F18467837B8
:10518000BD4680BD34040108B0B594B004AFF860EA
:10519000B9603B601346FB714FF0FF33FB630023A4
:1051A0007B6300233B6200237B620023BB62BB68FE
:1051B0003B62FB79FB77FB681B6A002B00F0838066
:1051C00007F12C03184600F055F9FB685A6807F1FF
:1051D0002C031146184600F071F9FB681C69FB6846
:1051E0009B681D46F868FFF7BDFB03469AB207F1BE
:1051F0001F03029307F12003019301230093134639
:1052000000222946204600F0FEFF78637B6B002BCE
:105210005BDD07F12C031A46796BF868FFF7BBFBDF
:10522000F863FB6B002B52D107F12C031A460921BE
:10523000F868FFF704FF0346092B40D10023BB6148
:105240004FF0FF337B61FB685B69FA68D2681446F4
:1052500007F1140107F1180207F1120001940093FD
:105260000B46012101F049F80346012B01D17B696E
:10527000FB63FB6B802B2BD00023BB631BE0FA6826
:10528000BB6B0433DB0013445B68002B10D1FA685E
:10529000BB6B0433DB001344BA685A60FA68BB6B1B
:1052A0000433DB0013443A689A600023FB630FE089
:1052B000BB6B0133BB63BB6B042BE0DD08E04FF03D
:1052C000FF33FB6304E000BF02E000BF00E000BF6B
:1052D000FB6B18464037BD46B0BDF0B597B008AF80
:1052E000F860B9607A604FF0FF337B630023FB61A5
:1052F00000233B6200237B62BB68FB6100233B63AE
:10530000FB681B6A002B00F09B8007F128031846FE
:1053100000F0B0F8FB685A6807F1280311461846F8
:1053200000F0CCF87B681B78012B03D07B681B78DE
:10533000022B06D1F868FFF715FB03469AB27B688B
:105340009A80FB681B693B60FB689B689C467B6896
:105350001B789E467B685D787B689E887B689B682F
:105360007A68D2680692059302AC07F11C0393E8B1
:10537000070084E807000196009573460022614605
:10538000386800F04EFE38633B6B002B5ADD07F1A6
:1053900028031A46396BF868FFF7FDFA78637B6BD0
:1053A000002B51D17B681B78012B22D107F12803F8
:1053B0001A460421F868FFF742FE0346042B14D175
:1053C000FB685C69FB68DB6807F11A0207F11901E9
:1053D00007F118000093234600F0B2FB0346012BAF
:1053E00035D04FF0FF337B6331E04FF0FF337B6309
:1053F0002DE07B681B78022B28D107F128031A4681
:105400000721F868FFF71BFE0346072B14D1FB6842
:105410005C69FB68DB6807F1160207F1150107F10B
:1054200014000093234600F08BFB0346012B0ED0A3
:105430004FF0FF337B630AE04FF0FF337B6306E0FE
:1054400000BF04E000BF02E000BF00E000BF7B6BD4
:1054500018463C37BD46F0BD80B400AF044B1B6816
:105460000133034A136000BFBD465DF8047B7047FB
:105470007801002080B483B000AF78607B680022A0
:105480005A6000BF0C37BD465DF8047B70470000D2
:1054900080B485B000AF78607B685A68064B1B68A3
:1054A000D31AFB60FB68DB0FDBB218461437BD462E
:1054B0005DF8047B704700BF7801002080B483B0A2
:1054C00000AF78603960064B1A683B681A447B6805
:1054D0005A6000BF0C37BD465DF8047B704700BFC3
:1054E0007801002080B483B000AF786039603B68F9
:1054F0004FF47A7203FB02F2054B1B681A447B6877
:105500005A6000BF0C37BD465DF8047B704700BF92
:105510007801002080B485B000AF78607B685A685D
:10552000064B1B68D31AFB60FB6823EAE37318463B
:105530001437BD465DF8047B704700BF780100203A
:1055400080B483B000AF786039607B683A681A60D5
:105550007B68074A5A607B68064A9A607B68064AFD
:10556000DA6000BF0C37BD465DF8047B704700BFB2
:105570007D550008D35500081756000880B584B043
:1055800000AFF860B9607A603B60FB681B68043369
:105590001B0203331846FBF7BDFB0346172B13D141
:1055A000FB681B68DBB21846FBF7C1FC0346002B07
:1055B0000AD0FB681B68DBB27A6892B2B9681846F9
:1055C000FCF7A2FA034600E0002318461037BD4658
:1055D00080BD80B584B000AFF860B9607A603B6090
:1055E000FB681B6804331B0203331846FBF792FB6E
:1055F0000346172B0AD1FB681B68DBB27A6892B2AC
:10560000B9681846FCF78CF9034600E000231846F9
:105610001037BD4680BD80B582B000AF78607B6832
:105620001B68DBB21846FCF70DF900BF0837BD4612
:1056300080BD80B586B000AFF860B9601346FB80CE
:1056400043F23903FB82FB681B68D8B2FA8A002355
:105650000121FBF7C9FE03461A46FB681B689A4204
:1056600001D000230DE0FB681B68DBB2FA88B96843
:105670001846FCF721F80346012B01D0002300E077
:10568000012318461837BD4680BD90B585B000AFE0
:1056900078600023FB607B681B7A032B02D10C230C
:1056A000FB6005E07B681B7A042B01D10A23FB60B9
:1056B0007B680C3393E8070000F043FC0346023399
:1056C000FA681344FB607B68DB7E002B13D07B6899
:1056D000243393E8070000F034FC03469C1C7B68ED
:1056E000303393E8070000F02CFC034623440233D8
:1056F000FA681344FB607B681B6C002B03D17B684A
:105700009B6C002B0AD07B68403393E8070000F0C5
:1057100018FC03460233FA681344FB607B68DB6CB9
:10572000002B03D17B685B6D002B0AD07B684C3368
:1057300093E8070000F005FC03460233FA681344BF
:10574000FB60FB6818461437BD4690BD80B58AB033
:1057500000AFF860B9607A60FB68FB610023BB6151
:1057600000237B6100233B624FF0FF337B6278684C
:10577000FFF78BFF3862386A00F098FA0246BB6880
:10578000934203DA6FF001037B62C2E000233B76B1
:105790003B7E012262F307133B763A7E07F11C033E
:1057A0001146184600F011FBFB69396A184600F0F3
:1057B00012FA0246FB691344FB617B681B7A042BD7
:1057C0000CD107F11C035549184600F03CFB07F1CA
:1057D0001C030421184600F0F8FA0BE007F11C0343
:1057E0004F49184600F02FFB07F11C030321184610
:1057F00000F0EBFA00233B757B689B7E03F001030E
:10580000DAB23B7D62F341033B757B68DB7E002BA4
:1058100014BF01230023DAB23B7D62F382033B75A0
:105820003B7D03F00403DBB2002B13D07B6893F8BD
:105830003D3003F00303DAB23B7D62F3C4033B75F2
:105840007B6893F83C3003F00103DAB23B7D62F3EE
:1058500045133B757B681B6C002B03D17B689B6CED
:10586000002B03D03B7D43F080033B757B68DB6CF2
:10587000002B03D17B685B6D002B03D03B7D43F095
:1058800040033B753A7D07F11C031146184600F0B2
:105890009CFA7B681B8B1A4607F11C0311461846BD
:1058A00000F0A8FA7B6807F11C000C330ECB00F067
:1058B000E9FA7B68DB7E002B0DD07B6807F11C00CA
:1058C00024330ECB00F0DEFA7B6807F11C00303386
:1058D0000ECB00F0D7FA3B7D23F07F03DBB2002B29
:1058E00006D07B6807F11C0040330ECB00F0CAFAEB
:1058F0003B7D03F04003DBB2002B06D07B6807F151
:105900001C004C330ECB00F0BDFAFA69FB68D31AC9
:105910007B627B6A18462837BD4680BD8C0401082F
:105920009404010880B58AB000AFF860B9607A606D
:105930003B600023FB617B68BB6100233B6200236B
:105940007B6200233B6107F11803184600F029FA37
:1059500003463B773B7F23F00F03DBB2202B2ED196
:10596000BB6907F114021146184600F0E9F97862A4
:105970007A6ABB691344BB61BB697A6913443B62B1
:10598000BB693A6AD31A012B1BDD07F118031846CD
:1059900000F007FA03463B743B7CC3F3C013DBB251
:1059A0001A46FB681A7007F11803184600F0F9F957
:1059B00003461A46BB681A7001237B6202E000BFEF
:1059C00000E000BF7B6A18462837BD4680BD80B521
:1059D00088B000AFF860B9601346FB710023BB616B
:1059E0004FF0FF33FB61FB687B61BB68012B03DC7D
:1059F0006FF00103FB611DE000233B76FB7903F0B0
:105A00000F03DAB23B7E62F307133B763A7E07F16F
:105A100014031146184600F0D8F97B690021184696
:105A200000F0D9F802467B6913447B617A69FB6810
:105A3000D31AFB61FB6918462037BD4680BD80B58F
:105A400082B000AF786039600C2239687868FFF75F
:105A5000BEFF034618460837BD4680BD80B58AB0F4
:105A600000AFF860B9607A603B600023FB61FB6BBC
:105A7000BB6100233B6200237B6200237B6107F153
:105A80001803184600F08DF903463B773B7F23F05F
:105A90000F03DBB2302B4BD13B7FC3F3C003DBB230
:105AA0001A46FB681A703B7FC3F34103DBB21A4608
:105AB000BB681A603B7FC3F30003DBB21A467B6806
:105AC0001A70BB6907F114021146184600F038F944
:105AD00078627A6ABB691344BB61BB697A69134413
