:020000040800F2
:100000000080012021040008710400087104000828
:100010007104000871040008710400080000000069
:100020000000000000000000000000007104000853
:10003000710400080000000071040008810300083A
:1000400071040008710400087104000871040008BC
:100050000000000071040008710400087104000829
:10006000710400087104000871040008710400089C
:10007000710400087104000871040008710400088C
:10008000710400087104000871040008710400087C
:10009000710400087104000871040008710400086C
:1000A000710400087104000871040008710400085C
:1000B000710400087104000871040008710400084C
:1000C000710400087104000871040008710400083C
:1000D000710400087104000871040008710400082C
:1000E000710400087104000871040008710400081C
:1000F000710400087104000871040008710400080C
:1001000071040008710400087104000871040008FB
:1001100071040008710400087104000871040008EB
:1001200071040008710400087104000871040008DB
:1001300071040008710400087104000871040008CB
:1001400071040008710400087104000871040008BB
:1001500071040008710400087104000871040008AB
:10016000710400087104000871040008710400089B
:10017000710400087104000871040008710400088B
:100180007104000871040008000000000000000075
:10019000000000000000000000000000000000005F
:0801A00071040008710400085D
:1001B00010B5054C237833B9044B13B10448AFF3A1
:1001C00000800123237010BD6400002000000000A7
:1001D0002013000808B5034B1BB103490348AFF3D4
:1001E000008008BD00000000680000202013000807
:1001F00001F0FF01102A2BDB10F0070F08D010F8D8
:10020000013B013A8B422DD010F0070F42B3F6D1DB
:10021000F0B441EA012141EA014122F007047FF0F4
:1002200000070023F0E80256083C85EA010586EA4B
:10023000010685FA47F5A3FA87F586FA47F6A5FA87
:1002400087F68EB9EED1F0BC01F0FF0102F0070293
:1002500032B110F8013B013A83EA010313B1F8D13E
:100260000020704701387047002D06BF354603381F
:10027000073815F0010F07D1013015F4807F02BF58
:10028000013015F4C03F0130F0BC0138704700BFA9
:1002900080B584B000AF334B1B6B324A43F0080388
:1002A0001363314B1B68304A23F0407313602E4BAD
:1002B0001B682D4A43F0807313604FF47A53FB6040
:1002C000F86800F047FB00F075FBF860254B1B6BEE
:1002D000244A43F0010313637E23BB800123BB71D7
:1002E00000237B7202233B720023FB713B1D1946E6
:1002F0001E4800F0BEF80221102000F05FF91C4AF1
:100300000021002000F03CFA4FF47A7000F03CFB32
:1003100000F0B8F9174A0021002000F031FA4FF43C
:100320007A7000F031FB00F0ADF9134A0021002093
:1003300000F026FA00F03EFB0246FB68D31AB3F544
:10034000FA7FF7D300F036FBF860074B5B69064A8B
:1003500083F480535361FB68084A0121002000F0B8
:100360000FFAE7E700380240000C024000000240AC
:1003700038130008541300086C13000874130008A5
:1003800080B500AF012000F021FB00BF80BD000060
:1003900080B586B000AF7860144A154BD31A7B61E4
:1003A0007B693B61134B1B68002B02D1114B124A36
:1003B0001A60104B1A687B6813443A699A4207D254
:1003C00000F016FB03460C221A604FF0FF3309E0E1
:1003D000084B1B68FB60074B1A687B681344054A8F
:1003E0001360FB6818461837BD4680BD00800120A9
:1003F0000004000080000020A000002080B400AFB6
:10040000064BD3F88830054A43F47003C2F88830AD
:1004100000BFBD465DF8047B704700BF00ED00E003
:100420000D488546FFF7EAFF0C480D490D4A0023A9
:1004300002E0D458C4500433C4188C42F9D30A4A99
:100440000A4C002301E013600432A242FBD300F007
:10045000D5FAFFF71DFFFEE7008001200000002015
:1004600064000020BC13000864000020A0000020ED
:10047000FEE780B487B000AF7860396000233B614D
:100480000023FB6000237B618EE001227B6902FA7E
:1004900003F33B613B681B881A463B691340FB60D2
:1004A000FA683B699A427CD13B689B7803F003036E
:1004B000012B05D03B689B7803F00303022B2BD163
:1004C0007B689B687A695200032101FA02F2D243E9
:1004D0001A407B689A607B689B683A68127911467B
:1004E0007A69520001FA02F21A437B689A607B68CB
:1004F0005B6801217A6901FA02F2D2431A407B68F3
:100500005A607B685B683A68D27811467A6901FA6A
:1005100002F21A437B685A603B689B7803F003033E
:10052000032B16D07B68DA687B695B00032101FA34
:1005300003F3DB431A407B68DA607B68DB683A6868
:10054000527911467A69520001FA02F21A437B6825
:10055000DA603B689B7803F00303032B0AD17B68C6
:10056000DA687B695B00032101FA03F3DB431A407D
:100570007B68DA607B681A687B695B00032101FA9B
:1005800003F3DB431A407B681A607B681B683A6898
:10059000927811467A69520001FA02F21A437B6896
:1005A0001A607B6901337B617B690F2B7FF66DAF2E
:1005B00000BF1C37BD465DF8047B704780B582B034
:1005C00000AF03460A46FB711346BB712D2000F0B5
:1005D00065F92B4ABB79D370294AFB791371284BF3
:1005E00000225A71264B00229A71254B00225A7024
:1005F000BB79012B06D9224B5B7843F00803DAB2B2
:100600001F4B5A700021032000F054F92D2000F0F8
:1006100045F90021032000F04DF92D2000F03EF9AE
:100620000021032000F046F92D2000F037F90021C9
:10063000022000F03FF9012000F030F9104B5B7808
:1006400043F02003DBB2184600F0BBF80C4B042249
:100650001A7000F07FF800F015F8094B02229A702A
:10066000074B9B7843F00403DBB2184600F0A9F86F
:100670002D2000F013F900BF0837BD4680BD00BF34
:100680008400002080B500AF012000F09AF803201C
:1006900000F004F900BF80BD80B582B000AF034612
:1006A0003A60FB710B46BB71BA79FB79114618466B
:1006B00000F0C4F842E0264B5A79254B1B799A4248
:1006C00010D3234B00225A71214B9B790133DAB2AC
:1006D0001F4B9A711E4B5B791D4A92791146184641
:1006E00000F0ACF83B681B780A2B0ED1184B9B79B5
:1006F0000133DAB2164B9A71154B5B79144A927931
:100700001146184600F09AF815E03B681B780D2B4F
:1007100006D10F4B9B791946002000F08FF80AE0B4
:100720003B681B78184600F06EF8094B5B79013383
:10073000DAB2074B5A713B6801333B603B681B7868
:10074000002BB8D100BF00BF0837BD4680BD00BF39
:100750008400002080B500AF084B1B7843F00403F1
:10076000DAB2064B1A70054B1B7843F00803DBB274
:10077000184600F026F800BF80BD00BF84000020AE
:100780000CB480B598B000AF03460A46FB7113461F
:10079000BB7107F16C03FB6007F11003FA68B96ED7
:1007A000184600F065F907F11002B979FB7918468F
:1007B000FFF772FF00BF6037BD46BDE8804002B062
:1007C000704780B582B000AF0346FB71FB791B090F
:1007D000DBB20021184600F06DF8FB7903F00F033F
:1007E000DBB20021184600F065F8FB79032B03D833
:1007F000032000F053F803E0022000F04FF800BFA0
:100800000837BD4680BD80B582B000AF0346FB719E
:10081000FB791B09DBB20121184600F04BF8FB798C
:1008200003F00F03DBB20121184600F043F801206A
:1008300000F034F800BF0837BD4680BD80B584B0F5
:1008400000AF03460A46FB711346BB71114BFB60B8
:10085000114BDB78BA799A4201D30023BB710E4A5F
:10086000FB7953710C4ABB799371BB7910333B44CC
:1008700013F8042CFB791344DBB25BB263F07F0303
:100880005BB2DBB21846FFF79CFF00BF1037BD46D6
:1008900080BD00BF004014548400002080B582B0A9
:1008A00000AF7860786800F06FF800BF0837BD4689
:1008B00080BD000080B485B000AF03460A46FB71DE
:1008C0001346BB710123FB60FB79DB08DBB21B4ADB
:1008D00003F001031360FB799B08DBB2184A03F0B5
:1008E00001031360FB795B08DBB2164A03F00103D6
:1008F0001360FB79144A03F001031360134B0022C9
:100900001A60BB79002B03D0114B01221A6002E060
:100910000F4B00221A600D4B01221A6000BFFB68CA
:100920005A1EFA60002BFAD1084B00221A6000BF51
:100930001437BD465DF8047B704700BF9802404203
:1009400094024042900240428C024042880240425F
:100950008402404280B483B000AF7860094B00222B
:100960001A60084A7B68013B5360064B00229A607C
:10097000044B07221A6000BF0C37BD465DF8047BAC
:10098000704700BF10E000E080B584B000AF786031
:1009900000F010F8F8607B68BB6000BF00F00AF858
:1009A0000246FB68D31ABA689A42F7D800BF1037DC
:1009B000BD4680BD80B400AF034B1B681846BD46E2
:1009C0005DF8047B704700BF8C00002080B483B0CA
:1009D00000AF7860054B1A687B681344034A1360C4
:1009E00000BF0C37BD465DF8047B70478C000020CB
:1009F000014B1868704700BF0000002070B50D4D16
:100A00000D4C641BA4100026A64209D10B4D0C4CC2
:100A100000F086FC641BA4100026A64205D170BD20
:100A200055F8043B98470136EEE755F8043B9847E4
:100A30000136F2E7B4130008B4130008B413000839
:100A4000B813000800B59BB0009104916FF000410D
:100A50000591029105490391694600F06FF8009BEA
:100A600000221A701BB05DF804FB00BF0802FFFFF4
:100A700013460A46014602480068FFF7E3BF00BF7D
:100A8000000000202DE9F0478E689E4282460C4609
:100A900090461F4638D88A8912F4906F32D0256864
:100AA0000969A5EB0109656905EB450505EBD575F8
:100AB00001334B446D109D4238BF1D46530531D55F
:100AC000294600F063FB064650B90C23CAF80030F3
:100AD000A38943F04003A3814FF0FF30BDE8F087C6
:100AE00021694A4600F0BEFAA38923F4906343F0DB
:100AF0008003A381266165614E44A5EB090526604C
:100B0000A5603E46BE4200D93E4620683246414678
:100B100000F0B6FAA3689B1BA360236833442360EC
:100B20000020DBE72A4600F0A5FB06460028E1D1BD
:100B30002169504600F0BEFAC7E700002DE9F04FEA
:100B400098468B891B069DB007460D4614460ED568
:100B50000B6963B9402100F019FB2860286120B9B6
:100B60000C233B604FF0FF30D1E040236B6100234A
:100B7000099320238DF82930CDF80C803023DFF83D
:100B8000A8818DF82A304FF0010923469A4613F8C0
:100B9000012B0AB1252AF9D1BAEB040B0BD05B4625
:100BA000224629463846FFF76DFF013000F0AA8043
:100BB000099A5A4409929AF80030002B00F0A2805A
:100BC00000234FF0FF32CDE905230AF1010A049317
:100BD00007938DF853301A935446052214F8011BDD
:100BE0005148FFF705FB049AD8B9D00644BF20232B
:100BF0008DF85330110744BF2B238DF853309AF8EA
:100C000000302A2B15D0079A544600204FF00A0CCA
:100C1000214611F8013B303B092B4ED9B0B1079268
:100C200014E0A0EB080309FA03F313430493A2466C
:100C3000D2E7039B191D1B680391002BBBBF5B42CE
:100C400042F0020207930793B8BF049223782E2B39
:100C50000CD163782A2B35D1039B1A1D1B68039294
:100C6000002BB8BF4FF0FF3302340593DFF8C8A064
:100C7000217803225046FFF7BBFA40B14023A0EB96
:100C80000A0003FA00F0049B03430134049314F8B0
:100C9000011B26488DF828100622FFF7A9FA002824
:100CA00038D0234B1BBB039B073323F007030833C8
:100CB0000393099B3344099367E70CFB02320C460C
:100CC0000120A5E700230134059319464FF00A0CD3
:100CD000204610F8012B303A092A03D9002BC5D041
:100CE0000591C3E70CFB012104460123F0E703ABA8
:100CF00000932A460F4B04A93846AFF30080421CEC
:100D00000646D6D1AB895B063FF52CAF09981DB0DE
:100D1000BDE8F08F03AB00932A46064B04A9384682
:100D200000F07AF8EBE700BF801300088A13000890
:100D300000000000850A0008861300082DE9F0472E
:100D4000164699468A680B69DDF820809342B8BF41
:100D50001346336091F8432007460C460AB101332D
:100D600033602368990642BF3368023333602568D5
:100D700015F0060506D104F1190AE36832689B1ADA
:100D8000AB4226DC94F84320131E226818BF0123CF
:100D900092062BD404F1430249463846C04701303D
:100DA0001ED02368E568326803F00603042B08BFF1
:100DB000AD1AA36822690CBF25EAE57500259342A8
:100DC000C4BF9B1AED1800261A34B5421AD1002070
:100DD00008E00123524649463846C047013003D156
:100DE0004FF0FF30BDE8F0870135C6E7E1185A1C27
:100DF000302081F84300224494F8451082F84310D3
:100E00000233C7E70123224649463846C04701302E
:100E1000E6D00136D9E700002DE9FF470F7E0C9D93
:100E2000782F914680460C469A4601F1430207D836
:100E3000622F0AD8002F00F0D880582F00F0A3802E
:100E400004F1420584F842703AE0A7F16303152BE0
:100E5000F6D801A151F823F0B10E0008C50E000824
:100E6000410E0008410E0008410E0008410E000826
:100E7000C50E0008410E0008410E0008410E000892
:100E8000410E0008D10F0008F50E0008B30F00084E
:100E9000410E0008410E0008F30F0008410E000843
:100EA000F50E0008410E0008410E0008BB0F0008B7
:100EB0002B681A1D1B682A6004F1420584F8423031
:100EC0000123A3E020682968060601F104030AD57E
:100ED0000E682B60002E03DA2D23764284F843300F
:100EE0005E480A2319E00E682B6010F0400F18BF0F
:100EF00036B2EFE72B682068191D2960010601D57D
:100F00001E6802E04606FBD51E8854486F2F0CBFB2
:100F100008230A23002184F843106568A560002D8A
:100F2000A2BF216821F0040121600EB9002D4DD02F
:100F30001546B6FBF3F103FB1167C75D05F8017DAC
:100F40003746BB420E46F4D9082B0BD12368DE0787
:100F500008D5236961689942DEBF302305F8013C5A
:100F600005F1FF35521B2261CDF800A04B4603AAC4
:100F700021464046FFF7E2FE01304CD14FF0FF30F2
:100F800004B0BDE8F087354881F8457029682368CA
:100F900051F8046B29601D0614D5DF0744BF43F0E8
:100FA000200323601EB9236823F02003236010234D
:100FB000B0E7236843F0200323607823284884F8AF
:100FC0004530E3E7590648BFB6B2E6E71546BBE74A
:100FD0002B6826686169181D286035061B6801D5D5
:100FE000196002E07006FBD51980002323611546C5
:100FF000BAE72B681A1D2A601D686268002128461E
:10100000FFF7F6F808B1401B6060636823610023B6
:1010100084F84330A8E723692A4649464046D0472A
:101020000130ABD023689B0713D4E068039B984240
:10103000B8BF1846A4E70123324649464046D04788
:1010400001309BD00135E36803995B1AAB42F2DCB7
:10105000EBE7002504F11906F5E700BF911300083E
:10106000A21300080A44914200F1FF3300D17047F7
:1010700010B511F8014B03F8014F9142F9D110BDA1
:10108000884210B501EB020402D98442234607D8F6
:10109000431EA14208D011F8012B03F8012FF8E7F5
:1010A000024401468A4200D110BD13F8014D02F8F6
:1010B000014DF7E737B5002944D051F8043C0190C1
:1010C000002BA1F10404B8BFE41800F013F91E4A84
:1010D0000198136833B96360146003B0BDE8304011
:1010E00000F00EB9A34208D9256861198B4201BFEF
:1010F00019685B6849192160EDE71A465B680BB116
:10110000A342FAD911685518A5420BD1246821448D
:101110005418A3421160E0D11C685B6853602144FD
:101120001160DAE702D90C230360D6E7256861195C
:101130008B4204BF19685B68636004BF4919216072
:101140005460CAE703B030BD9000002070B50E4E69
:101150000C463168054611B900F0BCF830602146F4
:10116000284600F0B7F8431C0AD0C41C24F003043E
:10117000A04207D0211A284600F0ACF8013001D176
:101180004FF0FF34204670BD940000202DE9F0415F
:10119000CD1C25F0030508350C2D38BF0C25002D7E
:1011A000074601DBA94205D90C233B6000263046E7
:1011B000BDE8F0812E4E00F09DF833681C4634BB2C
:1011C00029463846FFF7C2FF431C04464DD1346818
:1011D0002646002E40D123683146384604EB0308EA
:1011E00000F078F880453AD1216803356D1A25F072
:1011F000030508350C2D38BF0C2529463846FFF766
:10120000A5FF01302BD023682B4423600EE0226819
:10121000521B1ED40B2A16D96119A342256018BF90
:101220005960636808BF316062514B60384604F111
:101230000B0600F065F826F00706231DF21AB6D05B
:101240009B1BA350B3E76268A3420CBF32605A6095
:10125000ECE723466468B2E734467668B9E70C23C6
:101260003B60384600F04CF8A1E72560DEE700BFA0
:10127000900000202DE9F041804614460E4621B929
:10128000BDE8F0411146FFF781BF2AB9FFF712FF11
:1012900025462846BDE8F08100F038F8844207462C
:1012A00002D8B4EB500F12D821464046FFF76EFF2C
:1012B00005460028EDD0BC422246314628BF3A46BA
:1012C000FFF7D0FE31464046FFF7F4FEE1E7354632
:1012D000DFE7000038B5064D0023044608462B60C2
:1012E000FFF756F8431C02D12B6803B1236038BDC9
:1012F00098000020014800F011B800BF9C000020B9
:10130000014800F00CB800BF9C00002051F8043CDC
:10131000181F002BBCBF0B58C01870477047704790
:10132000F8B500BFF8BC08BC9E467047F8B500BFD2
:08133000F8BC08BC9E467047A2
:10133800686F6C61206D756E646F0D0A5155494E6A
:101348004F20422E4A6566667279000053544D3329
:10135800324634303756470D0A4A554E494F2D32DA
:101368003032330023424C494E4B000074696D659E
:101378003A202575206D7300232D302B2000686CD2
:101388004C006566674546470030313233343536A0
:1013980037383941424344454600303132333435D9
:0C13A80036373839616263646566000006
:0413B400D501000857
:0413B800B101000877
:1013BC0004000020000000000000000000000000FD
:1013CC000000000000000000000000000000000011
:1013DC000000000000000000000000000000000001
:1013EC0000000000000000000000000000000000F1
:1013FC0000000000000000000000000000000000E1
:10140C0000000000000000000000000000000000D0
:04141C0000000000CC
:0400000508000421CA
:00000001FF
