:020000040800F2
:1000000000000220E93700083938000839380008B4
:100010003938000839380008393800080000000075
:100020000000000000000000000000003938000857
:10003000393800080000000039380008013700088E
:1000400039380008393800083938000839380008CC
:100050000000000039380008393800083938000835
:1000600039380008393800083938000839380008AC
:10007000393800083938000839380008393800089C
:10008000393800083938000839380008393800088C
:10009000393800083938000839380008393800087C
:1000A000393800083938000839380008393800086C
:1000B000393800083938000839380008393800085C
:1000C000393800083938000839380008393800084C
:1000D000393800083938000839380008393800083C
:1000E000393800083938000839380008393800082C
:1000F000393800083938000839380008393800081C
:10010000393800083938000839380008393800080B
:1001100039380008393800083938000839380008FB
:1001200039380008393800083938000839380008EB
:1001300039380008393800083938000839380008DB
:1001400039380008393800083938000839380008CB
:1001500039380008393800083938000839380008BB
:1001600039380008393800083938000839380008AB
:10017000393800083938000839380008393800089B
:10018000393800083938000800000000000000007D
:10019000000000000000000000000000000000005F
:0801A000393800083938000865
:1001B00001F0FF01102A2BDB10F0070F08D010F818
:1001C000013B013A8B422DD010F0070F42B3F6D11C
:1001D000F0B441EA012141EA014122F007047FF035
:1001E00000070023F0E80256083C85EA010586EA8C
:1001F000010685FA47F5A3FA87F586FA47F6A5FAC8
:1002000087F68EB9EED1F0BC01F0FF0102F00702D3
:1002100032B110F8013B013A83EA010313B1F8D17E
:100220000020704701387047002D06BF354603385F
:10023000073815F0010F07D1013015F4807F02BF98
:10024000013015F4C03F0130F0BC0138704700BFE9
:10025000034613F8012B002AFBD1181A0138704706
:1002600081F0004102E000BF83F0004330B54FEA67
:1002700041044FEA430594EA050F08BF90EA020FD4
:100280001FBF54EA000C55EA020C7FEA645C7FEA67
:10029000655C00F0E2804FEA5454D4EB5555B8BF8A
:1002A0006D420CDD2C4480EA020281EA030382EAFB
:1002B000000083EA010180EA020281EA0303362D8D
:1002C00088BF30BD11F0004F4FEA01314FF4801C60
:1002D0004CEA113102D0404261EB410113F0004F72
:1002E0004FEA03334CEA133302D0524263EB430329
:1002F00094EA050F00F0A780A4F10104D5F1200EC7
:100300000DDB02FA0EFC22FA05F2801841F1000121
:1003100003FA0EF2801843FA05F359410EE0A5F1F5
:1003200020050EF1200E012A03FA0EFC28BF4CF026
:10033000020C43FA05F3C01851EBE37101F00045DC
:1003400007D54FF0000EDCF1000C7EEB00006EEBE9
:100350000101B1F5801F1BD3B1F5001F0CD3490873
:100360005FEA30004FEA3C0C04F101044FEA4452CA
:1003700012F5800F80F09A80BCF1004F08BF5FEA51
:10038000500C50F1000041EB045141EA050130BD31
:100390005FEA4C0C404141EB0101013C28BFB1F543
:1003A000801FE9D291F0000F04BF01460020B1FA8E
:1003B00081F308BF2033A3F10B03B3F120020CDA61
:1003C0000C3208DD02F1140CC2F10C0201FA0CF03F
:1003D00021FA02F10CE002F11402D8BFC2F1200CA4
:1003E00001FA02F120FA0CFCDCBF41EA0C0190405A
:1003F000E41AA2BF01EB0451294330BD6FEA0404A3
:100400001F3C1CDA0C340EDC04F11404C4F120028D
:1004100020FA04F001FA02F340EA030021FA04F39F
:1004200045EA030130BDC4F10C04C4F1200220FAF6
:1004300002F001FA04F340EA0300294630BD21FA34
:1004400004F0294630BD94F0000F83F4801306BFFA
:1004500081F480110134013D4EE77FEA645C18BFEE
:100460007FEA655C29D094EA050F08BF90EA020F85
:1004700005D054EA000C04BF1946104630BD91EA7D
:10048000030F1EBF0021002030BD5FEA545C05D180
:100490004000494128BF41F0004130BD14F58004BF
:1004A0003CBF01F5801130BD01F0004545F0FE4133
:1004B00041F470014FF0000030BD7FEA645C1ABF68
:1004C000194610467FEA655C1CBF0B46024650EA9F
:1004D000013406BF52EA033591EA030F41F40021CB
:1004E00030BD00BF90F0000F04BF0021704730B551
:1004F0004FF4806404F132044FF000054FF0000126
:1005000050E700BF90F0000F04BF0021704730B5E6
:100510004FF4806404F1320410F0004548BF4042BB
:100520004FF000013EE700BF42004FEAE2014FEA10
:1005300031014FEA02701FBF12F07F4393F07F4FEB
:1005400081F06051704732F07F4208BF704793F0EE
:100550007F4F04BF41F40021704730B54FF4607401
:1005600001F0004521F000411CE700BF50EA010204
:1005700008BF704730B54FF000050AE050EA0102AD
:1005800008BF704730B511F0004502D5404261EB1D
:1005900041014FF4806404F132045FEA915C3FF45E
:1005A000D8AE4FF003025FEADC0C18BF03325FEAFB
:1005B000DC0C18BF033202EBDC02C2F1200300FAAC
:1005C00003FC20FA02F001FA03FE40EA0E0021FAD1
:1005D00002F11444BDE600BF70B54FF0FF0C4CF4BF
:1005E000E06C1CEA11541DBF1CEA135594EA0C0F71
:1005F00095EA0C0F00F0DEF82C4481EA030621EAAC
:100600004C5123EA4C5350EA013518BF52EA0335E6
:1006100041F4801143F4801338D0A0FB02CE4FF098
:100620000005E1FB02E506F00042E0FB03E54FF0C8
:100630000006E1FB03569CF0000F18BF4EF0010EC0
:10064000A4F1FF04B6F5007F64F5407404D25FEABC
:100650004E0E6D4146EB060642EAC62141EA55516F
:100660004FEAC52040EA5E504FEACE2EB4F1FD0CB1
:1006700088BFBCF5E06F1ED8BEF1004F08BF5FEA2F
:10068000500E50F1000041EB045170BD06F00046E1
:1006900046EA010140EA020081EA0301B4EB5C048E
:1006A000C2BFD4EB0C0541EA045170BD41F4801186
:1006B0004FF0000E013C00F3AB8014F1360FDEBFAB
:1006C000002001F0004170BDC4F10004203C35DA87
:1006D0000C341BDC04F11404C4F1200500FA05F30A
:1006E00020FA04F001FA05F240EA020001F00042AB
:1006F00021F0004110EBD37021FA04F642EB060121
:100700005EEA430E08BF20EAD37070BDC4F10C044A
:10071000C4F1200500FA04F320FA05F001FA04F20E
:1007200040EA020001F0004110EBD37041F10001FA
:100730005EEA430E08BF20EAD37070BDC4F1200505
:1007400000FA05F24EEA020E20FA04F301FA05F26D
:1007500043EA020321FA04F001F0004121FA04F215
:1007600020EA020000EBD3705EEA430E08BF20EAE5
:10077000D37070BD94F0000F0FD101F0004640001F
:1007800041EB010111F4801F08BF013CF7D041EAA1
:10079000060195F0000F18BF704703F000465200A5
:1007A00043EB030313F4801F08BF013DF7D043EA76
:1007B0000603704794EA0C0F0CEA135518BF95EA2C
:1007C0000C0F0CD050EA410618BF52EA4306D1D1B3
:1007D00081EA030101F000414FF0000070BD50EAD2
:1007E000410606BF1046194652EA430619D094EA5C
:1007F0000C0F02D150EA013613D195EA0C0F05D146
:1008000052EA03361CBF104619460AD181EA030199
:1008100001F0004141F0FE4141F470014FF0000051
:1008200070BD41F0FE4141F4780170BD70B54FF0EC
:10083000FF0C4CF4E06C1CEA11541DBF1CEA13556C
:1008400094EA0C0F95EA0C0F00F0A7F8A4EB05044E
:1008500081EA030E52EA03354FEA013100F0888045
:100860004FEA03334FF0805545EA131343EA12630E
:100870004FEA022245EA111545EA10654FEA0026C3
:100880000EF000419D4208BF964244F1FD0404F57C
:10089000407402D25B084FEA3202B61A65EB0305D8
:1008A0005B084FEA32024FF480104FF4002CB6EB95
:1008B000020E75EB030E22BFB61A754640EA0C0015
:1008C0005B084FEA3202B6EB020E75EB030E22BF55
:1008D000B61A754640EA5C005B084FEA3202B6EB96
:1008E000020E75EB030E22BFB61A754640EA9C0055
:1008F0005B084FEA3202B6EB020E75EB030E22BF25
:10090000B61A754640EADC0055EA060E18D04FEAE2
:10091000051545EA16754FEA06164FEAC30343EA82
:1009200052734FEAC2025FEA1C1CC0D111F4801F4F
:100930000BD141EA00014FF000004FF0004CB6E748
:1009400011F4801F04BF01430020B4F1FD0C88BFE7
:10095000BCF5E06F3FF6AFAEB5EB030C04BFB6EBF2
:10096000020C5FEA500C50F1000041EB045170BDE5
:100970000EF0004E4EEA113114EB5C04C2BFD4EB12
:100980000C0541EA045170BD41F480114FF0000E96
:10099000013C90E645EA060E8DE60CEA135594EA12
:1009A0000C0F08BF95EA0C0F3FF43BAF94EA0C0F15
:1009B0000AD150EA01347FF434AF95EA0C0F7FF48A
:1009C00025AF104619462CE795EA0C0F06D152EADE
:1009D00003353FF4FDAE1046194622E750EA4106C2
:1009E00018BF52EA43067FF4C5AE50EA41047FF4D3
:1009F0000DAF52EA43057FF4EBAE12E74FF0FF3C38
:100A000006E000BF4FF0010C02E000BF4FF0010C08
:100A10004DF804CD4FEA410C7FEA6C5C4FEA430C81
:100A200018BF7FEA6C5C1BD001B050EA410C0CBFD0
:100A300052EA430C91EA030F02BF90EA020F002032
:100A4000704710F1000F91EA030F58BF994208BF99
:100A500090422CBFD8176FEAE37040F00100704756
:100A60004FEA410C7FEA6C5C02D150EA013C07D1AD
:100A70004FEA430C7FEA6C5CD6D152EA033CD3D0F8
:100A80005DF8040B704700BF8446104662468C46F2
:100A90001946634600E000BF01B5FFF7B7FF002825
:100AA00048BF10F1000F01BD4DF808EDFFF7F4FF4E
:100AB0000CBF012000205DF808FB00BF4DF808EDD9
:100AC000FFF7EAFF34BF012000205DF808FB00BFFC
:100AD0004DF808EDFFF7E0FF94BF012000205DF81E
:100AE00008FB00BF4DF808EDFFF7CEFF94BF0120D3
:100AF00000205DF808FB00BF4DF808EDFFF7C4FFCC
:100B000034BF012000205DF808FB00BF4FEA410C14
:100B10007FEA6C5C02D150EA013C0AD14FEA430CF7
:100B20007FEA6C5C02D152EA033C02D14FF0000034
:100B300070474FF0010070474FEA410212F5001272
:100B400015D211D56FF47873B3EB625212D94FEA14
:100B5000C12343F0004343EA505311F0004F23FAFE
:100B600002F018BF404270474FF00000704750EA53
:100B7000013005D111F0004008BF6FF00040704710
:100B80004FF00000704700BF0348044B834202D07F
:100B9000034B03B118477047C8010020C80100206B
:100BA000000000000548064B1B1AD90F01EBA301FA
:100BB000491002D0034B03B118477047C801002009
:100BC000C80100200000000010B5064C237843B98E
:100BD000FFF7DAFF044B13B10448AFF300800123A1
:100BE000237010BDC8010020000000004838000834
:100BF00008B5054B1BB105490548AFF30080BDE8BA
:100C00000840FFF7CFBF00BF00000000CC0100206C
:100C1000483800082DE9F04F85B057EC106BDDE93E
:100C20000E9B002F0C4690461946B8BF32463B46F5
:100C30002BF0200ABBBF07F100431F4600232D23E2
:100C4000B8BF1646BAF1460F0B7005D0BAF1450F82
:100C500000D10134022100E0032103AB019302AB78
:100C6000009347EC106B4B46224600F04DFEBBF163
:100C7000670F054619D118F0010F0ED005EB0408D7
:100C80000022002330463946FFF70EFF08B1CDF8A9
:100C90000C803022039B434521D3039B109A5B1B9E
:100CA0002846136005B0BDE8F08FBBF1470FE2D0D6
:100CB000BAF1460F00EB0408E2D10378302B0AD1D9
:100CC0000022002330463946FFF7EEFE18B9C4F182
:100CD0000104C9F80040D9F800309844D0E7591C05
:100CE00003911A70D6E7F7B50029BABF49422D2300
:100CF0002B2309290270437029DD0DF107031D46DE
:100D00000A271A46B1FBF7F607FB1614303402F82F
:100D1000014C0C46632C03F1FF333146F1DC3031DA
:100D2000941E03F8011C411C2346AB420AD30DF16B
:100D300009039B1AAC4288BF002302330344181AEC
:100D400003B0F0BD13F8016B01F8016FEDE730233C
:100D500030318370C170031DF1E700002DE9F04FC1
:100D60008DB00C46DDF8588016461F46054600F04B
:100D7000CFFC036804931846FFF76AFA00230A932E
:100D8000D8F800300590073323F0070303F1080279
:100D900094F818A0D4F800B0C8F80020D3E900896E
:100DA00029F000430793CDF81880C4E91289DDE9E2
:100DB0000601A04B4FF0FF32FFF7A8FE70BBDDE944
:100DC00006019C4B4FF0FF32FFF782FE30BB002242
:100DD000002340464946FFF771FE10B12D2384F8E9
:100DE0004330954A954BBAF1470F94BF90469846C9
:100DF000032323612BF0040323604FF000090097C5
:100E000033460BAA2146284600F0DAF9013040F0BB
:100E100096804FF0FF300DB0BDE8F08F42464B4654
:100E200040464946FFF772FE40B14B46002BBCBF1F
:100E30002D2384F84330824A824BD4E763685A1CDE
:100E400026D1062363604BF4806200232260039363
:100E50000AABCDE901A309AB0093616849EC108BA3
:100E60000DF123032846FFF7D5FEBAF1670F099964
:100E7000804615D1CB1C3BDB6368994238DC0A9B6A
:100E8000994255DB23682161D80745D54B1C42E0C8
:100E90000AF0DF02472AD6D1002BD4D10123D1E7B3
:100EA000BAF1470F07D1C81C25DB63688B4222DBF0
:100EB0004FF0670AE3E7BAF1650F1FD801395246D0
:100EC00004F150000991FFF70EFF0A9A1318012A46
:100ED0008146236102DC2268D20701D501332361F8
:100EE0009DF82330002B8AD02D2384F8433086E7E9
:100EF0004FF0650AE2E74FF0450ADFE7BAF1660F07
:100F0000BDD1002963680BDD216113B92268D007C8
:100F100002D501330B442361A1654FF00009DFE7DF
:100F200013B92268D20701D50233F4E70123F2E7AF
:100F30000029D4BFC1F1020201221344EBE7236868
:100F40005A0507D42369424631462846B84701303E
:100F50002BD15EE7BAF1650F40F2DC80D4E91201D3
:100F600000220023FFF7A0FD002833D0364A0123DA
:100F700031462846B84701303FF44BAFDDE9093828
:100F8000434502DB2368D8070FD5DDE9042331464A
:100F90002846B84701303FF43CAF4FF0000908F154
:100FA000FF3804F11A0AC84509DC23689B0700F1E1
:100FB0000281E0680B9B9842B8BF18462BE70123DB
:100FC000524631462846B84701303FF422AF09F176
:100FD0000109E8E7099B002B38DC1B4A0123314655
:100FE0002846B84701303FF414AFDDE9093959EA22
:100FF000030302D12368D907D7D5DDE9042331469D
:101000002846B84701303FF404AF4FF0000A04F11E
:101010001A0B099B5B42534501DC4B4693E70123C6
:101020005A4631462846B84701303FF4F2AE0AF13D
:10103000010AEEE7FFFFEF7F603800086438000820
:10104000683800086C38000870380008A36DDDF8B7
:1010500028A05345A8BF5346002B994636DC4FF0D5
:10106000000B29EAE97904F11A02A36D0693A3EBB8
:1010700009035B4531DC099B9A453ADC2368DA07B2
:1010800037D4099BAAEB0309069BAAEB03039945F6
:10109000A8BF9946B9F1000F33DC4FF0000829EAE8
:1010A000E97904F11A0B099BAAEB0303A3EB0903EB
:1010B00043457FF77AAF01235A4631462846B84761
:1010C00001303FF4A6AE08F10108ECE74246314694
:1010D0002846B8470130C2D19BE601233146284655
:1010E0000692B84701303FF494AE069A0BF1010B1B
:1010F000BBE7DDE9042331462846B8470130C0D1BB
:1011000087E6069A4B46424431462846B8470130A6
:10111000C3D17EE6DDF828A0BAF1010F01DCDB07C0
:1011200036D50123424631462846B84701303FF4C0
:1011300070AEDDE9042331462846B84701303FF45C
:1011400068AED4E91201002200230AF1FF3AFFF74A
:10115000ABFCC0B9534608F1010231462846B847F6
:1011600001300CD155E601235A4631462846B8478E
:1011700001303FF44EAE08F10108D045F3DB4B4699
:1011800004F15002E0E64FF0000804F11A0BF4E716
:1011900001234246E1E701234A4631462846B84743
:1011A00001303FF436AE08F10108E3680B995B1A91
:1011B0004345F0DCFDE64FF0000804F11909F4E7BF
:1011C0002DE9F047164698468A680B69DDF82090AD
:1011D0009342B8BF1346336091F8432007460C464C
:1011E0000AB1013333602368990642BF3368023382
:1011F0003360256815F0060506D104F1190AE36885
:1012000032689B1AAB4226DC94F843302268003BDC
:1012100018BF012392062BD404F1430241463846FD
:10122000C84701301ED02368226903F00603042B4F
:1012300002BFE5683368ED1AA3680CBF25EAE575BF
:1012400000259342C4BF9B1AED1800261A34B542FC
:101250001AD1002008E00123524641463846C847CB
:10126000013003D14FF0FF30BDE8F0870135C6E70C
:10127000E1185A1C302081F84300224494F84510AC
:1012800082F843100233C7E701232246414638461D
:10129000C8470130E6D00136D9E700002DE9FF4705
:1012A0000F7E0C9E782F914680460C469A4601F19F
:1012B000430207D8622F0AD8002F00F0DD80582F94
:1012C00000F0C38004F1420684F842703AE0A7F1CE
:1012D0006303152BF6D801A151F823F0351300084C
:1012E00049130008C5120008C5120008C5120008FD
:1012F000C512000849130008C5120008C5120008ED
:10130000C5120008C51200085F140008D7130008B2
:1013100017140008C5120008C5120008811400083F
:10132000C5120008D7130008C5120008C51200082E
:101330001F14000833681A1D1B68326004F142064E
:1013400084F842300123A8E031682368081D30602A
:101350001E0601D50D6803E05D06FBD5B1F900500E
:101360006168002D78DA2D20002984F84300A160FF
:101370002DDA5E486D420A231646B5FBF3F103FBF6
:101380001157C75D06F8017D2F46BB420D46F4D9C3
:10139000082B0BD12368DF0708D5236961689942C0
:1013A000DEBF302306F8013C06F1FF36921B2261B6
:1013B000CDF800A04B4603AA21464046FFF700FFA8
:1013C00001306FD14FF0FF3004B0BDE8F08723F05B
:1013D00004032360CDE721683368080653F8045BF3
:1013E00002D4490648BFADB26F2F4048336014BFE6
:1013F0000A230823002184F843106668A660002EA3
:10140000BADB216821F004012160002DB4D1002E47
:10141000B2D11646BCE7236843F02003236034486A
:10142000782784F84570236831681F0651F8045BFB
:1014300002D45F0648BFADB23160D90744BF43F064
:10144000200323601DB11023D4E72848E9E723686F
:1014500023F020032360F6E724480A23CDE733680E
:1014600025686169181D30602E061B6801D519605A
:1014700002E06806FBD5198000232361164697E732
:1014800033681A1D32601E68626800213046FEF71C
:101490008FFE08B1801B606063682361002384F8BD
:1014A000433085E72369324649464046D0470130FC
:1014B00088D023689B0714D4E068039B9842B8BF88
:1014C000184681E70123324649464046D04701305D
:1014D0003FF478AF0135E36803995B1AAB42F1DC66
:1014E000EAE7002504F11906F5E700BF72380008A5
:1014F00083380008002310B50446C0E90033C0E972
:101500000433836081814366C28183611946082266
:101510005C3000F0F4F80D4B63620D4BA3620D4B91
:10152000E3620D4B23630D4B24629C4206D003F112
:101530006802944202D0D0339C4205D104F1580095
:10154000BDE8104000F052B910BD00BF7916000888
:101550009B160008D3160008F7160008E4010020C7
:10156000024A0349034800F069B800BF00000020A8
:10157000752F00081000002041680C4B994210B5EF
:10158000044601D001F0F6FCA168094B994202D053
:10159000204601F0EFFCE168064B994204D020465A
:1015A000BDE8104001F0E6BC10BD00BFE401002022
:1015B0004C020020B402002010B50B4B0B4C0C4A1F
:1015C0001A60204600220421FFF794FF04F168000E
:1015D00001220921FFF78EFF04F1D0000222BDE8AD
:1015E00010401221FFF786BF1C030020E4010020F9
:1015F00061150008014800F0FAB800BF250300207B
:10160000014800F0F5B800BF2503002010B50446DE
:10161000FFF7F0FF236A1BB1BDE81040FFF7F0BFF2
:10162000044B2362044B1B68002BF5D1FFF7C4FF6A
:10163000F2E700BF791500081C0300202DE9F843EC
:101640000746884614460026D4E90195B9F10109F8
:1016500005D52468002CF7D13046BDE8F883AB8966
:10166000012B07D9B5F90E30013303D0294638468E
:10167000C04706436835E9E710B50C46B1F90E10CE
:1016800000F06CF80028ABBF636DA3891B1823F42E
:101690008053ACBF6365A38110BD2DE9F0411F46A7
:1016A0008B89DB0505460C46164605D5B1F90E10AB
:1016B0000223002200F040F8A389B4F90E1023F4AD
:1016C0008053A38132463B462846BDE8F04100F0F6
:1016D00057B810B50C46B1F90E1000F02DF8431CA8
:1016E000A38915BF606523F4805343F48053A3811D
:1016F00018BFA38110BDB1F90E1000F00DB802445F
:101700000346934200D1704703F8011BF9E700003C
:10171000004870474C01002038B5064D00230446B0
:1017200008462B6002F026F8431C02D12B6803B157
:10173000236038BD2003002038B5074D0446084615
:10174000114600222A601A4602F01EF8431C02D1FC
:101750002B6803B1236038BD2003002038B5074D46
:1017600004460846114600222A601A4601F0E4FFAA
:10177000431C02D12B6803B1236038BD2003002035
:1017800038B5074D04460846114600222A601A461D
:1017900001F0E2FF431C02D12B6803B1236038BD86
:1017A0002003002070B50D4D0D4C641BA4100026C5
:1017B000A64209D10B4D0C4C02F046F8641BA41054
:1017C0000026A64205D170BD55F8043B9847013666
:1017D000EEE755F8043B98470136F2E7D83B00089E
:1017E000D83B0008D83B0008DC3B00087047704736
:1017F00070472DE9F74F03690C69A34207467EDB6A
:10180000013C01F11408A30000F11405009305EB5D
:101810008403019358F8243055F8242001339A4268
:1018200008EB8409B2FBF3F62ED34FF0000AC4464E
:10183000AE46D3465CF8043B98B206FB00A0020C0F
:101840001B0C06FB0323DEF8002080B292B2121AB2
:101850005A44DEF800004FEA134A9BB2C3EB22431E
:1018600003EB104392B242EA0342E1454EF8042BE7
:101870004FEA234BDED2009BEB582BB9019B043B74
:101880009D421A462FD33C61384601F0E7F9002803
:1018900025DB2946002058F8042BD1F800C01FFA98
:1018A00082FE1FFA8CF3A3EB0E030344120CC2EB6F
:1018B000234202EB1C429BB243EA0243C14541F87A
:1018C000043B4FEA2240E6D255F8242005EB84037E
:1018D00022B9043B9D421A460BD33C610136304687
:1018E00003B0BDE8F08F1268043B002ACBD1013C65
:1018F000C6E71268043B002AEFD1013CEAE700206A
:10190000EEE70000000000002DE9F04FC76997B036
:101910008DED000B55EC104B209E089183460C92E8
:1019200012937FB9102000F065FE0246CBF81C0030
:1019300020B9A74BEF21A74801F062FBC0E901776E
:101940000760C760DBF81C30196859B15A684A60F3
:10195000012393408B60584600F042FFDBF81C30B7
:1019600000221A602B1EB9BF23F00043019300230D
:101970003360019F984BBCBF01223260BB4319D139
:10198000129A42F20F731360C7F31303234300F05C
:10199000DD85219B53B9914B21E0914B0393083393
:1019A000219A1360039817B0BDE8F08F8B4B039317
:1019B0000333F5E79DED007B002251EC170B00236C
:1019C0008DED0A7BFFF770F8804650B1129A012323
:1019D0001360219B13B1219A824B1360824B0393B6
:1019E000E0E79DED0A0B14AA15A9584601F0E6F9A7
:1019F000C7F30A560290002E78D00B9BCDF84C808E
:101A0000C3F31303DDE90A0143F07F5343F44013AA
:101A1000A6F2FF3619460022744BFEF725FC66A39A
:101A2000D3E90023FEF7D8FD65A3D3E90023FEF731
:101A30001DFC044630460D46FEF764FD62A3D3E963
:101A40000023FEF7C9FD02460B4620462946FEF755
:101A50000DFC04460D46FFF76FF8002207460023F1
:101A600020462946FFF72AF840B13846FEF74AFDDE
:101A700022462B46FFF718F800B9013F162F52D81F
:101A80005B4B03EBC703D3E90023DDE90A01FFF752
:101A900015F8002849D0013F00231193149B9B1B8C
:101AA0005A1E45BFC3F1010306930023002307928A
:101AB00054BF06930793002F39DB079B10973B44D5
:101AC000079300230993089B092B66D8052BC4BFF5
:101AD000043B0893089BA3F10203CCBF002401241C
:101AE000032B65D8DFE803F02B383657DDE91463A4
:101AF0001E4406F23243202BC1BFC3F140039F4076
:101B000006F2124324FA03F3D6BFC3F1200347EAD7
:101B1000030004FA03F0FEF7E5FC0122A1F1F873DB
:101B2000013E139276E70123B7E71190B6E7069BD3
:101B3000DB1B06937B42099300231093C3E700232A
:101B40000D930C9B002B57DC0123049399461A46F6
:101B50000C920CE00123F3E700230D930C9BFB1880
:101B600003F1010904934B46012BB8BF0123DBF8B5
:101B70001C000021042202F114059D4240D941605D
:101B8000584600F0EDFD039000283CD1194B024669
:101B900040F2AF11CFE60123DFE7012400230893D1
:101BA0000D944FF0FF330493994600221223CFE7A0
:101BB00001230D93F5E700BF61436F63A787D23F11
:101BC000B3C8608B288AC63FFB799F501344D33F2C
:101BD000A1380008B83800080000F07F9D380008E0
:101BE0009438000871380008703800080000F83F89
:101BF000B0390008113900080C9B04939946B6E7E8
:101C000001315200B7E7DBF81C30039A1A60B9F1D2
:101C10000E0F6FD8002C6DD0002F36DDA14B07F0D2
:101C20000F0203EBC20393ED007BF8058DED0E7BF5
:101C30004FEA271417D59C4BDDE90A01D3E90823A5
:101C4000FEF7F4FDCDE9000104F00F044FF00308A6
:101C5000954D5CB9DDE90E23DDE90001FEF7E6FDF7
:101C6000CDE900012BE04FF00208F1E7E10709D5CB
:101C7000DDE90E01D5E90023FEF7AEFCCDE90E014A
:101C800008F1010864100835E3E700F007817C42A1
:101C9000844B854D04F00F0203EBC203D3E900230C
:101CA000DDE90A01FEF798FCCDE9000124110023CB
:101CB0004FF00208002C40F0E580002BD0D1119BA2
:101CC000DDE90045002B00F04C81784B00222046D6
:101CD0002946FEF7F3FE002800F04381B9F1000F1A
:101CE00000F03F81049B002B00F3E480DDE90A341F
:101CF000CDE90034159B002B02DB0E2F40F342820E
:101D00000D9A002A40F06782099CDDF818800025B2
:101D1000B8F1000F0DD0079B002B0ADD4345069A52
:101D2000A8BF4346D21A0692079AA8EB0308D31A13
:101D30000793099B0BB30D9B002B00F0A682002C90
:101D400000F0A18229462246584600F0C1FE029AC0
:101D500001460546584600F011FE029906465846CF
:101D600000F03EFD099B1B1B099300F09182099A2C
:101D70003146584600F0ACFE02900121584600F072
:101D8000E7FD109B0446002B00F084821A460146B2
:101D9000584600F09DFE089B012B044603DC009B87
:101DA000002B00F07C820026236904EB8303186972
:101DB00000F07EFD1096C0F12000079B184410F043
:101DC0001F0000F09182C0F12003042B40F38182B8
:101DD000069BC0F11C0003440693079B0344804408
:101DE0000793069B002B05DD02991A46584600F022
:101DF000C9FE0290079B002B05DD21461A46584676
:101E000000F0C0FE0446119B002B00F07682029881
:101E1000214600F023FF002880F26F820023029900
:101E20000A22584600F0FEFC0D9B02907E1E002BFD
:101E300000F05C82002329460A22584600F0F2FC9A
:101E4000049B002B054603DC089B022B00F35E82FB
:101E5000B8F1000F05DD29464246584600F092FED3
:101E60000546109B002B00F0D0826968584600F0B0
:101E700077FC0746002840F07F820D4B024640F277
:101E8000EF2158E5E20706D5D5E90023FEF7A4FBCC
:101E900008F101080123641008350BE74FF0020830
:101EA0000DE700BFB0390008883900080000F03F96
:101EB000113900082046AD4B00222946FEF78CFB65
:101EC000CDE90001049C7E1E08F101084046FEF7A2
:101ED00019FBDDE90023FEF77FFBA54B0022FEF78F
:101EE000C5F9A1F15073CDE90E010F93002C3BD140
:101EF000DDE900019F4B0022FEF7B6F902460B46D2
:101F0000CDE90023DDE90E23FEF7F6FD002840F0C1
:101F10005781DDE90E2101F10043DDE90001FEF703
:101F2000CDFD00283FF4E2AE002425460C9BDDF8F1
:101F30000CA0DE434FF000082146584600F050FC4C
:101F4000002D00F0A980B8F1000F05D0A84503D0FE
:101F50004146584600F044FC2946584600F040FCF3
:101F60009AE03E464C46B1E7834B03EBC40353E98A
:101F70000201039B1C440D9B002B4AD002460B46DA
:101F800000207E49FEF752FCDDE90E23FEF76CF9D6
:101F9000CDE90E01DDF80CA0DDE90001FEF7CCFD76
:101FA0000546FEF7AFFA02460B46DDE90001FEF7F3
:101FB0005BF93035CDE9000102460B460AF8015BBA
:101FC000DDE90E01FEF798FD002865D1DDE900236B
:101FD0006B490020FEF748F902460B46DDE90E0189
:101FE000FEF78AFD002840F00D81A24500F0EA804E
:101FF000DDE90E015D4B0022FEF7EEFA5B4BCDE909
:102000000E010022DDE90001FEF7E6FACDE900014C
:10201000C2E7DDE90E23FEF7DFFACDE90E01DDF8B8
:102020000CA0A046DDE90001FEF786FD0546FEF79F
:1020300069FA02460B46DDE90001FEF715F9303575
:102040000AF8015B02460B46A245CDE900234FF09A
:10205000000223D1494BDDE90E01FEF707F90246E4
:102060000B46DDE90001FEF747FD002840F0CA807D
:10207000DDE90E2341490020FEF7F6F802460B4643
:10208000DDE90001FEF71AFD70B1C24608F1FF3824
:102090001AF8013C302BF8D0374655E0334BFEF7A9
:1020A0009BFACDE90001BDE7DDE90A34CDE9003452
:1020B000159B002BFFF628AE0E2F3FF725AE2E4BBB
:1020C00003EBC70393ED007B0C9B002B8DED047B92
:1020D00002DAB9F1000F64D0DDE90045DDF80CA0AB
:1020E000DDE9042320462946FEF7A0FBFEF724FD88
:1020F0000646FEF707FADDE90423FEF76DFA02460D
:102100000B462046294606F13004FEF7ADF80AF8E2
:10211000014B039CAAEB0404A14502460B4640F088
:102120008280FEF7A3F8DDE9042304460D46FEF79E
:10213000E3FC002865D1DDE9042320462946FEF7AB
:10214000B3FC08B1F3075CD40299584600F048FB91
:1021500000238AF80030129B01371F60219B002B5F
:102160003FF420ACC3F800A01CE400BF00002440F2
:1021700000001C4000001440B03900080000E03F9F
:102180000000F03FA24B03EBC70393ED007B0C9BD9
:10219000002B8DED047B9FDAB9F1000F9CDC7FF4FE
:1021A000C3AE9C4B0022DDE90401FEF715FADDE920
:1021B0000023FEF797FC044600287FF4B5AE3E46A8
:1021C0002546B4E0DDE90A34CDE90034159B002B47
:1021D00001DB0E2FD6DD089A012A36DC139A82B372
:1021E00003F23343099CDDF81880069A1A440692DC
:1021F000079A01211A445846079200F0A9FB0546A8
:1022000086E53E4653469A4613F8012D392A06D1F3
:10221000039A9A42F7D10399302201360A701A784C
:1022200001321A7038E77C4B0022FEF7D5F9002204
:10223000002304460D46FEF737FC00283FF450AF5C
:1022400082E7149BC3F13603CCE7099B09F1FF3405
:10225000A34208DBB9F1000FA3EB04040EDBDDF8A9
:1022600018804B46C1E7099B109A0994E31A1A4457
:10227000DDF8188010924B460024B6E7069BA3EBCE
:1022800009080023B1E7029E71E5099A029970E5F9
:10229000029672E5089B012B17DC009BABB9019BF2
:1022A000C3F313039BB9019B23F00046360D36059B
:1022B00036B1069B01330693079B01330793012632
:1022C000109B002B7FF470AD1096012075E5002661
:1022D000F6E73FF486AD069A1C331A440692079A35
:1022E0001A44984407927CE50346F4E7049B002BCC
:1022F0002BDC089B022B09DC27E0B9F1000F1DDC69
:10230000089B022B1ADDCDF810903E46049B002B53
:102310007FF40CAE21460522584600F083FA0146B0
:102320000446029800F09AFC00287FF7FFADDDF824
:102330000CA031230AF8013B0136FBE50D9BCDF8DB
:1023400010903E46002B7FF483AD039F02982146F8
:10235000FFF74FFA00F1300907F8019B039B049A3D
:10236000FB1A9A4240F3CB80029900230A22584676
:1023700000F058FA0290E9E72A690232920005F16A
:102380000C010C3000F02EFE01223946584600F0B8
:10239000F9FB039B03F1010ADDE9032313440793CF
:1023A000009B03F00103A846099305460AF1FF3399
:1023B000214602980493FFF71CFA4146069000F16B
:1023C0003009029800F04AFC2A4621460746584642
:1023D00000F060FCC268014602B3584600F000FA03
:1023E000002F3ADA02990122584600F0CBFB214631
:1023F000029000F033FC002803DC29D119F0010F12
:1024000026D0B9F1390F1DD132E02846C1E700BF0F
:10241000B039000800001440000024400A900298DF
:1024200000F01CFC0A990C90584600F0D9F90C9A5F
:102430005ABB089B53B9099B43B9B9F1390F17D05F
:10244000002F05DD069B03F1310901E0002F2ADA98
:10245000DDF810A00AF8019B6EE5089B3B4304D110
:10246000009B03F00103002BBCD0B9F1390F36D12A
:10247000049F392307F8013BBA46013F1AF8013C93
:10248000392B5BD001333B7056E5002F06DB089BF0
:102490003B4306D1009B03F0010313B9002AA1DCE2
:1024A000D6E7002AE1DC079B0AF8019C5345574612
:1024B0002FD0029900230A22584600F0B3F9A8450C
:1024C00002904FF000034FF00A02414658460BD1EC
:1024D00000F0A8F9804605460AF1010A66E7DDF832
:1024E00010A009F10109B5E700F09CF929468046E2
:1024F00000230A22584600F095F90546ECE7049BB4
:10250000002BC8BF1F46039BD8BF01271F444FF0B5
:10251000000802990122584600F034FB214602903F
:1025200000F09CFB0028A7DC02D119F0010FA3D119
:10253000BA4617F8013D302BFAD0FDE4039BBB42AD
:102540009AD1039A312301361370F5E4219B002BB5
:102550007FF423AA014BFFF742BA00BF943800086A
:1025600038B50546002941D051F8043C0C1F002B1A
:10257000B8BFE41800F0E8F81D4A136833B9636087
:1025800014602846BDE8384000F0E4B8A34208D9FA
:10259000206821188B4201BF19685B680918216007
:1025A000EDE71A465B680BB1A342FAD911685018DF
:1025B000A0420BD120680144501883421160E0D141
:1025C00018685B68536008441060DAE702D90C238E
:1025D0002B60D6E7206821188B4204BF19685B681E
:1025E000636004BF091821605460CAE738BD00BFAA
:1025F0002C030020024B0146186800F025B800BFEC
:102600000C00002070B50F4E0C463168054611B91C
:1026100000F0D8FC30602146284600F0D3FC431C73
:1026200003D14FF0FF34204670BDC41C24F00304D6
:10263000A042F8D0211A284600F0C4FC0130F2D1A3
:10264000EFE700BF280300202DE9F843CD1C25F05B
:10265000030508350C2D38BF0C25002D064601DB7F
:10266000A94204D90C2333600020BDE8F883DFF8C9
:10267000D48000F069F8D8F800301C4644BB2946E5
:102680003046FFF7BFFF431C044658D1D8F800403E
:102690002746002F43D1002C4BD0236839463046C3
:1026A00004EB030900F08EFC814542D121686D1ACC
:1026B00029463046FFF7A6FF01303AD023682B4465
:1026C0002360D8F800305A6862BBC8F800700FE089
:1026D0002268521B20D40B2A17D96119A342256006
:1026E00018BF5960636808BFC8F8001062514B609A
:1026F000304600F02FF804F10B00231D20F00700F6
:10270000C21A1CBF1B1AA350AFE76268A3420CBFDA
:10271000C8F800205A60EBE723466468AEE73C4601
:102720007F68B6E71A465B68A342FBD1002353607B
:10273000DEE70C233360304600F00CF894E70560C8
:10274000D6E700BF2C0300200148FFF750B800BFB8
:10275000240300200148FFF74BB800BF24030020EA
:1027600070B5C66904460D4676B91020FFF742FFE2
:102770000246E06120B9184B18486B2100F040FC7C
:10278000C0E901660660C660E669F36883B1E36983
:10279000DB6853F82500B8B9012101FA05F6721D6E
:1027A0009200204600F04AFC60B1C0E901560EE0FC
:1027B00021220421204600F041FCE369F060DB683F
:1027C000002BE4D1002070BD026843F825200023CF
:1027D000C0E90333F7E700BFA13800082239000839
:1027E00070B5C66905460C4676B91020FFF702FFA2
:1027F0000246E86120B9094B09488F2100F000FC2E
:10280000C0E901660660C6603CB1EB696268DB68DE
:1028100053F82210216043F8224070BDA13800080F
:10282000223900082DE9F0410D6907460C461E4685
:1028300001F1140C0020DCF8003099B202FB0161B8
:102840001E0C0B0C02FB063389B2013001EB034175
:1028500085424CF8041B4FEA1346ECDC0EB3A36828
:10286000AB4219DC616838460131FFF779FF8046D9
:1028700028B902460C4B0D48BA2100F0C1FB226971
:10288000023204F10C0192000C3000F0ABFB214647
:102890003846FFF7A5FF444604EB850301355E612A
:1028A00025612046BDE8F081113900082239000871
:1028B000B0F5803F034636BF030400201020B3F17B
:1028C000807F3CBF1B020830B3F1805F3CBF1B011F
:1028D0000430B3F1804F03D3002B0ADB0130704783
:1028E0009B0001D5023070475B0001D50330704773
:1028F000202070470368024613F007000BD0D90769
:1029000021D4980749BF5B089B08012013605CBF76
:1029100013600220704799B209B91B0C1020D9B27C
:1029200009B908301B0A190704BF1B0904309907AD
:1029300004BF9B080230D90703D45B0800F10100F3
:1029400003D01360704700207047202070470000BC
:1029500010B50C460121FFF703FF024628B9054BCD
:10296000054840F2451100F04BFB0123446103612F
:1029700010BD00BF11390008223900082DE9F04FC1
:1029800014460A6923699A42A8BF23460F46A4BF8A
:102990000C461F46D4F810A0D7F81090A3686168C1
:1029A0000AEB0906B34285B0B8BF0131FFF7D8FE84
:1029B00030B90246444B45484FF4B17100F020FB5A
:1029C00000F1140505EB86082B460022434521D370
:1029D00007F1140104F1140202EB8A0201EB8903EE
:1029E0000293131B153B23F00303043304F1150773
:1029F000BA4238BF04230193029B03918B420CD847
:102A0000002E03DD58F8043D002B5BD0066105B0B5
:102A1000BDE8F08F43F8042BD8E7B1F800A0BAF175
:102A2000000F24D004F1140EA9464FF0000C5EF8FC
:102A3000047BD9F800301FFA87FB9BB20AFB0B33EB
:102A40004FEA174BD9F8007063444FEA174C0AFB62
:102A50000BC707EB13479BB243EA0743724549F89C
:102A6000043B4FEA174CE2D8019B45F803C0039B97
:102A7000B3F802900431B9F1000F21D02B6804F1B2
:102A8000140CAE464FF0000ABCF800B0BEF802705D
:102A900009FB0B7757449BB243EA07434EF8043BCC
:102AA0005CF8043B4FEA134ABEF8003009FB0A33D6
:102AB00003EB174362454FEA134AE5D8019FEB51F8
:102AC000043599E7013E9BE71139000822390008D7
:102AD0002DE9F843154612F0030207460E4607D0CB
:102AE000254C013A002354F82220FFF79BFE0646AE
:102AF000AD103DD0FC697CB91020FFF77BFD02468C
:102B0000F86128B91D4B1E4840F2B31100F078FA65
:102B1000C0E901440460C460D7F81C80D8F80840BC
:102B20004CB940F271213846FFF712FF0023C8F874
:102B30000800044603604FF00009EB070AD5314650
:102B400022463846FFF71AFF314680463846FFF7DF
:102B500047FE46466D100BD0206838B92246214604
:102B60003846FFF70BFF2060C0F800900446E4E70A
:102B70003046BDE8F88300BF7C390008A138000862
:102B8000223900082DE9F0470C464968236903EB18
:102B90006218A368074691464FEA621A08F10106D7
:102BA000B3420BDB3846FFF7DBFD054648B902466A
:102BB000284B29484FF4EF7100F022FA01315B00F5
:102BC000EEE7002300F1140100F11002184653450E
:102BD00033DB20692AEAEA7A04F1140319F01F09A9
:102BE00001EB8A0103EB800C2BD0C9F1200E8A4641
:102BF0000022186800FA09F010434AF8040B53F851
:102C0000042B9C4522FA0EF2F3D8ACEB0403153BDF
:102C100023F00303043304F11500844538BF042373
:102C2000CA500AB108F10206013E38462E6121461B
:102C3000FFF7D6FD2846BDE8F08742F8040F0133C0
:102C4000C5E7043953F8042B41F8042F9C45F9D803
:102C5000EAE700BF11390008223900080A69034673
:102C60000069801A30B50ED11433143103EB82049D
:102C700001EB820154F8045D51F8042D954203D014
:102C800005D24FF0FF3030BDA342F3D3FBE7012064
:102C9000F9E700002DE9F74F8946064611464846F8
:102CA0001446FFF7DBFF051E12D129463046FFF719
:102CB00057FD024628B93F4B40F237213E4800F00D
:102CC0009FF90123C0E90435104603B0BDE8F08F39
:102CD000BCBF4B46A1463046D9F80410BABF1C46CB
:102CE00001250025FFF73CFD024618B9314B40F2A3
:102CF0004521E3E7D9F810702669C56009F1100392
:102D000009F1140504F1140E00F1140B05EB87080A
:102D10000EEB86060193D9464FF0000C019B5EF83E
:102D2000040B53F804AF01931FFA8AF3194683B2D8
:102D3000CB1A000C6344C0EB1A4000EB23409BB25B
:102D400043EA0043764549F8043B4FEA204CE5D876
:102D5000331B153B23F0030315340433A64238BF5D
:102D600004231D445B441E462C4644450ED308F103
:102D70000301491B21F00301033DA84538BF002191
:102D80000B4453F8041D91B117619DE754F8041BDF
:102D9000E646080C1CFA81FC714400EB2C4089B219
:102DA00041EA004146F8041B4FEA204CDDE7013FB1
:102DB000E7E700BF11390008223900082DE9F74381
:102DC0000F46012159EC108B1646FFF7C9FC04464B
:102DD00030B90246234B244840F20F3100F010F97D
:102DE000C9F30A55C9F313030DB143F480130193DA
:102DF000B8F1000323D068460093FFF77BFDDDE9BF
:102E00000012D0B1C0F1200302FA03F30B43C24019
:102E100063610192019BA361002B0CBF012202227E
:102E20002261A5B1A5F2334505443D60C0F13500EE
:102E30003060204603B0BDE8F0836161EAE701A895
:102E4000FFF758FD019B636120300122E8E704EBA6
:102E50008203A0F2324038601869FFF729FDC0EB09
:102E60004210E5E71139000822390008B1F90C20B9
:102E70002DE9F041170705460C4656D44B68002B48
:102E800002DC0B6C002B3DDDE66A002E3AD00023FD
:102E900012F480522F68216A2B6025D0626DA389BD
:102EA000580705D56368D21A636B0BB1236CD21A2D
:102EB000216AE66A00232846B047411C24D000233B
:102EC000636023692360A389DA0400D56065616BC0
:102ED0002F60B9B104F14403994202D02846FFF7AC
:102EE0003FFB002363630DE001232846B047461CE7
:102EF0000246D4D12B68002BD1D01D2B01D0162B2C
:102F00002BD12F6000202FE02A68B4F90C3042B199
:102F10001D2A01D0162A22D1002363602369236071
:102F2000D5E7626022692260CEE70F69002FE9D001
:102F300093070E6808BF4B690F6018BF0023A6EB0C
:102F400007088B60B8F1000FDCDD216AA66A4346F2
:102F50003A462846B047002808DCB4F90C3043F064
:102F60004003A3814FF0FF30BDE8F0810744A8EB98
:102F70000008E7E738B50B6905460C4613B900258C
:102F8000284638BD18B1036A0BB9FEF73FFBB4F908
:102F90000C30002BF3D0626ED00704D4990502D414
:102FA000A06DFEF724FC28462146FFF75FFF636E05
:102FB000DA070546E4D4A3899B05E1D4A06DFEF7AA
:102FC00017FCDDE738B5064D0023044608462B60A4
:102FD00000F0DCFB431C02D12B6803B1236038BD39
:102FE000200300200A44914200F1FF3300D17047D2
:102FF00010B511F8014B03F8014F9142F9D110BD02
:103000001FB514461A46094B1B680546D86854B9C3
:10301000074B1C46CDE9013400912B46054900F0D1
:1030200041F800F051F8044BF4E700BF0C00002019
:10303000BD3A00088F3A0008823A000870B5A1FB3B
:1030400002543CB92946FFF7FFFA064628B9002684
:10305000304670BD0C220260F9E72A462146FEF791
:103060004EFBF5E782B001B901A942B14BB113782B
:103070000B601278101E18BF012002B07047104676
:10308000FBE76FF00100F8E70346084641B1FF2A6D
:1030900004D98A221A604FF0FF3070470A7001206D
:1030A000704700000EB403B5014603AB054853F862
:1030B000042B0068019300F037F802B05DF804EBD0
:1030C00003B070470C00002008B5062000F000FA9D
:1030D000012000F02BFB9368013B002B10B49360A0
:1030E00008DA9469A34201DB0A2903D15DF8044B95
:1030F00000F032B91368581C1060197008465DF86A
:10310000044B7047F8B506460F461446D518AC4236
:1031100001D1002007E014F8011B3A463046FFF7C2
:10312000DAFF431CF3D1F8BD2DE9F04F0D469DB0F9
:1031300014469846064618B1036A0BB9FEF766FABC
:103140006B6ED90705D4AB899A0502D4A86DFEF73A
:103150004EFBAB891B0701D52B699BB9294630462D
:1031600000F038F970B16B6EDC0704D54FF0FF301A
:103170001DB0BDE8F08FAB899805F7D4A86DFEF7B8
:1031800037FBF3E70023099320238DF82930CDF88E
:103190000C803023DFF8AC818DF82A304FF0010924
:1031A00023469A4613F8012B0AB1252AF9D1BAEB26
:1031B000040B0BD05B46224629463046FFF7A2FFA0
:1031C000013000F0A780099A5A4409929AF8003019
:1031D000002B00F09F8000234FF0FF32CDE9052344
:1031E0000AF1010A049307938DF853301A93544659
:1031F000052214F8011B5348FCF7DAFF049AD8B9EA
:10320000D10644BF20238DF85330130744BF2B232E
:103210008DF853309AF800302A2B15D0079A54466F
:1032200000204FF00A0C214611F8013B303B092BDE
:103230004BD9B0B1079214E0A0EB080309FA03F3ED
:1032400013430493A246D2E7039B191D1B68039105
:10325000002BBBBF5B4242F0020207930793B8BF4B
:10326000049223782E2B0AD163782A2B32D1039B28
:103270001A1D1B68039243EAE37302340593DFF8D7
:10328000D4A0217803225046FCF792FF38B1049B6A
:10329000A0EB0A004022824013430134049314F847
:1032A000011B29488DF828100622FCF781FF002811
:1032B0003FD0264B1BBB039B073323F00703083388
:1032C0000393099B3B4409936AE70CFB02320C46CB
:1032D0000120A8E700230134059319464FF00A0C9A
:1032E000204610F8012B303A092A03D9002BC6D00A
:1032F0000591C4E70CFB012104460123F0E703AB71
:1033000000932A46124B04A93046FDF727FD0746D5
:10331000781CD6D16B6ED90705D4AB899A0502D437
:10332000A86DFEF765FAAB895B063FF51FAF0998FC
:103330001EE703AB00932A46054B04A93046FDF770
:10334000ADFFE4E7BF3B0008C93B00085D0D000886
:1033500005310008C53B0008F8B50E461446054681
:1033600018B1036A0BB9FEF751F9A369A360A389E9
:103370001A0701D5236943B92146284600F02AF8E7
:1033800018B14FF0FF373846F8BD23682269981A04
:103390006369F6B28342374605DC21462846FFF7CB
:1033A000E9FD0028EDD1A368013BA36023685A1C06
:1033B00022601E706269431C9A4204D0A389DB0715
:1033C000E1D50A2EDFD121462846FFF7D3FD00289C
:1033D000D9D0D6E738B5294B054618680C4618B140
:1033E000036A0BB9FEF712F9B4F90C30190722D4AD
:1033F000DA0607D409222A6043F04003A3814FF084
:10340000FF3033E0580712D5616B41B104F144033A
:10341000994202D02846FFF7A3F800236363A389EB
:1034200023F02403A3810023636023692360A3891D
:1034300043F00803A38123694BB9A38903F42073E4
:10344000B3F5007F03D02146284600F083F8B4F995
:103450000C3013F001020AD00022A26062695242CD
:10346000A261226942B913F08000C5D138BD990725
:1034700058BF6269A260F4E70020F7E70C00002063
:103480001F2938B505460C4604D9162303604FF0B2
:10349000FF3038BDC26B12B152F821304BB928460B
:1034A00000F030F8224601462846BDE8384000F0DA
:1034B00017B8012B0AD0591C03D116230360012031
:1034C000E7E7002142F82410204698470020E0E773
:1034D000024B01461868FFF7D3BF00BF0C00002065
:1034E00038B5074D00230446084611462B6000F00E
:1034F00015F9431C02D12B6803B1236038BD00BF0E
:103500002003002000F008B970B50C46B1F90E1088
:10351000002996B015461E460DDAA38913F0800FD8
:103520004FF0000114BF40234FF48063002031604E
:103530002B6016B070BD6A4600F048F80028ECDB3E
:10354000019901F47041A1F50053594259414FF4DA
:103550008063EBE78B89F7B59D0706460C4607D5D8
:1035600004F14703236023610123636103B0F0BDCD
:1035700001AB6A46FFF7C8FF009F05463946304653
:10358000FFF762F848B9B4F90C309A05EED423F08D
:10359000030343F00203A381E2E7A389206043F021
:1035A0008003A381019BC4E904075BB1B4F90E1049
:1035B000304600F01DF828B1A38923F0030343F03F
:1035C0000103A381A3891D43A581CFE738B5074D2A
:1035D00000230446084611462B6000F0CEF8431C39
:1035E00002D12B6803B1236038BD00BF2003002047
:1035F00038B5064D0023044608462B6000F0C2F89B
:10360000431C02D12B6803B1236038BD2003002086
:103610004FF06043D3F8803E13F0010F11D04FF00C
:103620006043D3F8003E13F0010F01D1704700BF93
:103630004FF060431B68002BF9D0C3B24FF06042DB
:103640001370704710B5214B1A6B42F008021A63D1
:103650001A6B42F001021A63A3F530531A6822F084
:1036600040721A601A6842F080721A605A6822F436
:1036700080525A609A6822F040729A60A3F54063C3
:103680001A6822F003021A60DA6822F00302DA6094
:103690004FF0E02343F67F625A610D4AF02182F831
:1036A000231000229A6107221A6100F023F80446D1
:1036B00000F020F8031B312BFAD900F01BF8044668
:1036C000044A536983F480535361F1E700380240A0
:1036D00000ED00E0000C024010B50446FFF798FF33
:1036E000204610BD024A136803441360704700BFB0
:1036F00030030020014B1868704700BF30030020E2
:1037000008B54FF0E0231B6913F4803F00D108BDDA
:103710000120FFF7E7FFFAE70120704708B500F046
:103720008DF8162303604FF0FF3008BD08B54FF049
:10373000FF31FFF7F3FFFEE770B50C461646002594
:1037400006E0AFF30080214601F8010B01350C467D
:10375000B542F6DB304670BD70B50C461646002506
:1037600004E014F8010BFFF7B7FF0135B542F8DBB1
:10377000304670BD4FF0FF3070474FF400534B6040
:1037800000207047012070470020704710B50346A5
:103790000C4A0D490D48006840B10C4800680344CC
:1037A000521A934206D8094A136010BD0748084CC4
:1037B0000460F2E700F042F80C2303604FF0FF30A2
:1037C000F3E700BF000002200004000034030020E3
:1037D00038030020034AD2F8883043F47003C2F85B
:1037E0008830704700ED00E00D488546FFF7F2FF96
:1037F0000C480D490D4A002302E0D458C45004334C
:10380000C4188C42F9D30A4A0A4C002301E0136021
:103810000432A242FBD3FDF7C5FFFFF713FFFEE71B
:103820000000022000000020C8010020E03B00084A
:10383000C801002038030020FEE70000014B186893
:10384000704700BF0C000020F8B500BFF8BC08BCF2
:103850009E467047F8B500BFF8BC08BC9E4670474E
:10386000494E4600696E66004E414E006E616E0024
:103870003000303132333435363738394142434401
:10388000454600303132333435363738396162637A
:1038900064656600496E66696E697479004E614EB2
:1038A000005245454E54206D616C6C6F63207375FA
:1038B00063636565646564002F646174612F6A6584
:1038C0006E6B696E732F776F726B73706163652FA8
:1038D000474E552D746F6F6C636861696E2F61720E
:1038E0006D2D31322F7372632F6E65776C69622D87
:1038F00063796777696E2F6E65776C69622F6C6983
:1039000062632F7374646C69622F64746F612E63D9
:103910000042616C6C6F63207375636365656465F9
:1039200064002F646174612F6A656E6B696E732F1A
:10393000776F726B73706163652F474E552D746F8F
:103940006F6C636861696E2F61726D2D31322F73F8
:1039500072632F6E65776C69622D63796777696E24
:103960002F6E65776C69622F6C6962632F73746464
:103970006C69622F6D707265632E63000500000034
:10398000190000007D0000000080E03779C341434A
:10399000176E05B5B5B89346F5F93FE9034F384DB5
:1039A000321D30F94877825A3CBF737FDD4F157561
:1039B000000000000000F03F000000000000244074
:1039C00000000000000059400000000000408F404F
:1039D000000000000088C34000000000006AF840BA
:1039E0000000000080842E4100000000D0126341DE
:1039F0000000000084D797410000000065CDCD4154
:103A0000000000205FA00242000000E87648374234
:103A1000000000A2941A6D42000040E59C30A242D2
:103A20000000901EC4BCD64200003426F56B0C4347
:103A30000080E03779C3414300A0D88557347643EE
:103A400000C84E676DC1AB43003D9160E458E1434F
:103A5000408CB5781DAF154450EFE2D6E41A4B44C4
:103A600092D54D06CFF08044F64AE1C7022DB54409
:103A7000B49DD9794378EA444300504F53495800E4
:103A80002E002C2066756E6374696F6E3A2000619B
:103A90007373657274696F6E2022257322206661CC
:103AA000696C65643A2066696C6520222573222C56
:103AB000206C696E65202564257325730A0000203B
:103AC00020202020202020202828282828202020CE
:103AD000202020202020202020202020202020887E
:103AE00010101010101010101010101010101004E2
:103AF0000404040404040404041010101010101032
:103B00004141414141410101010101010101010125
:103B1000010101010101010101011010101010103B
:103B200042424242424202020202020202020202F5
:103B30000202020202020202020210101010200011
:103B40000000000000000000000000000000000075
:103B50000000000000000000000000000000000065
:103B60000000000000000000000000000000000055
:103B70000000000000000000000000000000000045
:103B80000000000000000000000000000000000035
:103B90000000000000000000000000000000000025
:103BA0000000000000000000000000000000000015
:103BB00000000000000000000000000000000023E2
:103BC0002D302B2000686C4C006566674546470029
:083BD000E0C5FF7F01000000C9
:043BD800F10B0008E5
:043BDC00C90B000809
:103BE0000000000003000000E4010020100000209D
:103BF00000000000E40100204C020020B40200207C
:103C000000000000000000000000000000000000B4
:103C100000000000000000000000000000000000A4
:103C20000000000000000000000000000000000094
:103C30000000000000000000000000004300000041
:103C40000000000000000000000000000000000074
:103C50000000000000000000000000004300000021
:103C60000000000000000000000000000000000054
:103C70000000000000000000000000004300000001
:103C80000000000000000000000000000000000034
:103C900000000000000000000000000043000000E1
:103CA0000000000000000000000000000000000014
:103CB00000000000000000000000000043000000C1
:103CC00000000000000000000000000000000000F4
:103CD00000000000000000000000000043000000A1
:103CE00000000000000000000000000000000000D4
:103CF0000000000000000000000000004300000081
:103D000000000000000000000000000000000000B3
:103D100000000000000000000000000089300008E2
:103D20006530000800000000BE3A0008803A000834
:103D3000BD3A0008BD3A0008BD3A0008BD3A000887
:103D4000BD3A0008BD3A0008BD3A0008BD3A000877
:103D5000BD3A0008FFFFFFFFFFFFFFFFFFFFFFFF70
:103D6000FFFF0000010041534349490000000000EB
:103D70000000000000000000000000000000000043
:103D800000000000000041534349490000000000CA
:103D90000000000000000000000000000000000023
:083DA00000000000000000001B
:04000005080037E9CF
:00000001FF
