:020000040800F2
:1000000000000220452D0008952D0008952D0008C0
:10001000952D0008952D0008952D00080000000082
:10002000000000000000000000000000952D000806
:10003000952D000800000000952D0008952D000862
:10004000952D0008952D0008952D0008952D000888
:1000500000000000952D0008952D0008952D000842
:10006000952D0008952D0008952D0008952D000868
:10007000952D0008952D0008952D0008952D000858
:10008000952D0008952D0008952D0008952D000848
:10009000952D0008952D0008952D0008952D000838
:1000A000952D0008952D0008952D0008952D000828
:1000B000952D0008952D0008952D0008952D000818
:1000C000952D0008952D0008952D0008952D000808
:1000D000952D0008952D0008952D0008952D0008F8
:1000E000952D0008952D0008952D0008952D0008E8
:1000F000952D0008952D0008952D0008952D0008D8
:10010000952D0008952D0008952D0008952D0008C7
:10011000952D0008952D0008952D0008952D0008B7
:10012000952D0008952D0008952D0008952D0008A7
:10013000952D0008952D0008952D0008952D000897
:10014000952D0008952D0008952D0008952D000887
:10015000952D0008952D0008952D0008952D000877
:10016000952D0008952D0008952D0008952D000867
:10017000952D0008952D0008952D0008952D000857
:10018000952D0008952D00080000000000000000DB
:10019000000000000000000000000000000000005F
:0801A000952D0008952D0008C3
:1001B00001F0FF01102A2BDB10F0070F08D010F818
:1001C000013B013A8B422DD010F0070F42B3F6D11C
:1001D000F0B441EA012141EA014122F007047FF035
:1001E00000070023F0E80256083C85EA010586EA8C
:1001F000010685FA47F5A3FA87F586FA47F6A5FAC8
:1002000087F68EB9EED1F0BC01F0FF0102F00702D3
:1002100032B110F8013B013A83EA010313B1F8D17E
:100220000020704701387047002D06BF354603385F
:10023000073815F0010F07D1013015F4807F02BF98
:10024000013015F4C03F0130F0BC0138704700BFE9
:10025000034613F8012B002AFBD1181A0138704706
:100260000348044B834202D0034B03B11847704745
:10027000CC010020CC010020000000000548064B06
:100280001B1AD90F01EBA301491002D0034B03B194
:1002900018477047CC010020CC010020000000006E
:1002A00010B5064C237843B9FFF7DAFF044B13B1BE
:1002B0000448AFF300800123237010BDCC0100205F
:1002C00000000000A42D000808B5054B1BB105492E
:1002D0000548AFF30080BDE80840FFF7CFBF00BF7F
:1002E00000000000D0010020A42D00082DE9F041FD
:1002F0002DED028BB0EE408B84B0DDE90C68154625
:1003000018EE902A28F02007002AB6BF2D220022DE
:10031000B1EE408B462F0C461A7004D0452F00D109
:100320000134022100E0032103AB019302AB0093EF
:1003300022463346B0EE480B00F036FEB8F1670FA8
:1003400015D1EB070AD50219B5EE408BF1EE10FA84
:1003500008BF03923021039B93421DD3039B0E9A47
:100360001B1A136004B0BDEC028BBDE8F081B8F13C
:10037000470FE6D0462F00EB0402E5D10378302B7F
:1003800007D1B5EE408BF1EE10FA1CBFC4F10104A9
:10039000346033681A44D7E75C1C03941970DAE7B9
:1003A000F7B50029BABF49422D232B230929027032
:1003B000437029DD0DF107031D460A271A46B1FBDC
:1003C000F7F607FB1614303402F8014C0C46632C88
:1003D00003F1FF333146F1DC3031941E03F8011C88
:1003E000411C2346AB420AD30DF109039B1AAC42D0
:1003F00088BF002302330344181A03B0F0BD13F87A
:10040000016B01F8016FEDE7302330318370C1706B
:10041000031DF1E7000000002DE9F04F8DB00C4600
:10042000DDF8588016461F46054600F0C3FCD0F89C
:1004300000B05846FFF70CFF00230A93D8F80030AD
:1004400094F8189022680590073323F0070303F10E
:100450000801C8F8001093ED000B9FED9D6BB0EE06
:10046000C07BB4EE467BF1EE10FA84ED120B24DD76
:10047000B5EEC00BF1EE10FA02D52D2384F843300F
:100480009549964BB9F1470F94BF8846984622F09C
:1004900004020323236122604FF0000A00973346D1
:1004A0000BAA2146284600F0DDF9013040F0938088
:1004B0004FF0FF300DB0BDE8F08FB4EE400BF1EE21
:1004C00010FA09D710EE903A002BBCBF2D2384F808
:1004D00043308349834BD5E76368591C24D10623F5
:1004E000636042F480620023226003930AABCDE98B
:1004F000019309AB009361680DF123032846FFF7D0
:10050000F5FEB9F1670F0999804615D1CB1C3BDB8D
:100510006368994238DC0A9B994255DB2368216164
:10052000D80745D54B1C42E009F0DF014729D8D157
:10053000002BD6D10123D3E7B9F1470F07D1C81C4F
:1005400025DB63688B4222DB4FF06709E3E7B9F1F3
:10055000650F1FD801394A4604F150000991FFF791
:100560001FFF0A9A1318012A8246236102DC2268BF
:10057000D20701D5013323619DF82330002B8DD0A4
:100580002D2384F8433089E74FF06509E2E74FF007
:100590004509DFE7B9F1660FBDD1002963680BDDBE
:1005A000216113B92268D00702D501330B442361BE
:1005B000A1654FF0000ADFE713B92268D20701D521
:1005C0000233F4E70123F2E70029D4BFC1F10202AC
:1005D00001221344EBE723685A0507D423694246F6
:1005E00031462846B84701302AD161E7B9F1650F95
:1005F00040F2E28094ED127BB5EE407BF1EE10FA12
:1006000033D1394A012331462846B84701303FF4F7
:100610004FAFDDE90938434502DB2368D8070FD522
:10062000059B5A4631462846B84701303FF440AF53
:100630004FF0000908F1FF3804F11A0AC84509DC37
:1006400023689B0700F10981E0680B9B9842B8BFC3
:1006500018462FE70123524631462846B847013055
:100660003FF426AF09F10109E8E7099B002B3DDCC7
:100670001D4A012331462846B84701303FF418AFE0
:10068000DDE9093959EA030302D12368D907D7D52F
:10069000059B5A4631462846B84701303FF408AF1B
:1006A0004FF0000A04F11A0B099B5B42534501DC31
:1006B0004B4694E701235A4631462846B847013055
:1006C0003FF4F6AE0AF1010AEEE700BFAFF3008097
:1006D000FFFFFFFFFFFFEF7FC02D0008C42D0008C4
:1006E000C82D0008CC2D0008D02D0008A36DDDF822
:1006F00028A05345A8BF5346002B994637DC00235A
:10070000079329EAE97904F11A02A36D0799069380
:10071000A3EB09038B4231DC099B9A453BDC236840
:10072000DA0738D4099BAAEB0309069BAAEB03035B
:100730009945A8BF9946B9F1000F34DC4FF0000885
:1007400029EAE97904F11A0B099BAAEB0303A3EB4D
:10075000090343457FF774AF01235A4631462846C3
:10076000B84701303FF4A4AE08F10108ECE7424677
:1007700031462846B8470130C1D199E601233146B8
:1007800028460692B84701303FF492AE079B069A7E
:1007900001330793B9E7059B5A4631462846B847C7
:1007A0000130BFD184E6069A4B4642443146284682
:1007B000B8470130C2D17BE6DDF82890B9F1010FCE
:1007C00001DCDB0736D50123424631462846B847CF
:1007D00001303FF46DAE059B5A4631462846B84776
:1007E00001303FF465AE94ED127BB5EE407BF1EE47
:1007F00010FA09F1FF3918D04B4608F101023146D1
:100800002846B84701300CD152E601235A463146FA
:100810002846B84701303FF44BAE08F10108C845FF
:10082000F3DB534604F15002DAE64FF0000804F11E
:100830001A0BF4E701234246E1E701234A46314619
:100840002846B84701303FF433AE08F10108E368A9
:100850000B995B1A4345F0DCF6E64FF0000804F113
:100860001909F4E72DE9F047164698468A680B699E
:10087000DDF820909342B8BF1346336091F84320CF
:1008800007460C460AB1013333602368990642BF1C
:10089000336802333360256815F0060506D104F18C
:1008A000190AE36832689B1AAB4226DC94F843309D
:1008B0002268003B18BF012392062BD404F14302A7
:1008C00041463846C84701301ED02368226903F0EC
:1008D0000603042B02BFE5683368ED1AA3680CBF5A
:1008E00025EAE57500259342C4BF9B1AED18002642
:1008F0001A34B5421AD1002008E00123524641467D
:100900003846C847013003D14FF0FF30BDE8F087CB
:100910000135C6E7E1185A1C302081F84300224413
:1009200094F8451082F843100233C7E701232246AA
:1009300041463846C8470130E6D00136D9E70000C5
:100940002DE9FF470F7E0C9E782F914680460C467E
:100950009A4601F1430207D8622F0AD8002F00F00F
:10096000DD80582F00F0C38004F1420684F8427005
:100970003AE0A7F16303152BF6D801A151F823F053
:10098000D9090008ED09000869090008690900088B
:100990006909000869090008ED09000869090008EB
:1009A000690900086909000869090008030B0008C3
:1009B0007B0A0008BB0A00086909000869090008E9
:1009C000250B0008690900087B0A0008690900086E
:1009D00069090008C30A000833681A1D1B683260E1
:1009E00004F1420684F842300123A8E0316823680C
:1009F000081D30601E0601D50D6803E05D06FBD5BD
:100A0000B1F900506168002D78DA2D20002984F8B2
:100A10004300A1602DDA5E486D420A231646B5FBFD
:100A2000F3F103FB1157C75D06F8017D2F46BB426A
:100A30000D46F4D9082B0BD12368DF0708D52369AD
:100A400061689942DEBF302306F8013C06F1FF36AB
:100A5000921B2261CDF800A04B4603AA21464046D6
:100A6000FFF700FF01306FD14FF0FF3004B0BDE859
:100A7000F08723F004032360CDE72168336808067C
:100A800053F8045B02D4490648BFADB26F2F40480B
:100A9000336014BF0A230823002184F843106668DA
:100AA000A660002EBADB216821F004012160002D30
:100AB000B4D1002EB2D11646BCE7236843F0200320
:100AC00023603448782784F84570236831681F060E
:100AD00051F8045B02D45F0648BFADB23160D9075C
:100AE00044BF43F0200323601DB11023D4E72848FE
:100AF000E9E7236823F020032360F6E724480A236C
:100B0000CDE7336825686169181D30602E061B68C3
:100B100001D5196002E06806FBD519800023236126
:100B2000164697E733681A1D32601E686268002116
:100B30003046FFF73DFB08B1801B606063682361AE
:100B4000002384F8433085E723693246494640460E
:100B5000D047013088D023689B0714D4E068039BFA
:100B60009842B8BF184681E70123324649464046BD
:100B7000D04701303FF478AF0135E36803995B1A41
:100B8000AB42F1DCEAE7002504F11906F5E700BF06
:100B9000D22D0008E32D0008002310B50446C0E95B
:100BA0000033C0E90433836081814366C28183617D
:100BB000194608225C3000F0F4F80D4B63620D4BCF
:100BC000A3620D4BE3620D4B23630D4B24629C42E9
:100BD00006D003F16802944202D0D0339C4205D182
:100BE00004F15800BDE8104000F052B910BD00BF3C
:100BF0001D0D00083F0D0008770D00089B0D000833
:100C0000E8010020024A0349034800F069B800BF28
:100C100000000020D52400081000002041680C4B83
:100C2000994210B5044601D001F054FCA168094B6B
:100C3000994202D0204601F04DFCE168064B9942F2
:100C400004D02046BDE8104001F044BC10BD00BFF8
:100C5000E801002050020020B802002010B50B4B24
:100C60000B4C0C4A1A60204600220421FFF794FF27
:100C700004F1680001220921FFF78EFF04F1D00082
:100C80000222BDE810401221FFF786BF200300209A
:100C9000E8010020050C0008014800F0FAB800BF88
:100CA00029030020014800F0F5B800BF2903002007
:100CB00010B50446FFF7F0FF236A1BB1BDE81040F2
:100CC000FFF7F0BF044B2362044B1B68002BF5D1E8
:100CD000FFF7C4FFF2E700BF1D0C0008200300204F
:100CE0002DE9F8430746884614460026D4E90195C5
:100CF000B9F1010905D52468002CF7D13046BDE8CB
:100D0000F883AB89012B07D9B5F90E30013303D035
:100D100029463846C04706436835E9E710B50C4612
:100D2000B1F90E1000F06CF80028ABBF636DA38919
:100D30001B1823F48053ACBF6365A38110BD2DE95C
:100D4000F0411F468B89DB0505460C46164605D546
:100D5000B1F90E100223002200F040F8A389B4F983
:100D60000E1023F48053A38132463B462846BDE84B
:100D7000F04100F057B810B50C46B1F90E1000F074
:100D80002DF8431CA38915BF606523F4805343F4F9
:100D90008053A38118BFA38110BDB1F90E1000F0DC
:100DA0000DB802440346934200D1704703F8011B7B
:100DB000F9E70000004870474C01002038B5064DA7
:100DC0000023044608462B6001F082FF431C02D139
:100DD0002B6803B1236038BD2403002038B5074DCC
:100DE00004460846114600222A601A4601F07AFF9E
:100DF000431C02D12B6803B1236038BD24030020BB
:100E000038B5074D04460846114600222A601A46A6
:100E100001F040FF431C02D12B6803B1236038BDB1
:100E20002403002038B5074D044608461146002229
:100E30002A601A4601F03EFF431C02D12B6803B121
:100E4000236038BD2403002070B50D4D0D4C641B8C
:100E5000A4100026A64209D10B4D0C4C01F0A2FFB4
:100E6000641BA4100026A64205D170BD55F8043BB2
:100E700098470136EEE755F8043B98470136F2E70C
:100E80003831000838310008383100083C3100089A
:100E90007047704770472DE9F74F03690C69A3420B
:100EA00007467EDB013C01F11408A30000F11405A4
:100EB000009305EB8403019358F8243055F824205F
:100EC00001339A4208EB8409B2FBF3F62ED34FF0BC
:100ED000000AC446AE46D3465CF8043B98B206FB13
:100EE00000A0020C1B0C06FB0323DEF8002080B2DE
:100EF00092B2121A5A44DEF800004FEA134A9BB22B
:100F0000C3EB224303EB104392B242EA0342E145B2
:100F10004EF8042B4FEA234BDED2009BEB582BB943
:100F2000019B043B9D421A462FD33C61384601F099
:100F300045F9002825DB2946002058F8042BD1F874
:100F400000C01FFA82FE1FFA8CF3A3EB0E030344CA
:100F5000120CC2EB234202EB1C429BB243EA024357
:100F6000C14541F8043B4FEA2240E6D255F824201F
:100F700005EB840322B9043B9D421A460BD33C6126
:100F80000136304603B0BDE8F08F1268043B002AFA
:100F9000CBD1013CC6E71268043B002AEFD1013CEB
:100FA000EAE70020EEE700002DE9F04F2DED028B7F
:100FB000C76991B0CDE907128DED020B55EC104BCE
:100FC0001C9E0C9382467FB9102000F0C3FD0246A0
:100FD000CAF81C0020B9A24BEF21A24801F0C0FAC8
:100FE000C0E901770760C760DAF81C30196859B1A9
:100FF0005A684A60012393408B60504600F0A0FE7F
:10100000DAF81C3000221A602B1EBBBF23F000430D
:10101000039300230122ACBF33603260924B039EE6
:10102000B34310D10C9A42F20F731360C6F313034B
:10103000234300F035851D9B8C4E002B00F0378537
:10104000F31C00F032BD9DED028BB5EE408BF1EE4E
:1010500010FA0AD10C9A012313601D9B13B11D9A3B
:10106000834B1360834E00F022BD0EAA0FA9504699
:10107000B0EE480B01F052F9C6F30A530E9A0190F4
:10108000002B46D0B0EE487B18EE901AC1F3130146
:1010900041F07F5141F44011A3F2FF33002007EEED
:1010A000901AB7EE086B9FED685B37EE467B9FEDBD
:1010B000686BA7EE056B9FED685B07EE903AB8EEA4
:1010C000E74BB0EE467BA4EE057BFDEEC76BB5EEBD
:1010D000C07BF1EE10FA16EE909A049008D5B8EEA7
:1010E000E66BB4EE476BF1EE10FA18BF09F1FF3969
:1010F000B9F1160F2BD8604901EBC90191ED007BC6
:10110000B4EEC78BF1EE10FA01D509F1FF390021D9
:101110001EE00F9B134403F232412029C1BFC1F1ED
:1011200040018E4003F2124124FA01F1D6BFC1F111
:101130002001314304FA01F107EE901AB8EE677B03
:10114000013B17EE901A0120A1F1F871A7E70121E8
:10115000D21A531E069345BFC2F101030593002323
:1011600000234CBF06930593B9F1000F0B9118DBD8
:10117000069BCDF828904B4406930023079A092A32
:1011800049D8052AC4BF043A0792079AA2F102027D
:10119000CCBF00240124032A48D8DFE802F00B2E3C
:1011A0002C3A059B0022A3EB090305930A92C9F18F
:1011B0000003E3E700220992089A002A39DC4FF085
:1011C0000108C3464246CDF82080DAF81C500021C1
:1011D000042000F11406964230D9696050460D9300
:1011E00000F06EFD0D9B0646002849D1234B0246B8
:1011F00040F2AF11F1E60122DDE700220992089AE0
:1012000009EB020808F1010B5A46012AB8BF012276
:10121000DBE70122F2E701240022079209944FF054
:10122000FF380021C34612220891CEE7012209921D
:10123000F5E7DDF82080C3464246C6E701314000AD
:10124000C7E700BFAFF3008061436F63A787D23F5A
:10125000B3C8608B288AC63FFB799F501344D33FA5
:10126000012E0008182E00080000F07FFD2D000858
:10127000D12D0008D02D0008102F0008712E000875
:10128000DAF81C20BBF10E0F10603ED8002C3CD0C9
:10129000B9F1000F40F30B81BE4A09F00F0102EBD8
:1012A000C10219F4807F92ED007B4FEA291100F012
:1012B000F280B94A92ED086B88EE066B8DED026BF9
:1012C00001F00F010322B448002940F0E6809DEDB3
:1012D000026B86EE077B8DED027B0B999DED027B09
:1012E000002900F05D81B7EE006BB4EEC67BF1EE35
:1012F00010FA40F15581BBF1000F00F05181B8F1B7
:10130000000F00F3FA808DED028B0F9A002A03DBA9
:10131000B9F10E0F40F3F5810999002940F01682CA
:101320000022059D04921C4665B1069A002A09DD3B
:10133000AA420599A8BF2A46891A05910699AD1AAD
:101340008A1A06920BB3099A002A00F04F82002CE9
:1013500000F04A8204990D932246504600F068FE40
:10136000019A04900146504600F0B8FD01990746E5
:10137000504600F0E5FC0D9B1B1B00F03A821A461C
:101380003946504600F054FE01900121504600F0CD
:101390008FFD0A9B0446002B00F02D821A46014661
:1013A000504600F045FE079B012B044603DC029BE0
:1013B000002B00F025820027236904EB83031869C2
:1013C00000F026FD0A97C0F12000069B184410F09B
:1013D0001F0000F03A82C0F12003042B40F32A8260
:1013E000059BC0F11C0003440593069B0344054480
:1013F0000693059B002B05DD01991A46504600F027
:1014000071FE0190069B002B05DD21461A465046D1
:1014100000F068FE04460B9B002B00F0218201982F
:10142000214600F0CBFE002880F21A8200230199A9
:101430000A22504600F0A6FC099B019009F1FF37F3
:10144000002B00F00482049900230A22504600F089
:1014500099FCB8F1000F049003DC079B022B00F30A
:101460000782002D05DD04992A46504600F03AFE19
:1014700004900A9B002B00F07682049B504659682A
:1014800000F01EFC0546002840F02582434B024632
:1014900040F2EF21A1E5022215E7CF0704D590ED38
:1014A000006B013227EE067B491008300CE722D092
:1014B000C9F10001374A01F00F0002EBC00292EDC2
:1014C000007B28EE077B8DED027B33480911002459
:1014D000022229B9002C3FF400AF8DED027BFCE61F
:1014E000CD0705D590ED006B0132012427EE067B78
:1014F00049100830EDE70222EFE6B2EE046B27EE6A
:10150000067B8DED027B09F1FF37013244469DEDEC
:10151000026BB1EE0C5B07EE902AB8EEE77BA7EE0C
:10152000065B15EE902A51EC150BA2F15071002CC0
:1015300039D1B1EE047B36EE476B41EC170BB4EEBC
:10154000C76BF1EE10FA00F3F780B1EE477BB4EE13
:10155000C76BF1EE10FA7FF5D6AE00240494089B19
:101560003546DF434FF000082146504600F0E8FBC7
:10157000049B002B76D0B8F1000F05D0984503D01E
:101580004146504600F0DCFB0499504600F0D8FB81
:1015900068E000BF102F0008E82E0008712E000838
:1015A0004F465C46B3E7AD4A02EBC40212ED024B74
:1015B000099A41EC170B344452B3B6EE003BB7EE38
:1015C000002B354683EE045BB2EE043B35EE477BE1
:1015D000FDEEC64B14EE902AB8EEE45B303236EEE8
:1015E000456BB4EEC67BF1EE10FA05F8012B39DC41
:1015F00032EE465BB4EEC57BF1EE10FA00F3BE802E
:10160000A54200F09B8027EE037B26EE036BDFE70D
:101610002146354624EE075BB2EE043BFDEEC64B99
:1016200014EE902A303205F8012BA542B8EEE47B87
:1016300036EE477B18D1B6EE006B35EE064BB4EEB6
:10164000C47BF1EE10FA00F3998036EE456BB4EEF0
:10165000C67BF1EE10FA0AD50D46013915F8013CAA
:10166000302BF9D0B9463CE027EE036BD6E70F9A52
:10167000002A8DED028BFFF653AEB9F10E0F3FF746
:101680004FAE764B03EBC90393ED006B089B002B29
:1016900002DABBF1000F41D09DED027BB2EE044BAC
:1016A000354687EE065BBDEEC55B15EE103A30336E
:1016B00005F8013BAB1B9B45B8EEC53BA3EE467B53
:1016C0006BD137EE077BB4EEC67BF1EE10FA54DC3B
:1016D000B4EE467BF1EE10FA03D115EE103ADB07BB
:1016E0004BD40199504600F02BFB00230C9A2B7031
:1016F00009F1010313601D9B002B00F0D8811D60D0
:10170000D5E1564B03EBC90393ED006B089B002B0F
:10171000C2DABBF1000FBFDC7FF41FAFB1EE047B78
:1017200026EE076B9DED027BB4EEC76BF1EE10FA6F
:10173000BFF613AF4F4600240494ABE00F9A002A83
:101740008DED028B02DBB9F10E0FDADD079901296D
:1017500030DC049951B302F23342059D1C460D93CF
:10176000059B13440593069B0121134450460693A1
:1017700000F09EFB0D9B0490D6E54F462B461D4680
:1017800013F8012D392A04D19E42F8D130220137B5
:1017900032701A7801321A7064E727EE047BB5EED6
:1017A000407BF1EE10FA7FF47CAF9AE70E9AC2F11B
:1017B0003602D2E70BF1FF34A34207DBBBF1000F87
:1017C000A3EB04040BDB059D5A46C8E70A9A059D66
:1017D000E31A1A440A9223465A460024BFE7059AA0
:1017E000A2EB0B050022BAE7019FC8E501991A4652
:1017F000C7E50197C9E5079B012B17DC029BABB935
:10180000039BC3F313039BB9039B23F000473F0DD6
:101810003F0537B1059B01330593069B01330693C2
:1018200001270A9B002B7FF4C7AD0A970120CCE566
:101830000027F6E73FF4DDAD059A1C331A44059204
:10184000069A1A441D440692D3E50346F4E7B8F11C
:10185000000F2BDC079B022B0ADC27E0102F00086F
:10186000BBF1000F1CDC079B022B19DDD8464F464D
:10187000B8F1000F7FF473AE21464346052250466F
:1018800000F080FA01460446019800F097FC002819
:101890007FF765AE3546312305F8013B013761E638
:1018A000099B4F46D846002B7FF4DBAD35460198A7
:1018B0002146FFF7F0FA00F1300905F8019BAB1B58
:1018C000984540F3C980019900230A22504600F050
:1018D00059FA0190EBE7049B1A690232920003F176
:1018E0000C010C3000F02EFE01222946504600F07B
:1018F000F9FB06EB08030893029BDDF810800490C7
:1019000003F00103751C09936B1E21460198059392
:10191000FFF7C1FA4146069000F13009019800F046
:101920004DFC049A21468346504600F063FCC26891
:101930000146D2B1504600F003FABBF1000F34DA91
:1019400001990122504600F0CDFB2146019000F0A4
:1019500035FC002803DC24D119F0010F21D0B9F1A6
:10196000390F17D12DE00498C3E70B90019800F0D0
:1019700025FC0B990A90504600F0E2F90A9A82BBC6
:10198000079B5BB9099B4BB9B9F1390F19D0BBF172
:10199000000F06DD069B03F1310902E0BBF1000FE9
:1019A0002FDA059D05F8019BDEE5079B53EA0B0343
:1019B00004D1029B03F00103002BC1D0B9F1390F10
:1019C0003BD1DDF814B039230BF8013B5D460BF138
:1019D000FF3B15F8013C392B5CD001338BF800300C
:1019E000C2E5BBF1000F07DB079B53EA0B0306D1EF
:1019F000029B03F0010313B9002AA1DCD1E7002AFE
:101A0000DCDC089B05F8019CAB42AB462DD001996C
:101A100000230A22504600F0B5F9049B0190984536
:101A20004FF00A024FF000034146504609D100F042
:101A3000A9F980460490013566E7059D09F1010981
:101A4000B0E700F09FF90499804600230A2250462F
:101A500000F098F90490EEE7B8F1000FD8BF4FF00E
:101A6000010806EB080B4FF00008019901225046CF
:101A700000F038FB2146019000F0A0FB0028A5DC17
:101A800002D119F0010FA1D15D461BF8013D302BA9
:101A9000FAD069E55E4599D131230137337063E5AA
:101AA0001D9B064E1BB106F108031D9A13603046BC
:101AB00011B0BDEC028BBDE8F08F00BFF42D000823
:101AC00038B50546002941D051F8043C0C1F002BC5
:101AD000B8BFE41800F0E8F81D4A136833B9636032
:101AE00014602846BDE8384000F0E4B8A34208D9A5
:101AF000206821188B4201BF19685B6809182160B2
:101B0000EDE71A465B680BB1A342FAD91168501889
:101B1000A0420BD120680144501883421160E0D1EB
:101B200018685B68536008441060DAE702D90C2338
:101B30002B60D6E7206821188B4204BF19685B68C8
:101B4000636004BF091821605460CAE738BD00BF54
:101B500030030020024B0146186800F025B800BF92
:101B60000C00002070B50F4E0C463168054611B9C7
:101B700000F0D8FC30602146284600F0D3FC431C1E
:101B800003D14FF0FF34204670BDC41C24F0030481
:101B9000A042F8D0211A284600F0C4FC0130F2D14E
:101BA000EFE700BF2C0300202DE9F843CD1C25F002
:101BB000030508350C2D38BF0C25002D064601DB2A
:101BC000A94204D90C2333600020BDE8F883DFF874
:101BD000D48000F069F8D8F800301C4644BB294690
:101BE0003046FFF7BFFF431C044658D1D8F80040E9
:101BF0002746002F43D1002C4BD02368394630466E
:101C000004EB030900F08EFC814542D121686D1A76
:101C100029463046FFF7A6FF01303AD023682B440F
:101C20002360D8F800305A6862BBC8F800700FE033
:101C30002268521B20D40B2A17D96119A3422560B0
:101C400018BF5960636808BFC8F8001062514B6044
:101C5000304600F02FF804F10B00231D20F00700A0
:101C6000C21A1CBF1B1AA350AFE76268A3420CBF85
:101C7000C8F800205A60EBE723466468AEE73C46AC
:101C80007F68B6E71A465B68A342FBD10023536026
:101C9000DEE70C233360304600F00CF894E7056073
:101CA000D6E700BF300300200148FFF7F2B800BFBD
:101CB000280300200148FFF7EDB800BF28030020EB
:101CC00070B5C66904460D4676B91020FFF742FF8D
:101CD0000246E06120B9184B18486B2100F040FC27
:101CE000C0E901660660C660E669F36883B1E3692E
:101CF000DB6853F82500B8B9012101FA05F6721D19
:101D00009200204600F04AFC60B1C0E901560EE0A6
:101D100021220421204600F041FCE369F060DB68E9
:101D2000002BE4D1002070BD026843F82520002379
:101D3000C0E90333F7E700BF012E0008822E000838
:101D400070B5C66905460C4676B91020FFF702FF4C
:101D50000246E86120B9094B09488F2100F000FCD8
:101D6000C0E901660660C6603CB1EB696268DB6889
:101D700053F82210216043F8224070BD012E000864
:101D8000822E00082DE9F0410D6907460C461E46DB
:101D900001F1140C0020DCF8003099B202FB016163
:101DA0001E0C0B0C02FB063389B2013001EB034120
:101DB00085424CF8041B4FEA1346ECDC0EB3A368D3
:101DC000AB4219DC616838460131FFF779FF804684
:101DD00028B902460C4B0D48BA2100F0C1FB22691C
:101DE000023204F10C0192000C3000F0ABFB2146F2
:101DF0003846FFF7A5FF444604EB850301355E61D5
:101E000025612046BDE8F081712E0008822E000871
:101E1000B0F5803F034636BF030400201020B3F125
:101E2000807F3CBF1B020830B3F1805F3CBF1B01C9
:101E30000430B3F1804F03D3002B0ADB013070472D
:101E40009B0001D5023070475B0001D5033070471D
:101E5000202070470368024613F007000BD0D90713
:101E600021D4980749BF5B089B08012013605CBF21
:101E700013600220704799B209B91B0C1020D9B227
:101E800009B908301B0A190704BF1B090430990758
:101E900004BF9B080230D90703D45B0800F101009E
:101EA00003D0136070470020704720207047000067
:101EB00010B50C460121FFF703FF024628B9054B78
:101EC000054840F2451100F04BFB012344610361DA
:101ED00010BD00BF712E0008822E00082DE9F04FC2
:101EE00014460A6923699A42A8BF23460F46A4BF35
:101EF0000C461F46D4F810A0D7F81090A36861686C
:101F00000AEB0906B34285B0B8BF0131FFF7D8FE2E
:101F100030B90246444B45484FF4B17100F020FB04
:101F200000F1140505EB86082B460022434521D31A
:101F300007F1140104F1140202EB8A0201EB890398
:101F40000293131B153B23F00303043304F115071D
:101F5000BA4238BF04230193029B03918B420CD8F1
:101F6000002E03DD58F8043D002B5BD0066105B060
:101F7000BDE8F08F43F8042BD8E7B1F800A0BAF120
:101F8000000F24D004F1140EA9464FF0000C5EF8A7
:101F9000047BD9F800301FFA87FB9BB20AFB0B3396
:101FA0004FEA174BD9F8007063444FEA174C0AFB0D
:101FB0000BC707EB13479BB243EA0743724549F847
:101FC000043B4FEA174CE2D8019B45F803C0039B42
:101FD000B3F802900431B9F1000F21D02B6804F15D
:101FE000140CAE464FF0000ABCF800B0BEF8027008
:101FF00009FB0B7757449BB243EA07434EF8043B77
:102000005CF8043B4FEA134ABEF8003009FB0A3380
:1020100003EB174362454FEA134AE5D8019FEB51A2
:10202000043599E7013E9BE7712E0008822E0008D7
:102030002DE9F843154612F0030207460E4607D075
:10204000254C013A002354F82220FFF79BFE064658
:10205000AD103DD0FC697CB91020FFF77BFD024636
:10206000F86128B91D4B1E4840F2B31100F078FA10
:10207000C0E901440460C460D7F81C80D8F8084067
:102080004CB940F271213846FFF712FF0023C8F81F
:102090000800044603604FF00009EB070AD53146FB
:1020A00022463846FFF71AFF314680463846FFF78A
:1020B00047FE46466D100BD0206838B922462146AF
:1020C0003846FFF70BFF2060C0F800900446E4E7B5
:1020D0003046BDE8F88300BFDC2E0008012E000862
:1020E000822E00082DE9F0470C464968236903EB6E
:1020F0006218A368074691464FEA621A08F1010682
:10210000B3420BDB3846FFF7DBFD054648B9024614
:10211000284B29484FF4EF7100F022FA01315B009F
:10212000EEE7002300F1140100F1100218465345B8
:1021300033DB20692AEAEA7A04F1140319F01F0953
:1021400001EB8A0103EB800C2BD0C9F1200E8A46EB
:102150000022186800FA09F010434AF8040B53F8FB
:10216000042B9C4522FA0EF2F3D8ACEB0403153B8A
:1021700023F00303043304F11500844538BF04231E
:10218000CA500AB108F10206013E38462E612146C6
:10219000FFF7D6FD2846BDE8F08742F8040F01336B
:1021A000C5E7043953F8042B41F8042F9C45F9D8AE
:1021B000EAE700BF712E0008822E00080A69034674
:1021C0000069801A30B50ED11433143103EB820448
:1021D00001EB820154F8045D51F8042D954203D0BF
:1021E00005D24FF0FF3030BDA342F3D3FBE701200F
:1021F000F9E700002DE9F74F8946064611464846A3
:102200001446FFF7DBFF051E12D129463046FFF7C3
:1022100057FD024628B93F4B40F237213E4800F0B7
:102220009FF90123C0E90435104603B0BDE8F08FE3
:10223000BCBF4B46A1463046D9F80410BABF1C4675
:1022400001250025FFF73CFD024618B9314B40F24D
:102250004521E3E7D9F810702669C56009F110033C
:1022600009F1140504F1140E00F1140B05EB8708B5
:102270000EEB86060193D9464FF0000C019B5EF8E9
:10228000040B53F804AF01931FFA8AF3194683B283
:10229000CB1A000C6344C0EB1A4000EB23409BB206
:1022A00043EA0043764549F8043B4FEA204CE5D821
:1022B000331B153B23F0030315340433A64238BF08
:1022C00004231D445B441E462C4644450ED308F1AE
:1022D0000301491B21F00301033DA84538BF00213C
:1022E0000B4453F8041D91B117619DE754F8041B8A
:1022F000E646080C1CFA81FC714400EB2C4089B2C4
:1023000041EA004146F8041B4FEA204CDDE7013F5B
:10231000E7E700BF712E0008822E00082DE9F74381
:102320000F46012159EC108B1646FFF7C9FC0446F5
:1023300030B90246234B244840F20F3100F010F927
:10234000C9F30A55C9F313030DB143F48013019384
:10235000B8F1000323D068460093FFF77BFDDDE969
:102360000012D0B1C0F1200302FA03F30B43C240C4
:1023700063610192019BA361002B0CBF0122022229
:102380002261A5B1A5F2334505443D60C0F1350099
:102390003060204603B0BDE8F0836161EAE701A840
:1023A000FFF758FD019B636120300122E8E704EB51
:1023B0008203A0F2324038601869FFF729FDC0EBB4
:1023C0004210E5E7712E0008822E0008B1F90C20BA
:1023D0002DE9F041170705460C4656D44B68002BF3
:1023E00002DC0B6C002B3DDDE66A002E3AD00023A8
:1023F00012F480522F68216A2B6025D0626DA38968
:10240000580705D56368D21A636B0BB1236CD21AD7
:10241000216AE66A00232846B047411C24D00023E5
:10242000636023692360A389DA0400D56065616B6A
:102430002F60B9B104F14403994202D02846FFF756
:102440003FFB002363630DE001232846B047461C91
:102450000246D4D12B68002BD1D01D2B01D0162BD6
:102460002BD12F6000202FE02A68B4F90C3042B144
:102470001D2A01D0162A22D100236360236923601C
:10248000D5E7626022692260CEE70F69002FE9D0AC
:1024900093070E6808BF4B690F6018BF0023A6EBB7
:1024A00007088B60B8F1000FDCDD216AA66A43469D
:1024B0003A462846B047002808DCB4F90C3043F00F
:1024C0004003A3814FF0FF30BDE8F0810744A8EB43
:1024D0000008E7E738B50B6905460C4613B9002537
:1024E000284638BD18B1036A0BB9FEF7E1FBB4F911
:1024F0000C30002BF3D0626ED00704D4990502D4BF
:10250000A06DFEF7C6FC28462146FFF75FFF636E0D
:10251000DA070546E4D4A3899B05E1D4A06DFEF754
:10252000B9FCDDE738B5064D0023044608462B60AC
:1025300000F0DAFB431C02D12B6803B1236038BDE5
:10254000240300200A44914200F1FF3300D1704778
:1025500010B511F8014B03F8014F9142F9D110BDAC
:102560001FB514461A46094B1B680546D86854B96E
:10257000074B1C46CDE9013400912B46054900F07C
:1025800041F800F051F8044BF4E700BF0C000020C4
:102590001D300008EF2F0008E22F000870B5A1FBE6
:1025A00002543CB92946FFF7FFFA064628B900262F
:1025B000304670BD0C220260F9E72A462146FEF73C
:1025C000F0FBF5E782B001B901A942B14BB1137834
:1025D0000B601278101E18BF012002B07047104621
:1025E000FBE76FF00100F8E70346084641B1FF2A18
:1025F00004D98A221A604FF0FF3070470A70012018
:10260000704700000EB403B5014603AB054853F80C
:10261000042B0068019300F037F802B05DF804EB7A
:1026200003B070470C00002008B5062000F000FA47
:10263000012000F029FB9368013B002B10B493604C
:1026400008DA9469A34201DB0A2903D15DF8044B3F
:1026500000F032B91368581C1060197008465DF814
:10266000044B7047F8B506460F461446D518AC42E1
:1026700001D1002007E014F8011B3A463046FFF76D
:10268000DAFF431CF3D1F8BD2DE9F04F0D469DB0A4
:1026900014469846064618B1036A0BB9FEF708FBC4
:1026A0006B6ED90705D4AB899A0502D4A86DFEF7E5
:1026B000F0FBAB891B0701D52B699BB92946304636
:1026C00000F038F970B16B6EDC0704D54FF0FF30C5
:1026D0001DB0BDE8F08FAB899805F7D4A86DFEF763
:1026E000D9FBF3E70023099320238DF82930CDF897
:1026F0000C803023DFF8AC818DF82A304FF00109CF
:1027000023469A4613F8012B0AB1252AF9D1BAEBD0
:10271000040B0BD05B46224629463046FFF7A2FF4A
:10272000013000F0A780099A5A4409929AF80030C3
:10273000002B00F09F8000234FF0FF32CDE90523EE
:102740000AF1010A049307938DF853301A93544603
:10275000052214F8011B5348FDF72AFD049AD8B945
:10276000D10644BF20238DF85330130744BF2B23D9
:102770008DF853309AF800302A2B15D0079A54461A
:1027800000204FF00A0C214611F8013B303B092B89
:102790004BD9B0B1079214E0A0EB080309FA03F398
:1027A00013430493A246D2E7039B191D1B680391B0
:1027B000002BBBBF5B4242F0020207930793B8BFF6
:1027C000049223782E2B0AD163782A2B32D1039BD3
:1027D0001A1D1B68039243EAE37302340593DFF882
:1027E000D4A0217803225046FDF7E2FC38B1049BC7
:1027F000A0EB0A004022824013430134049314F8F2
:10280000011B29488DF828100622FDF7D1FC00286D
:102810003FD0264B1BBB039B073323F00703083332
:102820000393099B3B4409936AE70CFB02320C4675
:102830000120A8E700230134059319464FF00A0C44
:10284000204610F8012B303A092A03D9002BC6D0B4
:102850000591C4E70CFB012104460123F0E703AB1B
:1028600000932A46124B04A93046FDF7D5FD0746D2
:10287000781CD6D16B6ED90705D4AB899A0502D4E2
:10288000A86DFEF707FBAB895B063FF51FAF099804
:102890001EE703AB00932A46054B04A93046FEF71A
:1028A0004FF8E4E71F310008293100081904000837
:1028B0006526000825310008F8B50E461446054681
:1028C00018B1036A0BB9FEF7F3F9A369A360A389F2
:1028D0001A0701D5236943B92146284600F02AF892
:1028E00018B14FF0FF373846F8BD23682269981AAF
:1028F0006369F6B28342374605DC21462846FFF776
:10290000E9FD0028EDD1A368013BA36023685A1CB0
:1029100022601E706269431C9A4204D0A389DB07BF
:10292000E1D50A2EDFD121462846FFF7D3FD002846
:10293000D9D0D6E738B5294B054618680C4618B1EA
:10294000036A0BB9FEF7B4F9B4F90C30190722D4B5
:10295000DA0607D409222A6043F04003A3814FF02E
:10296000FF3033E0580712D5616B41B104F14403E5
:10297000994202D02846FFF7A3F800236363A38996
:1029800023F02403A3810023636023692360A389C8
:1029900043F00803A38123694BB9A38903F420738F
:1029A000B3F5007F03D02146284600F083F8B4F940
:1029B0000C3013F001020AD00022A2606269524278
:1029C000A261226942B913F08000C5D138BD9907D0
:1029D00058BF6269A260F4E70020F7E70C0000200E
:1029E0001F2938B505460C4604D9162303604FF05D
:1029F000FF3038BDC26B12B152F821304BB92846B6
:102A000000F030F8224601462846BDE8384000F084
:102A100017B8012B0AD0591C03D1162303600120DB
:102A2000E7E7002142F82410204698470020E0E71D
:102A3000024B01461868FFF7D3BF00BF0C0000200F
:102A400038B5074D00230446084611462B6000F0B8
:102A500013F9431C02D12B6803B1236038BD00BFBA
:102A60002403002000F006B970B50C46B1F90E1031
:102A7000002996B015461E460DDAA38913F0800F83
:102A80004FF0000114BF40234FF4806300203160F9
:102A90002B6016B070BD6A4600F048F80028ECDBE9
:102AA000019901F47041A1F50053594259414FF485
:102AB0008063EBE78B89F7B59D0706460C4607D583
:102AC00004F14703236023610123636103B0F0BD78
:102AD00001AB6A46FFF7C8FF009F054639463046FE
:102AE000FFF762F848B9B4F90C309A05EED423F038
:102AF000030343F00203A381E2E7A389206043F0CC
:102B00008003A381019BC4E904075BB1B4F90E10F3
:102B1000304600F01DF828B1A38923F0030343F0E9
:102B20000103A381A3891D43A581CFE738B5074DD4
:102B300000230446084611462B6000F0CCF8431CE5
:102B400002D12B6803B1236038BD00BF24030020ED
:102B500038B5064D0023044608462B6000F0C0F847
:102B6000431C02D12B6803B1236038BD240300202D
:102B70004FF06043D3F8803E13F0010F11D04FF0B7
:102B80006043D3F8003E13F0010F01D1704700BF3E
:102B90004FF060431B68002BF9D0C3B24FF0604286
:102BA0001370704710B50446FFF7E2FF204610BDD2
:102BB00000224FF0E0239A6106E04FF0E0231B690A
:102BC00013F4803FF9D001328242F6D370470000FF
:102BD00008B5254B1A6B42F008021A631A6B42F0D3
:102BE00001021A63A3F530531A6822F040721A608A
:102BF0001A6842F080721A605A6822F480525A6051
:102C00009A6822F040729A60A3F540631A6822F035
:102C100003021A60DA6822F00302DA604FF0E02360
:102C200000221A619A61114A92ED006AB8EE466B71
:102C30009FED0B5B86EE057BFCEEC77B17EE902AC3
:102C4000013A5A611A6942F005021A61084A536949
:102C500083F4805353616420FFF7AAFFF6E700BFB7
:102C60000000000000408F4000380240C8010020F2
:102C7000000C02400120704708B500F08DF81623C3
:102C800003604FF0FF3008BD08B54FF0FF31FFF78C
:102C9000F3FFFEE770B50C461646002506E0AFF3DD
:102CA0000080214601F8010B01350C46B542F6DBE8
:102CB000304670BD70B50C461646002504E014F889
:102CC000010BFFF76FFF0135B542F8DB304670BDF1
:102CD0004FF0FF3070474FF400534B6000207047B7
:102CE000012070470020704710B503460C4A0D497B
:102CF0000D48006840B10C4800680344521A9342E2
:102D000006D8094A136010BD0748084C0460F2E772
:102D100000F042F80C2303604FF0FF30F3E700BFF0
:102D200000000220000400003403002038030020CB
:102D3000034AD2F8883043F47003C2F888307047F1
:102D400000ED00E00D488546FFF7F2FF0C480D4905
:102D50000D4A002302E0D458C4500433C4188C42F6
:102D6000F9D30A4A0A4C002301E013600432A2425C
:102D7000FBD3FEF769F8FFF72BFFFEE70000022008
:102D800000000020CC01002040310008CC010020D0
:102D900038030020FEE70000014B1868704700BFB1
:102DA0000C000020F8B500BFF8BC08BC9E46704778
:0C2DB000F8B500BFF8BC08BC9E46704798
:102DC000494E4600696E66004E414E006E616E00CF
:102DD00030003031323334353637383941424344AC
:102DE0004546003031323334353637383961626325
:102DF00064656600496E66696E697479004E614E5D
:102E0000005245454E54206D616C6C6F63207375A4
:102E100063636565646564002F646174612F6A652E
:102E20006E6B696E732F776F726B73706163652F52
:102E3000474E552D746F6F6C636861696E2F6172B8
:102E40006D2D31322F7372632F6E65776C69622D31
:102E500063796777696E2F6E65776C69622F6C692D
:102E600062632F7374646C69622F64746F612E6384
:102E70000042616C6C6F63207375636365656465A4
:102E800064002F646174612F6A656E6B696E732FC5
:102E9000776F726B73706163652F474E552D746F3A
:102EA0006F6C636861696E2F61726D2D31322F73A3
:102EB00072632F6E65776C69622D63796777696ECF
:102EC0002F6E65776C69622F6C6962632F7374640F
:102ED0006C69622F6D707265632E630005000000DF
:102EE000190000007D0000000080E03779C34143F5
:102EF000176E05B5B5B89346F5F93FE9034F384D60
:102F0000321D30F94877825A3CBF737FDD4F15750B
:102F1000000000000000F03F00000000000024401E
:102F200000000000000059400000000000408F40F9
:102F3000000000000088C34000000000006AF84064
:102F40000000000080842E4100000000D012634188
:102F50000000000084D797410000000065CDCD41FE
:102F6000000000205FA00242000000E876483742DF
:102F7000000000A2941A6D42000040E59C30A2427D
:102F80000000901EC4BCD64200003426F56B0C43F2
:102F90000080E03779C3414300A0D8855734764399
:102FA00000C84E676DC1AB43003D9160E458E143FA
:102FB000408CB5781DAF154450EFE2D6E41A4B446F
:102FC00092D54D06CFF08044F64AE1C7022DB544B4
:102FD000B49DD9794378EA444300504F534958008F
:102FE0002E002C2066756E6374696F6E3A20006146
:102FF0007373657274696F6E202225732220666177
:10300000696C65643A2066696C6520222573222C00
:10301000206C696E65202564257325730A000020E5
:103020002020202020202020282828282820202078
:103030002020202020202020202020202020208828
:10304000101010101010101010101010101010048C
:1030500004040404040404040410101010101010DC
:1030600041414141414101010101010101010101D0
:1030700001010101010101010101101010101010E6
:1030800042424242424202020202020202020202A0
:1030900002020202020202020202101010102000BC
:1030A0000000000000000000000000000000000020
:1030B0000000000000000000000000000000000010
:1030C0000000000000000000000000000000000000
:1030D00000000000000000000000000000000000F0
:1030E00000000000000000000000000000000000E0
:1030F00000000000000000000000000000000000D0
:1031000000000000000000000000000000000000BF
:10311000000000000000000000000000000000238C
:103120002D302B2000686C4C0065666745464700D3
:0831300080D0FF7F01000000C8
:04313800C9020008C0
:04313C00A1020008E4
:103140000000000003000000E80100201000002043
:1031500000000000E801002050020020B80200201A
:10316000000000000000000000000000000000005F
:10317000000000000000000000000000000000004F
:10318000000000000000000000000000000000003F
:1031900000000000000000000000000043000000EC
:1031A000000000000000000000000000000000001F
:1031B00000000000000000000000000043000000CC
:1031C00000000000000000000000000000000000FF
:1031D00000000000000000000000000043000000AC
:1031E00000000000000000000000000000000000DF
:1031F000000000000000000000000000430000008C
:1032000000000000000000000000000000000000BE
:10321000000000000000000000000000430000006B
:10322000000000000000000000000000000000009E
:10323000000000000000000000000000430000004B
:10324000000000000000000000000000000000007E
:10325000000000000000000000000000430000002B
:10326000000000000000000000000000000000005E
:10327000000000000000000000000000E925000838
:10328000C5250008000000001E300008E02F0008DF
:103290001D3000081D3000081D3000081D300008DA
:1032A0001D3000081D3000081D3000081D300008CA
:1032B0001D300008FFFFFFFFFFFFFFFFFFFFFFFFC5
:1032C000FFFF000001004153434949000000000096
:1032D00000000000000000000000000000000000EE
:1032E0000000000000004153434949000000000075
:1032F00000000000000000000000000000000000CE
:0C33000000000000000000000024F400A9
:0400000508002D457D
:00000001FF
