:020000040800F2
:1000000000800120B10D0008010E0008010E00085B
:10001000010E0008010E0008010E0008000000009B
:10002000000000000000000000000000010E0008B9
:10003000010E000800000000010E0008FD0B000882
:10004000010E0008010E0008010E0008010E000854
:1000500000000000010E0008010E0008010E00085B
:10006000010E0008010E0008010E0008010E000834
:10007000010E0008010E0008010E0008010E000824
:10008000010E0008010E0008010E0008010E000814
:10009000010E0008010E0008010E0008010E000804
:1000A000010E0008010E0008010E0008010E0008F4
:1000B000010E0008010E0008010E0008010E0008E4
:1000C000010E0008010E0008010E0008010E0008D4
:1000D000010E0008010E00080D0C0008010E0008BA
:1000E000010E0008010E0008010E0008010E0008B4
:1000F000010E0008010E0008010E0008010E0008A4
:10010000010E0008010E0008010E0008010E000893
:10011000010E0008010E0008010E0008010E000883
:10012000010E0008010E0008010E0008010E000873
:10013000010E0008010E0008010E0008010E000863
:10014000010E0008010E0008010E0008010E000853
:10015000010E0008010E0008010E0008010E000843
:10016000010E0008010E0008010E0008010E000833
:10017000010E0008010E0008010E0008010E000823
:10018000010E0008010E0008000000000000000041
:10019000000000000000000000000000000000005F
:0801A000010E0008010E000829
:1001B00010B5054C237833B9044B13B10448AFF3A1
:1001C00000800123237010BD6400002000000000A7
:1001D0003846000808B5034B1BB103490348AFF389
:1001E000008008BD000000006800002038460008BC
:1001F000034613F8012B002AFBD1181A0138704767
:1002000001F0FF01102A2BDB10F0070F08D010F8C7
:10021000013B013A8B422DD010F0070F42B3F6D1CB
:10022000F0B441EA012141EA014122F007047FF0E4
:1002300000070023F0E80256083C85EA010586EA3B
:10024000010685FA47F5A3FA87F586FA47F6A5FA77
:1002500087F68EB9EED1F0BC01F0FF0102F0070283
:1002600032B110F8013B013A83EA010313B1F8D12E
:100270000020704701387047002D06BF354603380F
:10028000073815F0010F07D1013015F4807F02BF48
:10029000013015F4C03F0130F0BC0138704700BF99
:1002A00053B94AB9002908BF00281CBF4FF0FF31DD
:1002B0004FF0FF3000F074B9ADF1080C6DE904CED9
:1002C00000F006F8DDF804E0DDE9022304B0704731
:1002D0002DE9F047089D04468E46002B4DD18A42F9
:1002E000944669D9B2FA82F252B101FA02F3C2F12C
:1002F000200120FA01F10CFA02FC41EA030E9440BD
:100300004FEA1C48210CBEFBF8F61FFA8CF708FBDD
:1003100016E341EA034306FB07F199420AD91CEBB5
:10032000030306F1FF3080F01F81994240F21C81E7
:10033000023E63445B1AA4B2B3FBF8F008FB10332F
:1003400044EA034400FB07F7A7420AD91CEB040464
:1003500000F1FF3380F00A81A74240F20781644434
:10036000023840EA0640E41B00261DB1D4400023B9
:10037000C5E900433146BDE8F0878B4209D9002D1D
:1003800000F0EF800026C5E9000130463146BDE8A7
:10039000F087B3FA83F6002E4AD18B4202D3824211
:1003A00000F2F980841A61EB030301209E46002DC0
:1003B000E0D0C5E9004EDDE702B9FFDEB2FA82F215
:1003C000002A40F09280A1EB0C014FEA1C471FFA73
:1003D0008CFE0126200CB1FBF7F307FB131140EA5A
:1003E00001410EFB03F0884208D91CEB010103F127
:1003F000FF3802D2884200F2CB804346091AA4B2E9
:10040000B1FBF7F007FB101144EA01440EFB00FEBC
:10041000A64508D91CEB040400F1FF3102D2A64521
:1004200000F2BB800846A4EB0E0440EA03409CE7C0
:10043000C6F12007B34022FA07FC4CEA030C20FA6D
:1004400007F401FA06F31C43F9404FEA1C4900FA8D
:1004500006F3B1FBF9F8200C1FFA8CFE09FB18110A
:1004600040EA014108FB0EF0884202FA06F20BD97D
:100470001CEB010108F1FF3A80F08880884240F2CD
:100480008580A8F102086144091AA4B2B1FBF9F011
:1004900009FB101144EA014100FB0EFE8E4508D90C
:1004A0001CEB010100F1FF346CD28E456AD9023891
:1004B000614440EA0840A0FB0294A1EB0E01A14276
:1004C000C846A64656D353D05DB1B3EB080261EBE4
:1004D0000E0101FA07F722FA06F3F1401F43C5E9BE
:1004E000007100263146BDE8F087C2F12003D840F4
:1004F0000CFA02FC21FA03F3914001434FEA1C4736
:100500001FFA8CFEB3FBF7F007FB10360B0C43EA27
:10051000064300FB0EF69E4204FA02F408D91CEBD7
:10052000030300F1FF382FD29E422DD902386344D5
:100530009B1B89B2B3FBF7F607FB163341EA034175
:1005400006FB0EF38B4208D91CEB010106F1FF38C4
:1005500016D28B4214D9023E6144C91A46EA0046BB
:1005600038E72E46284605E70646E3E61846F8E64D
:100570004B45A9D2B9EB020864EB0C0E0138A3E796
:100580004646EAE7204694E74046D1E7D0467BE777
:10059000023B614432E7304609E76444023842E7EF
:1005A000704700BF80B483B000AF0346FB7197F97A
:1005B0000730002B0BDBFB7903F01F02074997F98B
:1005C00007305B09012000FA02F241F8232000BF46
:1005D0000C37BD465DF8047B704700BF00E100E0CA
:1005E00080B483B000AF03463960FB7197F90730E0
:1005F000002B0ADB3B68DAB20C4997F9073012018D
:10060000D2B20B4483F800230AE03B68DAB208490F
:10061000FB7903F00F03043B1201D2B20B441A76AC
:1006200000BF0C37BD465DF8047B704700E100E079
:1006300000ED00E080B485B000AF78607B68FB73AC
:1006400000BF084B1B6803F08003002BF9D0054A5C
:10065000FB7B53607B6818461437BD465DF8047B0E
:10066000704700BF0044004080B586B000AFF8601E
:100670007A603B600B467B8100F0C6FC78610EE03F
:100680000D4801F085F902467B899A4207D37B89A0
:100690001A46F968084801F0BAF8034608E000F085
:1006A000B3FC02467B69D21A7B689A42E8D90023E0
:1006B00018461837BD4680BD8000002080B584B044
:1006C00000AFF8607A603B600B467B817B687A897B
:1006D000F968044800F034FF034618461037BD4659
:1006E00080BD00BF0044004080B487B000AFBA6056
:1006F0007B600346FB810B46BB81FA89BB891344AF
:10070000652B01DD022369E000237B6161E0FA894A
:100710007B691344002B00DA0733DB101A46324B97
:100720009B5C1946FA897B6913445A4203F007031C
:1007300002F0070258BF534241FA03F303F00103EA
:10074000002B14BF01230023FB74FB7C002B19D06A
:100750007B69002B00DA0733DB101A46BB681344B1
:100760001B785AB27B69594203F0070301F0070175
:1007700058BF4B42012101FA03F35BB213435BB252
:10078000DAB21AE07B69002B00DA0733DB101A4675
:10079000BB6813441B785AB27B69594203F00703C4
:1007A00001F0070158BF4B42012101FA03F35BB28C
:1007B000DB435BB213405BB2DAB27B69002B00DA39
:1007C0000733DB101946BB680B441A707B69013391
:1007D0007B61BB897A699A4299DB002318461C37F2
:1007E000BD465DF8047B7047D400002080B487B01C
:1007F00000AFBA607B600346FB810B46BB81FA8980
:10080000BB891344652B01DD022367E000237B6174
:100810005FE07B69002B00DA0733DB101A46BB6808
:1008200013441B7819467B695A4203F0070302F010
:10083000070258BF534241FA03F303F00103002BB0
:100840001CD0FA897B691344002B00DA0733DB10D4
:100850001A46254B9B5C5AB2F9897B690B44594275
:1008600003F0070301F0070158BF4B42012101FAD1
:1008700003F35BB213435BB2DAB21DE0FA897B6922
:100880001344002B00DA0733DB101A46164B9B5C2F
:100890005AB2F9897B690B44594203F0070301F00E
:1008A000070158BF4B42012101FA03F35BB2DB435E
:1008B0005BB213405BB2DAB2F9897B690B44002B5F
:1008C00000DA0733DB101946074B5A547B690133B2
:1008D0007B61BB897A699A429BDB002318461C37EF
:1008E000BD465DF8047B7047D400002080B487B01B
:1008F00000AFBA607B600346FB810B46BB81FA897F
:10090000BB891344212B01DD022315E000237B6109
:100910000DE0FA897B691A447B695B00B9680B4476
:10092000084931F812201A807B6901337B61BB8949
:100930007A699A42EDDB002318461C37BD465DF804
:10094000047B7047D001002080B487B000AFBA604C
:100950007B600346FB810B46BB81FA89BB8913444C
:10096000212B01DD022315E000237B610DE07B6973
:100970005B00BA681A44F9897B690B441188084AFC
:1009800022F813107B6901337B61BB897A699A4233
:10099000EDDB002318461C37BD465DF8047B70472D
:1009A000D001002080B5ADF5047D00AF07F5F873E8
:1009B00000221A605A609A60DA600023C7F88C310E
:1009C00007F5C87360220021184602F0CDFD002310
:1009D000C7F8803107F5C27300221A609A80774BFE
:1009E0001B6B764A43F008031363754B1B68744A0C
:1009F00023F040731360724B1B68714A43F080739D
:100A000013604FF47A53C7F80C32D7F80C0200F099
:100A1000CBFA00F0F9FAC7F80C02684B1B6B674A77
:100A200043F0010313630C23A7F80032022387F875
:100A30000232002387F80532022387F804320023AC
:100A400087F80332072387F8063207F50073194643
:100A50005C4800F0D6F9594B1B6C584A43F40033FC
:100A600013644FF4E133C7F8F4310C2387F8FD31F8
:100A70000023A7F8F031002387F8F331002387F82B
:100A8000F231002387F8FC314F4BC7F8F83107F5F6
:100A9000F87319464D4800F0D5FA4D4802F0DAFDDA
:100AA00007F5C6734B49184602F0DCFD07F5C6731F
:100AB0001846FFF79DFB03469AB207F5C6716423FB
:100AC000424800F03DFD07F5C07141F28833032232
:100AD0003E4800F086FD07F5C07207F5C6733E4933
:100AE000184602F0BFFD07F5C6731846FFF780FBF6
:100AF00003469AB207F5C6716423344800F020FD1E
:100B000040223649364800F0D1FD304BDB682F4A91
:100B100043F02003D3602620FFF744FD0221262066
:100B2000FFF75EFD07F5B87300221A605A609A60FD
:100B3000DA60012387F870312A4BC7F874312A4BE9
:100B4000C7F878310023C7F87C3107F5A673242253
:100B50000021184602F008FD244BC7F84C31244B05
:100B6000C7F86431234BC7F85431234BC7F86831B9
:100B700007F5A67307F5B8723846012102F030FC7C
:100B8000034687F80B3297F90B32002B00D0FEE7B3
:100B90003B464FF47A71184601F03CF83B4664211D
:100BA000184601F046F83B46184602F04CFC034656
:100BB00087F80B32642000F011FAF4E700380240A5
:100BC000000C0240000002400024F40000440040F9
:100BD000504600086C460008944600089400002027
:100BE0008000002069060008BD060008E90600082C
:100BF000ED070008ED0800084909000880B500AFBE
:100C0000012000F00DFA00BF80BD000080B582B069
:100C100000AF0A4B1B6803F02003002B09D0074BE1
:100C20005B68DBB2FB71FB1D01221946044800F032
:100C30006EFD00BF0837BD4680BD00BF00440040C8
:100C40008000002080B586B000AFF860B9607A609F
:100C500000237B610AE0AFF300800146BB685A1CA9
:100C6000BA60CAB21A707B6901337B617A697B68AA
:100C70009A42F0DB7B6818461837BD4680BD80B5C8
:100C800086B000AFF860B9607A6000237B6109E04C
:100C9000BB685A1CBA601B781846FFF7CBFC7B690F
:100CA00001337B617A697B689A42F1DB7B68184685
:100CB0001837BD4680BD80B483B000AF78604FF078
:100CC000FF3318460C37BD465DF8047B704780B48F
:100CD00083B000AF786039603B684FF400525A60CF
:100CE000002318460C37BD465DF8047B704780B47E
:100CF00083B000AF7860012318460C37BD465DF81D
:100D0000047B704780B485B000AFF860B9607A604A
:100D1000002318461437BD465DF8047B7047000079
:100D200080B586B000AF7860144A154BD31A7B614A
:100D30007B693B61134B1B68002B02D1114B124A9C
:100D40001A60104B1A687B6813443A699A4207D2BA
:100D500002F0D2FB03460C221A604FF0FF3309E089
:100D6000084B1B68FB60074B1A687B681344054AF5
:100D70001360FB6818461837BD4680BD008001200F
:100D800000040000100200202802002080B400AF00
:100D9000064BD3F88830054A43F47003C2F8883014
:100DA00000BFBD465DF8047B704700BF00ED00E06A
:100DB0000D488546FFF7EAFF0C480D490D4A002310
:100DC00002E0D458C4500433C4188C42F9D30A4A00
:100DD0000A4C002301E013600432A242FBD302F06C
:100DE00091FBFFF7DFFDFEE70080012000000020FF
:100DF000640000204447000864000020280200200E
:100E0000FEE780B487B000AF7860396000233B61B3
:100E10000023FB6000237B61BBE001227B6902FAB7
:100E200003F33B613B681B881A463B691340FB6038
:100E3000FA683B699A4240F0A9803B689B7803F0CE
:100E40000303012B05D03B689B7803F00303022BBF
:100E50002BD17B689B687A695200032101FA02F268
:100E6000D2431A407B689A607B689B683A68127923
:100E700011467A69520001FA02F21A437B689A60BD
:100E80007B685B6801217A6901FA02F2D2431A4059
:100E90007B685A607B685B683A68D27811467A69E9
:100EA00001FA02F21A437B685A603B689B7803F0B0
:100EB0000303032B16D07B68DA687B695B00032190
:100EC00001FA03F3DB431A407B68DA607B68DB6876
:100ED0003A68527911467A69520001FA02F21A43CD
:100EE0007B68DA603B689B7803F00303022B25D113
:100EF0007B69DA087B68083253F82230BB607B6973
:100F000003F00F039B000F2202FA03F3DB43BA68DE
:100F10001340BB603B689B7903F00F027B6903F0D1
:100F20000F039B0002FA03F3BA681343BB607B69AB
:100F3000DA087B680832B96843F822103B689B786E
:100F400003F00303032B0AD17B68DA687B695B003B
:100F5000032101FA03F3DB431A407B68DA607B6804
:100F60001A687B695B00032101FA03F3DB431A4033
:100F70007B681A607B681B683A68927811467A69C8
:100F8000520001FA02F21A437B681A607B6901334E
:100F90007B617B690F2B7FF640AF00BF1C37BD46DE
:100FA0005DF8047B7047000080B483B000AF7860C8
:100FB000094B00221A60084A7B68013B5360064BCC
:100FC00000229A60044B07221A6000BF0C37BD460E
:100FD0005DF8047B704700BF10E000E080B584B08E
:100FE00000AF786000F010F8F8607B68BB6000BF6D
:100FF00000F00AF80246FB68D31ABA689A42F7D89A
:1010000000BF1037BD4680BD80B400AF034B1B68E6
:101010001846BD465DF8047B704700BF14020020EF
:1010200080B483B000AF7860054B1A687B681344C6
:10103000034A136000BF0C37BD465DF8047B704760
:10104000140200202DE9B04FBEB000AFC7F8F40085
:10105000C7F8F010D7F8F4301B6923F44052D7F8E2
:10106000F0301B881A43D7F8F4301A61D7F8F430FF
:10107000DB6823F48052D7F8F430DA60D7F8F43024
:10108000DA68D7F8F0301B7B1B031A43D7F8F4302B
:10109000DA60D7F8F430DB6823F4C062D7F8F430B4
:1010A000DA60D7F8F430DA68D7F8F0309B785B0272
:1010B0001A43D7F8F430DA60D7F8F430DB6823F05D
:1010C0000C02D7F8F430DA60D7F8F430DA68D7F8E1
:1010D000F0305B7B1A43D7F8F430DA60D7F8F4309D
:1010E000DB6823F40042D7F8F430DA60D7F8F43044
:1010F000DA68D7F8F030DB781B041A43D7F8F430FD
:10110000DA60D7F8F030DB78012B40F00981D7F8AE
:10111000F0309B680022C7F8E830C7F8EC20D7E928
:101120003A4522462B469118B9655B41FB65D7E9E4
:101130001623214612EB0108294643EB01094FF023
:1011400000024FF000034FEAC90343EA58734FEA25
:10115000C80290469946234618EB0303C7F8E030CF
:101160002B4649EB0303C7F8E430D7F8F0305B684F
:101170000022C7F8D830C7F8DC20D7E936120B4672
:10118000DB183B65134642EB03037B65D7E9142369
:10119000D7E93801FFF784F802460B465F4BA3FB03
:1011A00002235B091C01D7F8F0309B680022C7F8C6
:1011B000D030C7F8D420D7E9348942464B4691183D
:1011C000B9645B41FB64D7E91223414612EB010A83
:1011D000494643EB010B4FF000024FF000034FEA8A
:1011E000CB0343EA5A734FEACA0292469B464346F0
:1011F0001AEB0303C7F8C8304B464BEB0303C7F8A1
:10120000CC30D7F8F0305B680022C7F8C030C7F8A0
:10121000C420D7E930120B46DB183B64134642EB7F
:1012200003037B64D7E91023D7E93201FFF738F8CD
:1012300002460B461146394BA3FB01235B0964228E
:1012400002FB03F3CB1ADB0003F13202334BA3FBA7
:1012500002235B095B0003F4F8731C44D7F8F030F9
:101260009B680022C7F8B830C7F8BC20D7E92E89A0
:1012700042464B469118B9635B41FB63D7E90E23A5
:1012800041465118396349464B417B634FF0000298
:101290004FF00003D7E90CAB5946CB00514643EA67
:1012A00051735146CA0010461946034642469B18E0
:1012B000C7F8B0304B460A4642EB0303C7F8B430D8
:1012C000D7F8F0305B680022C7F8A830C7F8AC2028
:1012D000D7E92A120B46DB18BB62134642EB030325
:1012E000FB62D7E90A23D7E92C01FEF7D9FF0246B2
:1012F0000B460A4BA3FB02135B09642101FB03F3BA
:10130000D31ADB003233054AA2FB03235B0903F047
:101310000703E218D7F8F4309A6002E11F85EB5119
:10132000D7F8F0309B680022C7F8A030C7F8A42097
:10133000D7E9288942464B46911839625B417B6266
:10134000D7E9082341465418494643EB01054FF0BD
:1013500000024FF00003EB0043EA5473E20014462E
:101360001D464346E318C7F898304B4645EB030348
:10137000C7F89C30D7F8F0305B680022C7F890308F
:10138000C7F894204FF000024FF00003D7E924453E
:1013900029468B00214643EA917321468A00D7E90A
:1013A0002601FEF77DFF02460B46644BA3FB02239A
:1013B0005B091C01D7F8F0309B680022C7F8883021
:1013C000C7F88C20D7E9228942464B469118B9616B
:1013D0005B41FB61D7E90623414651183961494613
:1013E0004B417B614FF000024FF00003D7E904ABA3
:1013F0005946CB00514643EA51735146CA00104644
:101400001946034642469B18C7F880304B460A46A9
:1014100042EB0303C7F88430D7F8F0305B68002252
:10142000BB67FA674FF000024FF00003D7E91E894F
:1014300049468B00414643EA917341468A00D7E909
:101440002001FEF72DFF02460B463C4BA3FB021387
:101450005B09642101FB03F3D31A1B013233374AC2
:10146000A2FB03235B0903F0F0031C44D7F8F03020
:101470009B6800223B677A67D7E91C8942464B4646
:101480009118B9605B41FB60D7E9022341465118CE
:10149000396049464B417B604FF000024FF000033A
:1014A000D7E900AB5946CB00514643EA5173514648
:1014B000CA0010461946034642469B18BB664B4677
:1014C0000A4642EB0303FB66D7F8F0305B68002264
:1014D0003B667A664FF000024FF00003D7E91889A7
:1014E00049468B00414643EA917341468A00D7E959
:1014F0001A01FEF7D5FE02460B46104BA3FB021362
:101500005B09642101FB03F3D31A1B0132330B4A3D
:10151000A2FB03235B0903F00F03E218D7F8F430B2
:101520009A60D7F8F430DB6843F40052D7F8F4300F
:10153000DA6000BFF837BD46BDE8B08F1F85EB51BC
:1015400080B586B000AFF860B9603B601346FB80A1
:10155000FFF75AFD786137E0FB681B6803F08003F2
:10156000002B31D0FB68DB6803F48053002B1BD0C9
:10157000BB683B613B691B88C3F30802FB685A6088
:10158000FB68DB6803F48063002B06D1BB68023381
:10159000BB60FB88023BFB8011E0BB680133BB6092
:1015A000FB88013BFB800AE0BB681B781A46FB689E
:1015B0005A60BB680133BB60FB88013BFB80FB8842
:1015C000002B01D1002308E0FFF71EFD02467B69D6
:1015D000D31A3A689A42BFD2012318461837BD463B
:1015E00080BD80B586B000AFF860B9603B6013463F
:1015F000FB80FFF709FD78614BE0FB681B6803F097
:101600002003002B45D0FB68DB6803F48053002BDC
:1016100020D0FB68DB6803F48063002B0ED1FB68ED
:101620005B689BB2C3F308039AB2BB681A80BB68BD
:101630000233BB60FB88023BFB8025E0FB685B68F4
:10164000DAB2BB681A70BB680133BB60FB88013B30
:10165000FB8019E0FB68DB6803F48063002B05D195
:10166000FB685B68DAB2BB681A7007E0FB685B680E
:10167000DBB203F07F03DAB2BB681A70BB680133D8
:10168000BB60FB88013BFB80FB88002B01D1002362
:1016900008E0FFF7B9FC02467B69D31A3A689A4220
:1016A000ABD2012318461837BD4680BD80B489B03F
:1016B00000AFF860B9607A60FB68002B05D0BB68AA
:1016C000002B02D07B68002B01D1002319E0FB68BE
:1016D00000221A61FB687A685A60FB68BA681A606F
:1016E000FB680C33FB6100237B617A69FB691A603C
:1016F000FB680833BB6100233B613A69BB691A6030
:10170000012318462437BD465DF8047B704780B539
:101710008CB000AFF860B9607A60BB68BB62FB68F0
:10172000002B0DD0FB681B68002B09D0FB685B68A1
:10173000002B05D0BB68002B02D07B68002B01D1A9
:10174000002360E0F86800F0E2F878627A687B6A6B
:10175000934228BF13467B607B68002B01D1002396
:1017600051E0FB680C333B623B6A1B68BFF35B8F45
:101770007B617B69FB62FB685A68FB6AD31A7A68F3
:10178000934228BF1346FB61FB681A68FB6A134447
:10179000FA69B96A184601F0D9FEFA6AFB6913447E
:1017A000FB627A68FB69D31A7B607B68002B0AD0E6
:1017B000FB681868BA6AFB6913447A68194601F035
:1017C000C5FE7B68FB62FB685B68FA6A9A4201D3DC
:1017D0000023FB62FB680C33BB61FB6A3B613A6927
:1017E000BB69BFF35B8F1A60FB681B69002B07D0D6
:1017F000FB681B69F9697A680A440121F86898470F
:10180000FA697B68134418463037BD4680BD80B501
:101810008CB000AFF860B9607A60BB68BB62FB68EF
:10182000002B0DD0FB681B68002B09D0FB685B68A0
:10183000002B05D0BB68002B02D07B68002B01D1A8
:10184000002360E0F86800F0A3F878627A687B6AA9
:10185000934228BF13467B607B68002B01D1002395
:1018600051E0FB6808333B623B6A1B68BFF35B8F48
:101870007B617B69FB62FB685A68FB6AD31A7A68F2
:10188000934228BF1346FB61FB681A68FB6A134446
:10189000FA691946B86A01F059FEFA6AFB691344FD
:1018A000FB627A68FB69D31A7B607B68002B0AD0E5
:1018B000BA6AFB69D018FB681B687A68194601F0A0
:1018C00045FE7B68FB62FB685B68FA6A9A4201D35B
:1018D0000023FB62FB680833BB61FB6A3B613A692A
:1018E000BB69BFF35B8F1A60FB681B69002B07D0D5
:1018F000FB681B69F9697A680A440021F86898470F
:10190000FA697B68134418463037BD4680BD80B401
:101910008BB000AF78607B68002B07D07B681B68BA
:10192000002B03D07B685B68002B01D1002329E0EA
:101930007B680C333B623B6A1B683B613B69FB6124
:101940007B680833BB61BB691B68FB60FB687B611C
:10195000FA697B699A4203D17B685B687B620FE01E
:101960007A69FB699A4204D97A69FB69D31A7B6266
:1019700006E07B685A687969FB69CB1A13447B627D
:101980007B6A013B18462C37BD465DF8047B7047E7
:1019900080B48BB000AF78607B68002B07D07B6889
:1019A0001B68002B03D07B685B68002B01D10023F0
:1019B00027E07B680C333B623B6A1B683B613B69F9
:1019C000FB617B680833BB61BB691B68FB60FB681C
:1019D0007B61FA697B699A4202D100237B620FE046
:1019E000FA697B699A4204D9FA697B69D31A7B62E6
:1019F00006E07B685A68F9697B69CB1A13447B62FD
:101A00007B6A18462C37BD465DF8047B704780B46E
:101A100085B000AF78607B68B3F804311A467B6804
:101A20009B5CFB737B68B3F8043101339AB27B682B
:101A3000A3F80421FB7B18461437BD465DF8047BF0
:101A4000704780B483B000AF78600B46FB707B6852
:101A5000B3F8043119467B68FA785A547B68B3F8B6
:101A6000043101339AB27B68A3F8042100BF0C371C
:101A7000BD465DF8047B704780B483B000AF7860EA
:101A80007B68B3F8043101339AB27B68A3F8042170
:101A900000BF0C37BD465DF8047B704780B485B04D
:101AA00000AF78607B68B3F804311A467B689B5CB2
:101AB0001B021AB27B68B3F8043101337968CB5C3E
:101AC0001BB213431BB2FB817B68B3F804310233B2
:101AD0009AB27B68A3F80421FB8918461437BD46E7
:101AE0005DF8047B704780B483B000AF78600B462C
:101AF0007B807B881B0A99B27B68B3F804311A4655
:101B0000C9B27B6899547B68B3F8043101337A8891
:101B1000D1B27A68D1547B68B3F8043102339AB2F7
:101B20007B68A3F8042100BF0C37BD465DF8047B39
:101B3000704780B483B000AF78607B680022A3F860
:101B4000042100BF0C37BD465DF8047B704780B5AB
:101B500082B000AF78607868FFF7EBFF7B68002207
:101B600083F806217B68002283F807217B68002226
:101B7000A3F808217B68002283F80A217B680022F1
:101B800083F80B2100BF0837BD4680BD90B583B0F8
:101B900000AF786039607B68002B02D14FF0FF33D3
:101BA00034E04FF4A6720021786801F0DDFC7B6818
:101BB0004FF0FF32C3F830217B684FF0FF32C3F89B
:101BC00034213B68002B02D14FF0FF331EE03B680D
:101BD0001B78012B06D03B681B78022B02D04FF0FC
:101BE000FF3313E03B685B68002B03D03B689B68C6
:101BF000002B02D14FF0FF3308E07B683A6803F511
:101C00009C7413460FCB84E80F00002318460C3752
:101C1000BD4690BD80B483B000AF786039607B680A
:101C20003A68C3F8342100BF0C37BD465DF8047B29
:101C3000704780B483B000AF786039607B683A68E1
:101C4000C3F8302100BF0C37BD465DF8047B7047F8
:101C500080B487B000AF786039604FF6FF73FB82C5
:101C600000233B6126E07A683B6913441B789AB2F3
:101C7000FB8A5340FB820823FB6015E0FB8A03F0DC
:101C80000103002B0AD0FB8A5B08FB82FB8A83F4EA
:101C9000BF4383F07E03DB43FB8202E0FB8A5B08E9
:101CA000FB82FB68013BFB60FB68002BE6D13B69D4
:101CB00001333B613A693B689A42D4D3FB8A5BBAF1
:101CC0009BB218461C37BD465DF8047B704790B543
:101CD00085B000AF78600B467B807B68D3F83C41D1
:101CE0007B687A68B2F8042198187B68D3F83021B1
:101CF0007B68D3F844317988A047F8607B88FA681C
:101D00009A4201D100230EE07B88FA689A4208DAF1
:101D1000FB68002B02DA6FF0030304E06FF00203AC
:101D200001E06FF0030318461437BD4690BD90B52F
:101D300085B000AF78600B467B807B68D3F840416C
:101D400078687B68D3F830217B68D3F84431798890
:101D5000A047F8607B88FA689A4201D100230EE020
:101D60007B88FA689A4208DAFB68002B02DA6FF087
:101D7000030304E06FF0020301E06FF00303184671
:101D80001437BD4690BD80B584B000AF78607B68E5
:101D900093F83831012B22D17A687B68B3F804318B
:101DA00019461046FFF754FF0346FB81022178686D
:101DB000FFF78DFF03467B7397F90D30002B02D0A0
:101DC00097F90D300CE07868FFF768FE03467B81D9
:101DD0007A89FB899A4202D06FF0040300E0002365
:101DE00018461037BD4680BD80B586B000AF78601C
:101DF00039607B68D3F830317B617B68D3F834215C
:101E00007B68C3F830217868FFF7A1FE3B680022A9
:101E10001A707B6893F83831012B31D10121786831
:101E2000FFF755FF03467B737B687A69C3F830215F
:101E300097F90D30002B02D097F90D307BE03B680D
:101E400001221A707868FFF7E2FD03461A467B68A4
:101E500083F8062101217868FFF739FF03467B7379
:101E600097F90D30002B02D097F90D3063E07868B8
:101E7000FFF7CDFD03461A467B6883F8072159E03A
:101E80007B6893F83831022B54D101217868FFF731
:101E90001EFF0346FB747B687A69C3F8302197F90B
:101EA0001330002B02D097F9133044E03B68012235
:101EB0001A707868FFF7E0FD07217868FFF707FFE1
:101EC0000346FB7497F91330002B02D097F91330B7
:101ED00031E07868FFF72DFE7868FFF7DFFD0346F5
:101EE0001A467B68A3F808217868FFF7D7FD0346F8
:101EF0003B827868FFF7D2FD0346FB817868FFF7E5
:101F000086FD03461A467B6883F806217868FFF74A
:101F10007EFD03461A467B6883F807213B8A002B27
:101F200002D06FF0050306E0FB89FF2B02D96FF0AA
:101F3000050300E0002318461837BD4680BD80B574
:101F400082B000AF78600B467B807868FFF7F1FDC8
:101F50007B6893F83831012B07D17B6893F8063101
:101F600019467868FFF76DFD1DE07B6893F83831FE
:101F7000022B18D17B68B3F8083119467868FFF74F
:101F8000B2FD00217868FFF7AEFD7B8802339BB27B
:101F900019467868FFF7A7FD7B6893F80631194664
:101FA0007868FFF74EFD7B6893F80731194678682B
:101FB000FFF747FD00BF0837BD4680BD80B584B040
:101FC00000AF78607B6893F83831012B0ED17A68C6
:101FD0007B68B3F8043119461046FFF739FE034613
:101FE000FB81FB8919467868FFF77DFD7B68B3F8B4
:101FF000043119467868FFF79AFE03467B7397F918
:102000000D3018461037BD4680BD80B584B000AF96
:102010007860396039687868FFF7E6FE0346FB733D
:1020200097F90F30002B02D097F90F3021E07B6831
:1020300093F83831012B1BD17B6893F806310022CD
:10204000934204D17B68012283F80A2110E07B6867
:1020500093F806217B6893F848319A4204D07B6854
:10206000012283F80B2103E07B68002283F80B2117
:10207000002318461037BD4680BD80B582B000AF42
:1020800078600B467B807B8819467868FFF757FF9E
:1020900000BF0837BD4680BD80B582B000AF786014
:1020A0000B46FB707B6893F80731803BDAB27B68A4
:1020B00083F8072101217868FFF741FFFB78194673
:1020C0007868FFF7BEFC7868FFF778FF034618468C
:1020D0000837BD4680BD80B584B000AF78607B68AE
:1020E000B3F80831FB817B6893F806317B737B681A
:1020F00093F807313B7307F1090319467868FFF736
:1021000073FE0346FB7297F90B30002B02D097F950
:102110000B3057E07B6893F83831022B08D17B688D
:10212000B3F80831FA899A4202D06FF0050349E00A
:102130007B6893F83831012B08D17B6893F806311E
:102140007A7B9A4202D06FF006033BE07B6893F8FB
:1021500007313A7B9A4234D07B6893F80731A3F178
:1021600080023B7B9A4229D101217868FFF7AFFDBD
:102170000346FB7297F90B30002B02D097F90B3016
:1021800020E07868FFF743FC0346BB727868FFF7EE
:10219000FAFD0346FB7297F90B30002B02D097F93A
:1021A0000B300FE0BB7A002B02D0BB7A042B02D994
:1021B0006FF0010306E097F90A3003E06FF00103C6
:1021C00000E0002318461037BD4680BD80B584B0BE
:1021D00000AF786039607868FFF77DFF0346FB72D7
:1021E00097F90B30002B02D097F90B3044E0012116
:1021F0007868FFF76CFD0346FB7297F90B30002BF4
:1022000002D097F90B3037E07868FFF700FC0346FF
:10221000BB72BB7A9BB219467868FFF758FD03463C
:10222000FB7297F90B30002B02D097F90B3023E0AB
:102230000023FB600FE07868FFF7E9FB03467B7241
:102240003B68002B04D0FB683A6813447A7A1A7012
:10225000FB680133FB60BB7AFA689A42EBDB786873
:10226000FFF791FD0346FB7297F90B30002B02D06C
:1022700097F90B3000E0002318461037BD4680BDAB
:1022800080B586B000AFF8600B467A607B81F86855
:10229000FFF721FF0346FB7497F91330002B02D0A0
:1022A00097F9133050E00121F868FFF710FD03465D
:1022B000FB7497F91330002B02D097F9133043E0E9
:1022C000F868FFF7A4FB0346BB74BB7C9BB21946BE
:1022D000F868FFF7FCFC0346FB7497F91330002BFA
:1022E00002D097F913302FE000237B6110E0F868EB
:1022F000FFF7D4FB03463B827B68002B05D07B694C
:102300005B007A6813443A8A1A807B6901337B61E7
:10231000BB7C5B08DBB21A467B699342E7DBF8685B
:10232000FFF731FD0346FB7497F91330002B02D001
:1023300097F9133008E0BA7C7B895B009A4202D09F
:102340006FF0010300E0002318461837BD4680BD3A
:1023500080B584B000AF78600B467B8013463B802D
:102360007868FFF7B8FE0346FB7397F90F30002B30
:1023700002D097F90F3031E004217868FFF7A7FC0D
:102380000346FB7397F90F30002B02D097F90F30FB
:1023900024E07868FFF782FB0346BB817868FFF78B
:1023A0007DFB03467B817868FFF7EDFC0346FB73FA
:1023B00097F90F30002B02D097F90F300EE0BA8951
:1023C0007B889A4202D06FF0010307E07A893B884C
:1023D0009A4202D06FF0010300E000231846103744
:1023E000BD4680BD80B584B000AF78600B467B8071
:1023F00013463B807868FFF76EFE0346FB7397F940
:102400000F30002B02D097F90F3031E004217868AB
:10241000FFF75DFC0346FB7397F90F30002B02D0EA
:1024200097F90F3024E07868FFF738FB0346BB814B
:102430007868FFF733FB03467B817868FFF7A3FCDE
:102440000346FB7397F90F30002B02D097F90F303A
:102450000EE0BA897B889A4202D06FF0010307E050
:102460007A893B889A4202D06FF0010300E0002392
:1024700018461037BD4680BD80B584B000AF786087
:102480000B467B8013463B807868FFF724FE0346AB
:10249000FB7397F90F30002B02D097F90F3031E022
:1024A00004217868FFF713FC0346FB7397F90F309C
:1024B000002B02D097F90F3024E07868FFF7EEFA8E
:1024C0000346BB817868FFF7E9FA03467B817868A9
:1024D000FFF759FC0346FB7397F90F30002B02D02E
:1024E00097F90F300EE0BA897B889A4202D06FF0DC
:1024F000010307E07A893B889A4202D06FF001031A
:1025000000E0002318461037BD4680BD80B584B07A
:1025100000AF78600B467B8013463B807868FFF7FE
:10252000DAFD0346FB7397F90F30002B02D097F9C1
:102530000F3031E004217868FFF7C9FB0346FB73D5
:1025400097F90F30002B02D097F90F3024E078680C
:10255000FFF7A4FA0346BB817868FFF79FFA0346AA
:102560007B817868FFF70FFC0346FB7397F90F3008
:10257000002B02D097F90F300EE0BA897B889A427F
:1025800002D06FF0010307E07A893B889A4202D0BB
:102590006FF0010300E0002318461037BD4680BDF0
:1025A000B0B5C4B000AF07F58873A3F586731860A3
:1025B00007F58873A3F58873196007F58873A3F589
:1025C000867304211868FFF782FB034687F80B31F6
:1025D00097F90B31002B02D097F90B3113E107F576
:1025E0008873A3F586731868FFF758FA0346A7F8AF
:1025F000083107F58873A3F586731868FFF74EFA5C
:102600000346A7F8063107F58873A3F586731868A3
:10261000FFF7B9FB034687F80B3197F90B31002B15
:1026200002D097F90B31EEE007F58873A3F58673B6
:102630001B6893F80B3183F00103DBB2002B00F031
:10264000D780B7F80631002B04D0B7F80631B3F5C0
:10265000FA6F09D907F58873A3F586730321186803
:10266000FFF71AFD0346CEE0B7F80821B7F80631A8
:102670001344B3F5803F09D907F58873A3F5867332
:1026800002211868FFF708FD0346BCE007F58873D0
:10269000A3F588731B68002B00F0A08007F58873F2
:1026A000A3F5847300221A600433F6220021184631
:1026B00000F05AFF07F58873A3F586731B68D3F8FB
:1026C000445107F10802B7F80611B7F8080107F5F9
:1026D0008873A3F588731C682B46A047034687F8C8
:1026E0000B3197F90B31002B1DD097F90B31002BD3
:1026F0000FDD97F90B31042B0BDC97F80B2107F555
:102700008873A3F5867311461868FFF7C5FC034666
:1027100079E007F58873A3F5867304211868FFF73D
:10272000BBFC03466FE007F58873A3F586731B684F
:1027300093F80A3183F00103DBB2002B62D0B7F8C3
:102740000631DB089BB2DBB2013387F8053197F81D
:1027500005319BB201339AB207F58873A3F58673EE
:1027600011461868FFF789FC97F8052107F588736B
:10277000A3F5867311461868FFF763F90023C7F8BD
:102780000C3114E007F58873A3F58472D7F80C3187
:1027900013441A7807F58873A3F5867311461868F1
:1027A000FFF74FF9D7F80C310133C7F80C3197F820
:1027B0000531D7F80C219A42E4DB07F58873A3F5BD
:1027C00086731868FFF7FAFB034687F80B3197F911
:1027D0000B31002B16D097F90B3114E007F58873F5
:1027E000A3F5867301211868FFF756FC03460AE03B
:1027F00007F58873A3F5867300211868FFF7E6FCD8
:10280000034600E00023184607F58877BD46B0BDB3
:10281000B0B5C4B000AF07F58873A3F58673186030
:1028200007F58873A3F58873196007F58873A3F516
:10283000867304211868FFF74AFA034687F80B31BC
:1028400097F90B31002B02D097F90B3110E107F506
:102850008873A3F586731868FFF720F90346A7F875
:10286000083107F58873A3F586731868FFF716F922
:102870000346A7F8063107F58873A3F58673186831
:10288000FFF781FA034687F80B3197F90B31002BDC
:1028900002D097F90B31EBE007F58873A3F5867347
:1028A0001B6893F80B3183F00103DBB2002B00F0BF
:1028B000D280B7F80631002B03D0B7F806317D2B54
:1028C00009D907F58873A3F5867303211868FFF704
:1028D000E3FB0346CCE0B7F80821B7F80631134410
:1028E000B3F5803F09D907F58873A3F586730221F4
:1028F0001868FFF7D1FB0346BAE007F58873A3F524
:1029000088731B68002B00F09C8007F58873A3F583
:1029100084731846FA231A46002100F025FE07F5B5
:102920008873A3F586731B68D3F8445107F1080236
:10293000B7F80611B7F8080107F58873A3F588738F
:102940001C682B46A047034687F80B3197F90B31DB
:10295000002B1DD097F90B31002B0FDD97F90B31B0
:10296000042B0BDC97F80B2107F58873A3F586730E
:1029700011461868FFF790FB034679E007F5887366
:10298000A3F5867304211868FFF786FB03466FE002
:1029900007F58873A3F586731B6893F80A3183F0F3
:1029A0000103DBB2002B62D0B7F80631DBB25B006B
:1029B00087F8053197F805319BB201339AB207F5D4
:1029C0008873A3F5867311461868FFF756FB97F8CE
:1029D000052107F58873A3F5867311461868FFF77C
:1029E00030F80023C7F80C3114E007F58873A3F51D
:1029F0008473D7F80C2133F8122007F58873A3F5F8
:102A0000867311461868FFF76EF8D7F80C3101335A
:102A1000C7F80C31B7F80631D7F80C219A42E4DB3D
:102A200007F58873A3F586731868FFF7C7FA03469E
:102A300087F80B3197F90B31002B18D097F90B3130
:102A400016E007F58873A3F5867301211868FFF770
:102A500023FB03460CE0B7F8061107F58873A3F5CE
:102A6000867300221868FFF70BFC034600E0002382
:102A7000184607F58877BD46B0BD80B582B000AF77
:102A800078607B68D3F80C3119467868FFF788FDC9
:102A9000034618460837BD4680BD80B582B000AFFA
:102AA00078607B68D3F8103119467868FFF778FDB5
:102AB000034618460837BD4680BD80B582B000AFDA
:102AC00078607B68D3F8143119467868FFF7A0FE68
:102AD000034618460837BD4680BD80B582B000AFBA
:102AE00078607B68D3F8183119467868FFF790FE54
:102AF000034618460837BD4680BD80B584B000AF98
:102B0000786004217868FFF7E2F80346FB7397F9D1
:102B10000F30002B02D097F90F3089E07868FEF76C
:102B2000BDFF0346BB817868FEF7B8FF03467B8193
:102B30007868FFF728F90346FB7397F90F30002BED
:102B400002D097F90F3073E07B6893F80B3183F074
:102B50000103DBB2002B62D07B68D3F81C31002B61
:102B600057D07B89002B09D07B89B3F57F4F05D0E7
:102B700003217868FFF790FA034659E07B68D3F8A1
:102B80001C317A89002A14BF01220022D1B27A684E
:102B9000D2F84421B88998470346FB7397F90F3060
:102BA000002B14D097F90F30002B0ADD97F90F3066
:102BB000042B06DCFB7B19467868FFF76DFA0346A9
:102BC00036E004217868FFF767FA034630E07B6857
:102BD00093F80A3183F00103DBB2002B27D00421E4
:102BE0007868FFF74AFABB8919467868FEF77BFFD9
:102BF0007B8919467868FEF776FF7868FFF7DEF97B
:102C00000346FB7397F90F30002B10D097F90F3064
:102C10000EE001217868FFF73FFA034608E07A8961
:102C2000BB8919467868FFF793FB034600E0002351
:102C300018461037BD4680BD80B584B000AF7860BF
:102C400004217868FFF743F80346FB7397F90F30C8
:102C5000002B02D097F90F3077E07868FEF71EFF5F
:102C60000346BB817868FEF719FF03467B817868CD
:102C7000FFF789F80346FB7397F90F30002B02D05A
:102C800097F90F3061E07B6893F80B3183F0010313
:102C9000DBB2002B50D07B68D3F82031002B45D01D
:102CA0007B68D3F820317A68D2F844217989B889D1
:102CB00098470346FB7397F90F30002B14D097F910
:102CC0000F30002B0ADD97F90F30042B06DCFB7B5D
:102CD00019467868FFF7E0F9034636E00421786882
:102CE000FFF7DAF9034630E07B6893F80A3183F0A6
:102CF0000103DBB2002B27D004217868FFF7BDF970
:102D0000BB8919467868FEF7EEFE7B89194678681C
:102D1000FEF7E9FE7868FFF751F90346FB7397F970
:102D20000F30002B10D097F90F300EE0012178689A
:102D3000FFF7B2F9034608E07A89BB89194678683B
:102D4000FFF750FB034600E0002318461037BD464E
:102D500080BD90B5C5B000AF07F58873A3F5867345
:102D6000186007F58873A3F5867305211868FEF7C8
:102D7000AEFF034687F80B3197F90B31002B02D0D9
:102D800097F90B3157E107F58873A3F58673186837
:102D9000FEF784FE0346A7F8083107F58873A3F50C
:102DA00086731868FEF77AFE0346A7F8063107F522
:102DB0008873A3F586731868FEF729FE034687F823
:102DC000053197F805319AB207F58873A3F5867334
:102DD00011461868FEF77BFF034687F80B3197F919
:102DE0000B31002B02D097F90B3124E107F58873E2
:102DF000A3F5847300221A600433F62200211846DA
:102E000000F0B2FB0023C7F80C3116E007F5887319
:102E1000A3F586731868FEF7FAFD0346194607F511
:102E20008873A3F58472D7F80C3113440A461A70DC
:102E3000D7F80C310133C7F80C3197F80531D7F8C2
:102E40000C219A42E2DB07F58873A3F586731868B4
:102E5000FEF799FF034687F80B3197F90B31002BEA
:102E600002D097F90B31E6E007F58873A3F5867376
:102E70001B6893F80B3183F00103DBB2002B00F0E9
:102E8000CC80B7F80631002B04D0B7F80631B3F583
:102E9000F66F09D907F58873A3F5867303211868BF
:102EA000FFF7FAF80346C6E0B7F80821B7F806318D
:102EB0001344B3F5803F09D907F58873A3F58673EA
:102EC00002211868FFF7E8F80346B4E097F80531E7
:102ED000002B09D107F58873A3F5867303211868C1
:102EE000FFF7DAF80346A6E0B7F80631DB089BB235
:102EF0005A1C97F805319A4209D007F58873A3F553
:102F0000867303211868FFF7C7F8034693E007F5B7
:102F10008873A3F586731B68D3F82431002B72D015
:102F200007F58873A3F586731B68D3F8244107F56A
:102F30008873A3F586731B68D3F8443107F1080240
:102F4000B7F80611B7F80801A047034687F80B3118
:102F500097F90B31002B1DD097F90B31002B0FDDAA
:102F600097F90B31042B0BDC97F80B2107F58873CD
:102F7000A3F5867311461868FFF78EF803465AE0EA
:102F800007F58873A3F5867304211868FFF784F8A2
:102F9000034650E007F58873A3F586731B6893F822
:102FA0000A3183F00103DBB2002B43D007F58873AD
:102FB000A3F5867304211868FFF75FF8B7F80821B6
:102FC00007F58873A3F5867311461868FEF78BFD25
:102FD000B7F8062107F58873A3F5867311461868BC
:102FE000FEF781FD07F58873A3F586731868FEF771
:102FF000E5FF034687F80B3197F90B31002B19D009
:1030000097F90B3117E007F58873A3F58673012153
:103010001868FFF741F803460DE0B7F80621B7F846
:10302000081107F58873A3F586731868FFF724FA6B
:10303000034600E00023184607F58A77BD4690BD99
:1030400090B5C5B000AF07F58873A3F58673186017
:1030500007F58873A3F5867305211868FEF737FE18
:10306000034687F80B3197F90B31002B02D097F903
:103070000B314AE107F58873A3F586731868FEF7EC
:103080000DFD0346A7F8083107F58873A3F586738D
:103090001868FEF703FD0346A7F8063107F58873A5
:1030A000A3F586731868FEF7B2FC034687F805316E
:1030B00097F805319AB207F58873A3F58673114620
:1030C0001868FEF704FE034687F80B3197F90B31B9
:1030D000002B02D097F90B3117E10023C7F80C3110
:1030E00015E007F58873A3F586731868FEF7D6FC1C
:1030F0000346194607F58873A3F58273D7F80C21A8
:1031000023F81210D7F80C310133C7F80C3197F8B7
:1031100005315B08DBB21A46D7F80C319342E0DB8D
:1031200007F58873A3F586731868FEF72CFE03462F
:1031300087F80B3197F90B31002B02D097F90B313F
:10314000E3E007F58873A3F586731B6893F80B31EA
:1031500083F00103DBB2002B00F0C980B7F8063121
:10316000002B03D0B7F806317B2B09D907F58873FC
:10317000A3F5867303211868FEF78EFF0346C4E0AB
:10318000B7F80821B7F806311344B3F5803F09D9E1
:1031900007F58873A3F5867302211868FEF77CFF94
:1031A0000346B2E097F80531002B09D107F5887383
:1031B000A3F5867303211868FEF76EFF0346A4E0AB
:1031C00097F80521B7F806315B009A4209D007F558
:1031D0008873A3F5867303211868FEF75DFF034625
:1031E00093E007F58873A3F586731B68D3F828313D
:1031F000002B72D007F58873A3F586731B68D3F88C
:10320000284107F58873A3F586731B68D3F844310A
:1032100007F10C02B7F80611B7F80801A0470346FA
:1032200087F80B3197F90B31002B1DD097F90B3133
:10323000002B0FDD97F90B31042B0BDC97F80B21DA
:1032400007F58873A3F5867311461868FEF724FF07
:1032500003465AE007F58873A3F5867304211868BE
:10326000FEF71AFF034650E007F58873A3F586734F
:103270001B6893F80A3183F00103DBB2002B43D0C3
:1032800007F58873A3F5867304211868FEF7F5FE29
:10329000B7F8082107F58873A3F5867311461868F7
:1032A000FEF721FCB7F8062107F58873A3F58673AE
:1032B00011461868FEF717FC07F58873A3F58673A7
:1032C0001868FEF77BFE034687F80B3197F90B3140
:1032D000002B19D097F90B3117E007F58873A3F588
:1032E000867301211868FEF7D7FE03460DE0B7F894
:1032F0000621B7F8081107F58873A3F586731868D7
:10330000FFF704F9034600E00023184607F58A7723
:10331000BD4690BD80B584B000AF78607B6893F8FF
:103320000731013B0F2B53D801A252F823F000BF05
:10333000713300087D330008893300089533000895
:10334000A1330008AD330008D1330008D1330008A1
:10335000D1330008D1330008D1330008D13300083D
:10336000D1330008D1330008B9330008C533000851
:103370007868FFF782FB0346FB732BE07868FFF762
:103380008CFB0346FB7325E07868FFF796FB03464A
:10339000FB731FE07868FFF7A0FB0346FB7319E09F
:1033A0007868FFF7AAFB0346FB7313E07868FFF722
:1033B00043FC0346FB730DE07868FFF7CAFC034645
:1033C000FB7307E07868FFF73BFE0346FB7301E001
:1033D0000123FB7397F90F3018461037BD4680BDA7
:1033E000B0B586B000AFF8607A603B600B46FB7208
:1033F0007B681B78012B05D1FB7A002B02D14FF0A3
:10340000FF331CE07968F868FEF7C0FB0346FB75E4
:1034100097F91730002B02D097F917300FE0FB68AF
:10342000FA7A83F84821FB683A6803F586741546F2
:103430000FCD0FC40FCD0FC42B6823600023184697
:103440001837BD46B0BD90B585B000AF78607868DC
:10345000FEF77DFB0023BB7307F10E031946786866
:10346000FEF7D3FD0346FB7397F90F30002B0FD007
:10347000BB7B83F00103DBB2002B06D097F90F3042
:1034800013F1030F01D1002331E097F90F302EE043
:103490007868FFF73FFF0346FB7397F90F30002B67
:1034A00024D097F90F30002B03DD97F90F30042B50
:1034B0001CDD7B6893F83831012B14D197F90F305C
:1034C00013F1030F0FD07B6893F80B31002B0AD058
:1034D0007B68D3F83C4178687B68D3F8443100229C
:1034E0004FF48271A04797F90F3000E0002318468F
:1034F0001437BD4690BD0000014B1868704700BFEF
:103500000000002070B50D4D0D4C641BA41000266A
:10351000A64209D10B4D0C4C01F08EF8641BA4108F
:103520000026A64205D170BD55F8043B98470136E8
:10353000EEE755F8043B98470136F2E73C470008B0
:103540003C4700083C470008404700080A449142B5
:1035500000F1FF3300D1704710B511F8014B03F8AB
:10356000014F9142F9D110BD02440346934200D16C
:10357000704703F8011BF9E770B50E46054618B110
:1035800083690BB900F068FAAB69AC6813B92846D7
:1035900000F062FA2C4B9C4220D16C68636EDB0712
:1035A00005D4A389980502D4A06D00F0F3FAA3898D
:1035B00019071DD52369DBB1013EA36816F8011F69
:1035C000013BA36039BB002B38DA22460A2128468A
:1035D00000F068F8013011D00A2511E01B4B9C4225
:1035E00001D1AC68DAE71A4B9C4208BFEC68D5E71A
:1035F0002146284600F0A8F80028DDD04FF0FF351E
:10360000636EDA0705D4A3899B0502D4A06D00F090
:10361000C2FA284670BD002B04DAA2699A4206DC81
:103620000A2904D023685A1C22601970C5E7224673
:10363000284600F037F80130BFD1DFE723680A25BC
:103640005A1C22601D70DBE7C0460008E0460008F7
:10365000A0460008024B01461868FFF78DBF00BF67
:10366000000000200EB400B59CB01DAB0290069087
:103670006FF00041094807910491094953F8042B60
:1036800005910068019302A900F028FC029B00222A
:103690001A701CB05DF804EB03B070470000002006
:1036A0000802FFFFF8B50E461446054618B18369B7
:1036B0000BB900F0D1F9214B9C422BD16C68A36966
:1036C000A360A3891A072FD523696BB323692068E8
:1036D000C01A6369F6B28342374604DC21462846A5
:1036E00000F026F930BBA368013BA36023685A1C95
:1036F00022601E7063690130834204D0A389DB0716
:1037000006D50A2E04D12146284600F011F988B9C1
:103710003846F8BD0A4B9C4201D1AC68CFE7094B53
:103720009C4208BFEC68CAE72146284600F00CF826
:103730000028CBD04FF0FF37EAE700BFC0460008B3
:10374000E0460008A0460008324B70B51D680646EA
:103750000C4625B1AB6913B9284600F07DF92E4B14
:103760009C420FD16C68A389B4F90C2019072CD4A2
:10377000DD0611D40923336042F04003A3814FF0EA
:10378000FF303EE0254B9C4201D1AC68EBE7244B77
:103790009C4208BFEC68E6E7580712D5616B41B15F
:1037A00004F14403994202D0304600F05BFA002352
:1037B0006363A38923F02403A38100236360236947
:1037C0002360A38943F00803A38123694BB9A3892C
:1037D00003F42073B3F5007F03D02146304600F098
:1037E00001FAA089B4F90C2010F001030AD00023DB
:1037F000A36063695B42A361236943B910F0800051
:10380000BAD170BD810758BF6369A360F4E7002097
:10381000F7E700BF00000020C0460008E0460008AF
:10382000A04600088A892DE9F041054610070C469C
:1038300058D44B68002B05DC0B6C002B02DC0020FD
:10384000BDE8F081E66A002EF9D0002312F4805220
:103850002F682B6032D0606DA3895A0705D5636845
:10386000C01A636B0BB1236CC01A00230246E66AD0
:10387000216A2846B047431CA38906D129681D291F
:103880002CD82A4ACA40D60728D500226260D9041B
:103890002269226004D5421C01D12B6803B96065FE
:1038A000616B2F600029CAD004F14403994202D011
:1038B000284600F0D7F900206063C1E7216A0123A0
:1038C0002846B047411CC7D12B68002BC4D01D2B04
:1038D00001D0162B01D12F60B1E7A38943F040033B
:1038E000A381ADE70F69002FA9D093070E6808BF29
:1038F0004B690F6018BF0023A6EB07088B60B8F177
:10390000000F9CDD216AA66A43463A462846B04726
:10391000002806DCA38943F04003A3814FF0FF3069
:103920008EE70744A8EB0008E9E700BF010040204C
:1039300038B50B6905460C4613B90025284638BD35
:1039400018B183690BB900F087F8144B9C421BD166
:103950006C68B4F90C30002BEFD0626ED00704D441
:10396000990502D4A06D00F015F928462146FFF70D
:1039700059FF636EDA070546E0D4A3899B05DDD4C1
:10398000A06D00F008F9D9E7054B9C4201D1AC6865
:10399000DFE7044B9C4208BFEC68DAE7C04600084A
:1039A000E0460008A0460008002310B50446C0E920
:1039B0000033C0E90433836081814366C28183613F
:1039C000194608225C30FFF7CFFD054B6362054BBB
:1039D000A362054BE362054B2462236310BD00BF65
:1039E00025440008474400087F440008A344000819
:1039F000014900F0AFB800BF3139000870B5682246
:103A00004D1E55430E4605F1740100F097F904462A
:103A100040B10021C0E900160C30A06005F1680239
:103A2000FFF7A2FD204670BD014800F0B3B800BF0B
:103A300019020020014800F0AEB800BF19020020B2
:103A4000014800F0A7B800BF1A020020014800F0AA
:103A5000A2B800BF1A02002010B50446FFF7F0FF1D
:103A6000A3691BB1BDE81040FFF7F0BFC4E91233F2
:103A70002365134B134A1B68A262A34204BF0123B0
:103A8000A361204600F020F86060204600F01CF89A
:103A9000A060204600F018F80022E0600421606871
:103AA000FFF782FFA06801220921FFF77DFFE06890
:103AB00002221221FFF778FF0123A361D2E700BFA2
:103AC0009C460008F1390008F8B50746FFF7ACFF3F
:103AD0001E4B1E68B36913B93046FFF7BDFF483669
:103AE000D6E90134013B03D533680BB33668F7E7F9
:103AF000B4F90C50D5B9164BE36004F15800656673
:103B000000F047F8FFF796FFC4E90155C4E90455F2
:103B10002560A5610822294604F15C00FFF724FD19
:103B2000C4E90D55C4E912552046F8BD6834D9E7FB
:103B300004213846FFF762FF044630600028D5D1E3
:103B4000FFF778FF0C233B60EEE700BF9C460008C0
:103B50000100FFFF2DE9F8430646884600F14804BE
:103B60000027D4E90195B9F1010905D52468002C95
:103B7000F7D13846BDE8F883AB89012B07D9B5F9F1
:103B80000E30013303D029463046C047074368351D
:103B9000E9E770477047704770B50E46B1F90E10EF
:103BA000002996B014461D4608DAB6F90C300022FA
:103BB0002A601A0610D44FF480630EE06A4600F0C3
:103BC00097FC0028F1DB019A02F47042A2F5005341
:103BD0005A425A412A60EEE740230020236016B083
:103BE00070BD00008B8973B59D0706460C4607D54E
:103BF00004F14703236023610123636102B070BDB8
:103C000001AB6A46FFF7C8FF00990546304600F051
:103C100095F848B9B4F90C309A05EFD423F00303B2
:103C200043F00203A381E3E70D4BB362A389206055
:103C300043F08003A381009B6361019B20615BB122
:103C4000B4F90E10304600F065FC28B1A38923F0CA
:103C5000030343F00103A381A0890543A581CDE7B8
:103C6000F139000837B5002944D051F8043C0190DF
:103C7000002BA1F10404B8BFE41800F087FC1E4A31
:103C80000198136833B96360146003B0BDE8304035
:103C900000F082BCA34208D9256861198B4201BF9C
:103CA00019685B6849192160EDE71A465B680BB13A
:103CB000A342FAD911685518A5420BD124682144B2
:103CC0005418A3421160E0D11C685B685360214422
:103CD0001160DAE702D90C230360D6E72568611981
:103CE0008B4204BF19685B68636004BF4919216097
:103CF0005460CAE703B030BD1C02002070B50E4E00
:103D00000C463168054611B900F07CFB3060214655
:103D1000284600F077FB431C0AD0C41C24F003049F
:103D2000A04207D0211A284600F06CFB013001D1D7
:103D30004FF0FF34204670BD200200202DE9F041F5
:103D4000CD1C25F0030508350C2D38BF0C25002DA2
:103D5000074601DBA94205D90C233B60002630460B
:103D6000BDE8F0812E4E00F011FC33681C4634BBD8
:103D700029463846FFF7C2FF431C04464DD134683C
:103D80002646002E40D123683146384604EB03080E
:103D900000F038FB80453AD1216803356D1A25F0D3
:103DA000030508350C2D38BF0C2529463846FFF78A
:103DB000A5FF01302BD023682B4423600EE022683E
:103DC000521B1ED40B2A16D96119A342256018BFB5
:103DD0005960636808BF316062514B60384604F136
:103DE0000B0600F0D9FB26F00706231DF21AB6D009
:103DF0009B1BA350B3E76268A3420CBF32605A60BA
:103E0000ECE723466468B2E734467668B9E70C23EA
:103E10003B60384600F0C0FBA1E72560DEE700BF4D
:103E20001C0200202DE9F0478E689E4282460C4617
:103E300090461F4638D88A8912F4906F32D0256890
:103E40000969A5EB0109656905EB450505EBD57524
:103E500001334B446D109D4238BF1D46530531D58B
:103E60002946FFF76BFF064650B90C23CAF800300D
:103E7000A38943F04003A3814FF0FF30BDE8F087F2
:103E800021694A46FFF762FBA38923F4906343F05C
:103E90008003A381266165614E44A5EB0905266078
:103EA000A5603E46BE4200D93E46206832464146A5
:103EB00000F052FBA3689B1BA3602368334423607C
:103EC0000020DBE72A4600F06DFB06460028E1D122
:103ED00021695046FFF7C6FEC7E700002DE9F04F05
:103EE00098468B891B069DB007460D4614460ED595
:103EF0000B6963B94021FFF721FF2860286120B9D1
:103F00000C233B604FF0FF30D1E040236B61002376
:103F1000099320238DF82930CDF80C803023DFF869
:103F2000A8818DF82A304FF0010923469A4613F8EC
:103F3000012B0AB1252AF9D1BAEB040B0BD05B4651
:103F4000224629463846FFF76DFF013000F0AA806F
:103F5000099A5A4409929AF80030002B00F0A28086
:103F600000234FF0FF32CDE905230AF1010A049343
:103F700007938DF853301A935446052214F8011B09
:103F80005148FCF73DF9049AD8B9D00644BF202324
:103F90008DF85330110744BF2B238DF853309AF816
:103FA00000302A2B15D0079A544600204FF00A0CF7
:103FB000214611F8013B303B092B4ED9B0B1079295
:103FC00014E0A0EB080309FA03F313430493A24699
:103FD000D2E7039B191D1B680391002BBBBF5B42FB
:103FE00042F0020207930793B8BF049223782E2B66
:103FF0000CD163782A2B35D1039B1A1D1B680392C1
:10400000002BB8BF4FF0FF3302340593DFF8C8A090
:10401000217803225046FCF7F3F840B14023A0EB8F
:104020000A0003FA00F0049B03430134049314F8DC
:10403000011B26488DF828100622FCF7E1F800281D
:1040400038D0234B1BBB039B073323F007030833F4
:104050000393099B3344099367E70CFB02320C4638
:104060000120A5E700230134059319464FF00A0CFF
:10407000204610F8012B303A092A03D9002BC5D06D
:104080000591C3E70CFB012104460123F0E703ABD4
:1040900000932A460F4B04A93846AFF30080421C18
:1040A0000646D6D1AB895B063FF52CAF09981DB00B
:1040B000BDE8F08F03AB00932A46064B04A93846AF
:1040C00000F07AF8EBE700BF004700080A47000855
:1040D00000000000253E0008064700082DE9F047D3
:1040E000164699468A680B69DDF820809342B8BF6E
:1040F0001346336091F8432007460C460AB101335A
:1041000033602368990642BF336802333360256801
:1041100015F0060506D104F1190AE36832689B1A06
:10412000AB4226DC94F84320131E226818BF0123FB
:1041300092062BD404F1430249463846C047013069
:104140001ED02368E568326803F00603042B08BF1D
:10415000AD1AA36822690CBF25EAE57500259342D4
:10416000C4BF9B1AED1800261A34B5421AD100209C
:1041700008E00123524649463846C047013003D182
:104180004FF0FF30BDE8F0870135C6E7E1185A1C53
:10419000302081F84300224494F8451082F84310FF
:1041A0000233C7E70123224649463846C04701305B
:1041B000E6D00136D9E700002DE9FF470F7E0C9DC0
:1041C000782F914680460C469A4601F1430207D863
:1041D000622F0AD8002F00F0D880582F00F0A3805B
:1041E00004F1420584F842703AE0A7F16303152B0D
:1041F000F6D801A151F823F05142000865420008A9
:10420000E1410008E1410008E1410008E141000806
:1042100065420008E1410008E1410008E141000871
:10422000E14100087143000895420008534300082B
:10423000E1410008E141000893430008E141000822
:1042400095420008E1410008E14100085B43000895
:104250002B681A1D1B682A6004F1420584F842305D
:104260000123A3E020682968060601F104030AD5AA
:104270000E682B60002E03DA2D23764284F843303B
:104280005E480A2319E00E682B6010F0400F18BF3B
:1042900036B2EFE72B682068191D2960010601D5A9
:1042A0001E6802E04606FBD51E8854486F2F0CBFDF
:1042B00008230A23002184F843106568A560002DB7
:1042C000A2BF216821F0040121600EB9002D4DD05C
:1042D0001546B6FBF3F103FB1167C75D05F8017DD9
:1042E0003746BB420E46F4D9082B0BD12368DE07B4
:1042F00008D5236961689942DEBF302305F8013C87
:1043000005F1FF35521B2261CDF800A04B4603AAF0
:1043100021464046FFF7E2FE01304CD14FF0FF301E
:1043200004B0BDE8F087354881F8457029682368F6
:1043300051F8046B29601D0614D5DF0744BF43F014
:10434000200323601EB9236823F020032360102379
:10435000B0E7236843F0200323607823284884F8DB
:104360004530E3E7590648BFB6B2E6E71546BBE776
:104370002B6826686169181D286035061B6801D501
:10438000196002E07006FBD51980002323611546F1
:10439000BAE72B681A1D2A601D686268002128464A
:1043A000FBF72EFF08B1401B6060636823610023A8
:1043B00084F84330A8E723692A4649464046D04757
:1043C0000130ABD023689B0713D4E068039B98426D
:1043D000B8BF1846A4E70123324649464046D047B5
:1043E00001309BD00135E36803995B1AAB42F2DCE4
:1043F000EBE7002504F11906F5E700BF11470008B7
:104400002247000838B5064D0023044608462B60B5
:10441000FCF786FC431C02D12B6803B1236038BD36
:104420002402002010B50C46B1F90E1000F0EAF895
:104430000028ABBF636DA3891B1823F48053ACBF66
:104440006365A38110BD2DE9F0411F468B89DB0513
:1044500005460C46164605D5B1F90E10022300227A
:1044600000F068F8A389B4F90E1023F48053A381F7
:1044700032463B462846BDE8F04100F017B810B57B
:104480000C46B1F90E1000F055F8431CA38915BF76
:10449000606523F4805343F48053A38118BFA38144
:1044A00010BDB1F90E1000F013B8000038B5074D7B
:1044B00004460846114600222A601A46FCF7DFFB34
:1044C000431C02D12B6803B1236038BD24020020B5
:1044D00038B5064D0023044608462B60FCF7EBFB7D
:1044E000431C02D12B6803B1236038BD2402002095
:1044F00038B5074D00230446084611462B60FCF7EB
:10450000E6FB431C02D12B6803B1236038BD00BF1A
:104510002402002038B5064D0023044608462B60CF
:10452000FCF7E5FB431C02D12B6803B1236038BDC7
:104530002402002038B5074D0446084611460022E3
:104540002A601A46FCF7DEFB431C02D12B6803B13C
:10455000236038BD24020020884210B501EB02041C
:1045600002D98442234607D8431EA14208D011F83D
:10457000012B03F8012FF8E7024401468A4200D1DB
:1045800010BD13F8014D02F8014DF7E70148FFF7A0
:1045900001BB00BF180200200148FFF7FCBA00BFB2
:1045A000180200202DE9F041804614460E4621B93C
:1045B000BDE8F0411146FFF7C1BB2AB9FFF752FB36
:1045C00025462846BDE8F08100F02EF884420746D3
:1045D00002D8B4EB500F12D821464046FFF7AEFB8D
:1045E00005460028EDD0BC422246314628BF3A4657
:1045F000FEF7ACFF31464046FFF734FBE1E73546B6
:10460000DFE7000038B5074D044608461146002292
:104610002A601A46FCF716FB431C02D12B6803B133
:10462000236038BD2402002051F8043C181F002BE1
:10463000BCBF0B58C0187047F8B500BFF8BC08BC29
:104640009E467047F8B500BFF8BC08BC9E46704750
:10465000686F6C61206D756E646F2064657364654E
:10466000207573617274320D000000006573746F01
:1046700020657320756E61207072756562612064BB
:1046800065206C612066756E63696F6E2074780DAD
:104690000A00000072783A25730D0A000400002019
:1046A000000000000000000000000000000000000A
:1046B00000000000000000000000000000000000FA
:1046C00000000000000000000000000000000000EA
:1046D00000000000000000000000000000000000DA
:1046E00000000000000000000000000000000000CA
:1046F00000000000000000000000000000000000BA
:10470000232D302B2000686C4C00656667454647BA
:10471000003031323334353637383941424344453D
:1047200046003031323334353637383961626364AC
:0447300065660000BA
:084734009CBBFF7F01000000A7
:04473C00D50100089B
:04474000B1010008BB
:104744000400002000000000C0460008E046000805
:10475400A046000800000000000000000000000067
:104764000000000000000000000000000000000045
:104774000000000000000000000000000000000035
:104784000000000000000000000000000000000025
:104794000000000000000000000000000000000015
:0447A4000000000011
:0400000508000DB131
:00000001FF
